:020000040800F2
:10000000B8BC0024DD2F010855350108573501081B
:10001000593501085B3501085D3501080000000015
:100020000000000000000000000000007156000801
:100030005F350108000000001956000875340008FB
:10004000273A01082B3A01082F3A0108333A0108F0
:10005000373A01083B3A01083F3A0108433A0108A0
:1000600061350108473A01084B3A01084F3A010847
:10007000533A0108573A01085B3A01085F3A010810
:10008000633A0108673A01086B3A01086F3A0108C0
:10009000733A0108773A01087B3A01087F3A010870
:1000A000833A0108873A01088B3A01088F3A010820
:1000B000933A0108973A01089B3A01089F3A0108D0
:1000C000A33A0108A73A0108AB3A0108AF3A010880
:1000D000B33A0108B73A0108BB3A0108BF3A010830
:1000E000C33A0108C73A0108CB3A0108CF3A0108E0
:1000F000D33A0108D73A0108DB3A0108DF3A010890
:10010000E33A0108E73A0108EB3A0108EF3A01083F
:10011000F33A0108F73A010867350108FB3A01088C
:10012000FF3A0108033B0108073B01080B3B0108AC
:100130000F3B01080000000000000000133B010815
:10014000173B01081B3B01081F3B0108233B01082B
:10015000273B01082B3B01082F3B0108333B0108DB
:10016000373B01083B3B01083F3B0108433B01088B
:10017000473B01084B3B01084F3B0108533B01083B
:10018000573B01085B3B01085F3B0108633B0108EB
:10019000673B01086B3B01086F3B0108733B01089B
:1001A0006D350108773B0108733501087B3B010879
:1001B000793501087F3B0108833B0108873B010833
:1001C0008B3B01088F3B010800000000000000008D
:1001D0000000000000000000933B01080000000048
:1001E000000000000000000000000000000000000F
:1001F0000000000000000000973B01089B3B010845
:100200009F3B0108A33B010800000000A73B010839
:10021000AB3B0108AF3B0108B33B0108B73B01080A
:10022000BB3B0108BF3B0108C33B010800000000C5
:10023000C73B0108CB3B010800000000CF3B010891
:10024000D33B0108D73B0108DB3B0108DF3B01083A
:10025000E33B0108E73B0108EB3B0108EF3B0108EA
:10026000F33B0108F73B0108FB3B0108FF3B01089A
:10027000033C0108073C01080B3C0108000000009A
:100280000F3C0108133C010800000000173C010866
:10029000000000001B3C01081F3C0108233C010832
:1002A000273C01082B3C01082F3C010800000000FE
:1002B000000000000000000000000000000000003E
:1002C00000000090000000003C003C000D000B000E
:1002D0002200244040380090000000003C003C0018
:1002E0000D000B0022002440000000000000000070
:1002F00000000000000000007479706564546578A7
:10030000747320213D2030202626202254797065E8
:1003100064546578742064617461626173652068F7
:100320006173206E6F74206265656E20696E6974FA
:1003300069616C697A65642E22000000443A5C3978
:10034000395F50726F6A6563745C4769744875629F
:100350005C546F7563684746585C4D794170706CAA
:1003600069636174696F6E5C455741524D2F2E2E43
:100370002F4D6964646C6577617265732F53542FD8
:10038000746F7563686766782F6672616D65776FE5
:10039000726B2F696E636C7564655C746F756368EE
:1003A0006766782F5479706564546578742E687028
:1003B0007000000074797065645465787449642035
:1003C0003C206E756D6265724F6654797065645439
:1003D00065787473202626202274797065645465CC
:1003E00078744964206C6172676572207468616E0C
:1003F000206E756D6265724F6654797065645465E0
:100400007874732E2200000000000000000000003D
:1004100051590008C7610008D76100080768000843
:1004200001390108DD38010800000000000000006B
:1004300000000000000000000000000000000000BC
:10044000635900088B5900081B6300080000000076
:100450000000000087770008000000006F7A0008A5
:10046000B38500083F8E00088739010897390108D5
:10047000000000000000000051590008C76100089A
:10048000D761000807680008E7610008DD38010847
:10049000000000000000000000000000000000005C
:1004A0000000000000000000635900088B5900089C
:1004B0001B630008000000000000000000000000B6
:1004C000000000004F3901086739010800000000F2
:1004D0000000000051590008C7610008D7610008FA
:1004E00007680008E7610008DD3801080000000027
:1004F00000000000000000000000000000000000FC
:1005000000000000635900088B5900081B630008B5
:100510000000000000000000BF8E00080000000086
:10052000DB8E0008B38500083F8E0008873901087C
:100530009739010873697A656F6628536372656538
:100540006E5479706529203C3D20686561702E737A
:10055000637265656E53746F726167652E656C6555
:100560006D656E745F73697A6528292026262022BE
:100570005669657720616C6C6F636174696F6E207A
:100580006572726F723A20436865636B20746861AC
:100590007420616C6C2076696577732061726520C8
:1005A000616464656420746F2046726F6E74656E5A
:1005B00064486561703A3A56696577547970657335
:1005C00022000000443A5C39395F50726F6A6563FB
:1005D000745C4769744875625C546F75636847461C
:1005E000585C4D794170706C69636174696F6E5CC1
:1005F000455741524D2F2E2E2F4D6964646C6577FF
:10060000617265732F53542F746F756368676678D2
:100610002F6672616D65776F726B2F696E636C7593
:1006200064655C6D76702F4D56504170706C6963D7
:100630006174696F6E2E68707000000073697A656E
:100640006F662850726573656E7465725479706553
:1006500029203C3D20686561702E70726573656E5F
:1006600074657253746F726167652E656C656D6534
:100670006E745F73697A65282920262620225072BD
:100680006573656E74657220616C6C6F636174690B
:100690006F6E206572726F723A20436865636B20DB
:1006A0007468617420616C6C2070726573656E741F
:1006B0006572732061726520616464656420746F83
:1006C0002046726F6E74656E64486561703A3A5088
:1006D000726573656E74657254797065732200007B
:1006E00073697A656F66285472616E7354797065A8
:1006F00029203C3D20686561702E7472616E7369BB
:1007000074696F6E53746F726167652E656C656D89
:10071000656E745F73697A65282920262620225425
:1007200072616E736974696F6E20616C6C6F636166
:1007300074696F6E206572726F723A2043686563E8
:100740006B207468617420616C6C207472616E73CC
:100750006974696F6E732061726520616464656499
:1007600020746F2046726F6E74656E6448656170A8
:100770003A3A5472616E736974696F6E5479706538
:1007800073220000000000000000000000000000D4
:1007900000000000333901080000000000000000E4
:1007A0000000000023980008000000006DAF000862
:1007B00009B000086DB000088739010897390108B1
:1007C000C9B00008F7A1000873697A656F662853FD
:1007D000637265656E5479706529203C3D206865BB
:1007E00061702E73637265656E53746F72616765B5
:1007F0002E656C656D656E745F73697A6528292056
:10080000262620225669657720616C6C6F636174BF
:10081000696F6E206572726F723A20436865636B10
:10082000207468617420616C6C2076696577732030
:1008300061726520616464656420746F2046726F24
:100840006E74656E64486561703A3A5669657754AE
:100850007970657322000000443A5C39395F507248
:100860006F6A6563745C4769744875625C546F7540
:1008700063684746585C4D794170706C6963617478
:10088000696F6E5C455741524D2F2E2E2F4D696476
:10089000646C6577617265732F53542F746F756341
:1008A000686766782F6672616D65776F726B2F6906
:1008B0006E636C7564655C6D76702F4D565041703B
:1008C000706C69636174696F6E2E687070000000EF
:1008D00073697A656F662850726573656E746572A8
:1008E0005479706529203C3D20686561702E7072D6
:1008F0006573656E74657253746F726167652E659A
:100900006C656D656E745F73697A6528292026268B
:10091000202250726573656E74657220616C6C6F15
:10092000636174696F6E206572726F723A204368FA
:1009300065636B207468617420616C6C20707265F3
:1009400073656E746572732061726520616464659D
:100950006420746F2046726F6E74656E64486561C2
:10096000703A3A50726573656E7465725479706549
:100970007322000073697A656F66285472616E7322
:100980005479706529203C3D20686561702E747231
:10099000616E736974696F6E53746F726167652EEF
:1009A000656C656D656E745F73697A6528292026AC
:1009B0002620225472616E736974696F6E20616CB7
:1009C0006C6F636174696F6E206572726F723A202A
:1009D000436865636B207468617420616C6C20747B
:1009E00072616E736974696F6E73206172652061E4
:1009F0006464656420746F2046726F6E74656E6403
:100A0000486561703A3A5472616E736974696F6EC9
:100A1000547970657322000000000000000000009F
:100A2000000000000000000017390108000000006D
:100A30000000000000000000C3900008000000005B
:100A400001AE0008E9AF000829B0000887390108A5
:100A500097390108B1B0000863A1000873697A658D
:100A60006F662853637265656E5479706529203C02
:100A70003D20686561702E73637265656E53746F97
:100A8000726167652E656C656D656E745F73697AFA
:100A900065282920262620225669657720616C6CFE
:100AA0006F636174696F6E206572726F723A204372
:100AB0006865636B207468617420616C6C20766972
:100AC0006577732061726520616464656420746F6A
:100AD0002046726F6E74656E64486561703A3A566E
:100AE000696577547970657322000000443A5C3977
:100AF000395F50726F6A6563745C476974487562E8
:100B00005C546F7563684746585C4D794170706CF2
:100B100069636174696F6E5C455741524D2F2E2E8B
:100B20002F4D6964646C6577617265732F53542F20
:100B3000746F7563686766782F6672616D65776F2D
:100B4000726B2F696E636C7564655C6D76702F4D8A
:100B500056504170706C69636174696F6E2E687075
:100B60007000000073697A656F662850726573655E
:100B70006E7465725479706529203C3D206865610A
:100B8000702E70726573656E74657253746F7261E6
:100B900067652E656C656D656E745F73697A65282F
:100BA00029202626202250726573656E7465722096
:100BB000616C6C6F636174696F6E206572726F72C5
:100BC0003A20436865636B207468617420616C6CC3
:100BD0002070726573656E74657273206172652032
:100BE000616464656420746F2046726F6E74656E14
:100BF00064486561703A3A50726573656E746572E7
:100C0000547970657322000073697A656F662854A1
:100C100072616E735479706529203C3D206865616E
:100C2000702E7472616E736974696F6E53746F7233
:100C30006167652E656C656D656E745F73697A6555
:100C4000282920262620225472616E736974696FE8
:100C50006E20616C6C6F636174696F6E2065727277
:100C60006F723A20436865636B2074686174206119
:100C70006C6C207472616E736974696F6E7320613D
:100C8000726520616464656420746F2046726F6EC3
:100C900074656E64486561703A3A5472616E736946
:100CA00074696F6E54797065732200002000000033
:100CB0000100000020000000010000001C000000F6
:100CC000010000001C000000010000000000000006
:100CD000000000000000000000000000A3AC0008BD
:100CE000A9380108C9380108CD3801080000000002
:100CF0004168000800000000E97900081379000845
:100D0000D1380108C7380008D538010887570008CE
:100D10008DA200089F7900089B3901089F390108BE
:100D20007DA2000864656661756C745461736B0024
:100D30004755495F5461736B00000000746573741C
:100D400054696D6572000000240D00080000000069
:100D50000000000000000000000000000002000091
:100D6000180000000000000000000000300D000826
:100D70000000000000000000000000000000000073
:100D8000004000001800000000000000000000000B
:100D9000286672616D655F6275666665725F736510
:100DA0006D20213D203029202626202243726561B6
:100DB00074696F6E206F66206672616D656275661C
:100DC0006665722073656D6170686F72652066611B
:100DD000696C656422000000443A5C39395F5072E6
:100DE0006F6A6563745C4769744875625C546F75BB
:100DF00063684746585C4D794170706C69636174F3
:100E0000696F6E5C546F7563684746585C746172B5
:100E10006765745C67656E6572617465645C4F5389
:100E200057726170706572732E63707000000000FD
:100E3000287673796E635F717565756520213D2035
:100E4000302920262620224372656174696F6E2046
:100E50006F66207673796E63206D65737361676565
:100E6000207175657565206661696C656422000096
:100E70000000000000000000FFAD00089BB3000868
:100E800067F1000800000000000000000000000002
:100E90000000000000000000000000000000000052
:100EA000118F0008138F0008DF0F010800000000F9
:100EB000FCFFFFFF00000000000000000000000039
:100EC0000000000000000000F337010800000000EF
:100ED000ED6F0008D58E0008532D0108D98E00084B
:100EE000DB72000883730008AD740008DB2F010873
:100EF000FB3501080000000000000000DF39010898
:100F000000000000ED6F000817380108532D01089C
:100F10004F380108DB72000883730008AD740008C5
:100F2000DB2F0108FB350108000000000000000075
:100F30000000000000000000A3390108BF390108CB
:100F40000000000000000000E1390108000000007E
:100F5000ED6F0008959B0008532D01084F380108DC
:100F6000DB72000883730008AD740008DB2F0108F2
:100F7000FB3501080000000000000000F5900008AB
:100F8000F7900008E339010800000000FCFFFFFFB4
:100F90000000000000000000000000000000000051
:100FA00000000000E539010800000000ED6F0008B6
:100FB000BD900008532D0108C1900008DB720008A5
:100FC00083730008AD740008DB2F0108FB350108AE
:100FD0000000000000000000233A010800000000AB
:100FE000ED6F000817380108532D01084F3801082C
:100FF000DB72000883730008AD740008DB2F010862
:10100000FB350108000000000000000000000000A7
:1010100000000000E7390108033A01080000000061
:1010200000000000253A010800000000ED6F0008F4
:10103000F9A00008532D01084F380108DB720008A1
:1010400083730008AD740008DB2F0108FB3501082D
:101050000000000000000000EF110108E52B01086E
:10106000393C0108B5110108BB2B01083F3C0108C0
:10107000000000000000000000000000392C010802
:10108000FD2C0108DF2B0108F51101086D13010883
:101090004F2D0108512D0108000000002B2C0108E4
:1010A000302026262022556E737570706F7274651D
:1010B0006420466F726D617421220000443A5C39ED
:1010C000395F50726F6A6563745C47697448756212
:1010D0005C546F7563684746585C4D794170706C1D
:1010E00069636174696F6E5C546F756368474658D5
:1010F0005C7461726765745C67656E657261746566
:10110000645C53544D3332444D412E637070000083
:10111000302026262022556E737570706F727465AC
:101120006420466F726D617421220000443A5C397C
:10113000395F50726F6A6563745C476974487562A1
:101140005C546F7563684746585C4D794170706CAC
:1011500069636174696F6E5C546F75636847465864
:101160005C7461726765745C67656E6572617465F5
:10117000645C53544D3332444D412E637070000013
:10118000443A5C39395F50726F6A6563745C4769D1
:10119000744875625C546F7563684746585C4D7956
:1011A0004170706C69636174696F6E5C546F7563D4
:1011B000684746585C7461726765745C67656E6504
:1011C00072617465645C53544D3332444D412E63F7
:1011D00070700000A086010080380100C0D40100BA
:1011E000000000007A0D0000FA0000005C12000010
:1011F000A00F0000800200001400000000000000AA
:10120000801A060000E204000053070000000000FE
:101210008403000064000000140500005802000070
:10122000FA000000640000000000000040420F00CF
:1012300000350C00804F120000000000C2010000C9
:1012400032000000F4010000040100003C00000036
:10125000640000000000000000000000000000002A
:10126000000000000000000091350108BD350108B4
:1012700075736564203E203000000000443A5C39FC
:10128000395F50726F6A6563745C47697448756250
:101290005C546F7563684746585C4D794170706C5B
:1012A00069636174696F6E5C455741524D2F2E2EF4
:1012B0002F4D6964646C6577617265732F53542F89
:1012C000746F7563686766782F6672616D65776F96
:1012D000726B2F696E636C7564655C746F7563689F
:1012E0006766782F5465787450726F76696465729A
:1012F0002E687070000000006F6666736574203C95
:101300002075736564000000443A5C39395F50729F
:101310006F6A6563745C4769744875625C546F7585
:1013200063684746585C4D794170706C69636174BD
:10133000696F6E5C455741524D2F2E2E2F4D6964BB
:10134000646C6577617265732F53542F746F756386
:10135000686766782F6672616D65776F726B2F694B
:101360006E636C7564655C746F7563686766782F0F
:101370005465787450726F76696465722E68707007
:101380000000000075736564203E203100000000FD
:10139000443A5C39395F50726F6A6563745C4769BF
:1013A000744875625C546F7563684746585C4D7944
:1013B0004170706C69636174696F6E5C455741522E
:1013C0004D2F2E2E2F4D6964646C657761726573A5
:1013D0002F53542F746F7563686766782F66726138
:1013E0006D65776F726B2F696E636C7564655C7485
:1013F0006F7563686766782F5465787450726F767E
:10140000696465722E6870700000000000000000C2
:1014100000000000000000000000000000000000CC
:1014200000000000000000000000000000000000BC
:1014300000000000000000000000000000000000AC
:10144000000000000000000000000000000000009C
:101450000000000000000000453C0108533C01086A
:10146000000000000000000000000000000000007C
:10147000000000000000000000000000000000006C
:10148000000000000000000000000000493C0108CE
:101490005B3C0108000000000000000000000000AC
:1014A000000000000000000000000000000000003C
:1014B000000000000000000000000000000000002C
:1014C0004F3C0108673C01080000000000000000DC
:1014D000000000000000000000000000000000000C
:1014E0006672616D6542756666657220213D2030C9
:1014F000202626202241206672616D65627566662F
:1015000065722061646472657373206D75737420F5
:101510006265207365742200443A5C39395F507209
:101520006F6A6563745C4769744875625C546F7573
:1015300063684746585C4D794170706C69636174AB
:10154000696F6E5C455741524D2F2E2E2F4D6964A9
:10155000646C6577617265732F53542F746F756374
:10156000686766782F6672616D65776F726B2F6939
:101570006E636C7564655C746F7563686766782FFD
:1015800068616C2F48414C2E6870700000000000AC
:10159000000000000000000000000000713C010895
:1015A0000000000095EF00080000000000000000AF
:1015B00041F00008E5070108F3070108FB070108EF
:1015C0004D0801082FF000088BF000087B3C010853
:1015D000B7090108930A0108DD0A010800000000AC
:1015E00000000000FB0B01083D0B0108710C010815
:1015F000210D01087B0D010800000000830D01088A
:101600008D3C0108BFEF0008CDEF0008DDEF0008BA
:10161000FDEF0008000000008D36010851080108A8
:1016200000000000A33C0108AF3C010800000000DE
:1016300000000000000000006506010827F0000817
:101640002BF0000835F00008070F0108870F01088C
:10165000D93601088FF000089BF000080000000058
:10166000000000000000000000000000713C0108C4
:1016700000000000B9280108BD2801080000000092
:1016800011290108E5070108F3070108FB07010814
:101690004D080108092901088BF000087B3C01086E
:1016A000B7090108930A0108DD0A010800000000DB
:1016B00000000000FB0B01083D0B0108710C010844
:1016C000210D01087B0D010800000000830D0108B9
:1016D0008D3C010865290108692901086D29010867
:1016E00071290108000000008D3601085108010829
:1016F00000000000A33C0108AF3C0108000000000E
:1017000000000000000000006506010827F0000846
:101710002BF000080D290108070F0108870F0108A9
:10172000D93601088FF000089BF0000875736564D6
:10173000203E203000000000433A5C6A656E6B6911
:101740006E735C776F726B73706163655C43726517
:1017500061746552656C656173654275696C645C42
:101760006372656174655F72656C656173652D3068
:101770005C746F7563686766785C6275696C645FDA
:10178000636F6E665C636F72655C636F72746578BD
:101790005F6D375C494152382E785C2E2E5C2E2EC0
:1017A0005C2E2E5C2E2E5C6672616D65776F726B9F
:1017B0005C696E636C7564655C746F75636867669D
:1017C000782F5465787450726F76696465722E68EC
:1017D0007070000075736564203E3D206E756D006D
:1017E000433A5C6A656E6B696E735C776F726B739C
:1017F000706163655C43726561746552656C6561B7
:1018000073654275696C645C6372656174655F726F
:10181000656C656173652D305C746F7563686766B0
:10182000785C6275696C645F636F6E665C636F722F
:10183000655C636F727465785F6D375C49415238DF
:101840002E785C2E2E5C2E2E5C2E2E5C2E2E5C6650
:1018500072616D65776F726B5C696E636C756465E0
:101860005C746F7563686766782F5465787450721E
:101870006F76696465722E687070000075736564B8
:10188000202B206E756D203C3D2073697A65000029
:10189000433A5C6A656E6B696E735C776F726B73EB
:1018A000706163655C43726561746552656C656106
:1018B00073654275696C645C6372656174655F72BF
:1018C000656C656173652D305C746F756368676600
:1018D000785C6275696C645F636F6E665C636F727F
:1018E000655C636F727465785F6D375C494152382F
:1018F0002E785C2E2E5C2E2E5C2E2E5C2E2E5C66A0
:1019000072616D65776F726B5C696E636C7564652F
:101910005C746F7563686766782F5465787450726D
:101920006F76696465722E68707000007573656407
:10193000203E203000000000433A5C6A656E6B690F
:101940006E735C776F726B73706163655C43726515
:1019500061746552656C656173654275696C645C40
:101960006372656174655F72656C656173652D3066
:101970005C746F7563686766785C6275696C645FD8
:10198000636F6E665C636F72655C636F72746578BB
:101990005F6D375C494152382E785C2E2E5C2E2EBE
:1019A0005C2E2E5C2E2E5C6672616D65776F726B9D
:1019B0005C696E636C7564655C746F75636867669B
:1019C000782F5465787450726F76696465722E68EA
:1019D0007070000075736564202B206E756D203C5F
:1019E0003D2073697A650000433A5C6A656E6B69F5
:1019F0006E735C776F726B73706163655C43726565
:101A000061746552656C656173654275696C645C8F
:101A10006372656174655F72656C656173652D30B5
:101A20005C746F7563686766785C6275696C645F27
:101A3000636F6E665C636F72655C636F727465780A
:101A40005F6D375C494152382E785C2E2E5C2E2E0D
:101A50005C2E2E5C2E2E5C6672616D65776F726BEC
:101A60005C696E636C7564655C746F7563686766EA
:101A7000782F5465787450726F76696465722E6839
:101A80007070000075736564203E206F6666736534
:101A900074000000433A5C6A656E6B696E735C7734
:101AA0006F726B73706163655C43726561746552DC
:101AB000656C656173654275696C645C63726561D0
:101AC00074655F72656C656173652D305C746F75EC
:101AD00063686766785C6275696C645F636F6E6685
:101AE0005C636F72655C636F727465785F6D375CA1
:101AF000494152382E785C2E2E5C2E2E5C2E2E5CA8
:101B00002E2E5C6672616D65776F726B5C696E63B9
:101B10006C7564655C746F7563686766782F54656F
:101B2000787450726F76696465722E687070000008
:101B300075736564203C2073697A6500433A5C6A7A
:101B4000656E6B696E735C776F726B7370616365E2
:101B50005C43726561746552656C6561736542755D
:101B6000696C645C6372656174655F72656C656104
:101B700073652D305C746F7563686766785C627539
:101B8000696C645F636F6E665C636F72655C636FE4
:101B9000727465785F6D375C494152382E785C2EDF
:101BA0002E5C2E2E5C2E2E5C2E2E5C6672616D6578
:101BB000776F726B5C696E636C7564655C746F756E
:101BC00063686766782F5465787450726F766964BD
:101BD00065722E68707000006F6666736574203CD5
:101BE0002075736564000000433A5C6A656E6B693A
:101BF0006E735C776F726B73706163655C43726563
:101C000061746552656C656173654275696C645C8D
:101C10006372656174655F72656C656173652D30B3
:101C20005C746F7563686766785C6275696C645F25
:101C3000636F6E665C636F72655C636F7274657808
:101C40005F6D375C494152382E785C2E2E5C2E2E0B
:101C50005C2E2E5C2E2E5C6672616D65776F726BEA
:101C60005C696E636C7564655C746F7563686766E8
:101C7000782F5465787450726F76696465722E6837
:101C8000707000000000000000000000B53C01087A
:101C9000B73C0108B93C0108BB3C0108BD3C010848
:101CA0000000000000000000000000000000000034
:101CB0000000000051590008C7610008D761000802
:101CC00007680008E761000861590008000000008B
:101CD0000000000000000000000000000000000004
:101CE00000000000635900088B5900081B630008BE
:101CF000696E646578203C205F73697A6500000036
:101D0000433A5C6A656E6B696E735C776F726B7376
:101D1000706163655C43726561746552656C656191
:101D200073654275696C645C6372656174655F724A
:101D3000656C656173652D305C746F75636867668B
:101D4000785C6275696C645F636F6E665C636F720A
:101D5000655C636F727465785F6D375C49415238BA
:101D60002E785C2E2E5C2E2E5C2E2E5C2E2E5C662B
:101D700072616D65776F726B5C696E636C756465BB
:101D80005C746F7563686766782F68616C2F54792F
:101D90007065732E687070005F73697A65203C20EF
:101DA0006361706163697479202626202256656319
:101DB000746F722063617061636974792065786300
:101DC0006565646564220000433A5C6A656E6B6910
:101DD0006E735C776F726B73706163655C43726581
:101DE00061746552656C656173654275696C645CAC
:101DF0006372656174655F72656C656173652D30D2
:101E00005C746F7563686766785C6275696C645F43
:101E1000636F6E665C636F72655C636F7274657826
:101E20005F6D375C494152382E785C2E2E5C2E2E29
:101E30005C2E2E5C2E2E5C6672616D65776F726B08
:101E40005C696E636C7564655C746F756368676606
:101E5000782F68616C2F54797065732E68707000EC
:101E6000696E646578203C205F73697A65000000C4
:101E7000433A5C6A656E6B696E735C776F726B7305
:101E8000706163655C43726561746552656C656120
:101E900073654275696C645C6372656174655F72D9
:101EA000656C656173652D305C746F75636867661A
:101EB000785C6275696C645F636F6E665C636F7299
:101EC000655C636F727465785F6D375C4941523849
:101ED0002E785C2E2E5C2E2E5C2E2E5C2E2E5C66BA
:101EE00072616D65776F726B5C696E636C7564654A
:101EF0005C746F7563686766782F68616C2F5479BE
:101F00007065732E68707000000000000000000013
:101F10000000000000000000598F0008C58F000875
:101F200059910008B3910008000000000000000073
:101F3000E93C0108D391000843920008BF3C010826
:101F4000C33C0108C73C0108CB3C0108000000006D
:101F5000CF3C0108D13C0108D33C0108D53C010825
:101F60006592000800000000D73C0108FD8F0008C2
:101F700007900008287769647468203E2030292083
:101F800026262028686569676874203E203029204D
:101F90002626202243616E6E6F7420626C69742065
:101FA000656D70747920726563742200433A5C6ACF
:101FB000656E6B696E735C776F726B73706163656E
:101FC0005C43726561746552656C656173654275E9
:101FD000696C645C6372656174655F72656C656190
:101FE00073652D305C746F7563686766785C6672C4
:101FF000616D65776F726B5C736F757263655C742E
:102000006F7563686766785C68616C5C48414C2EEC
:102010006370700028626C69744F702E6F70657207
:102020006174696F6E202620676574426C69744321
:102030006170732829292026262022626C69742069
:102040006F7065726174696F6E206E6F7420737546
:1020500070706F72746564220000000028776964F4
:102060007468203E2030292026262028686569676C
:102070006874203E203029202626202243616E6E7F
:102080006F742066696C6C20656D70747920726560
:102090006374220028626C69744F702E6F706572D1
:1020A0006174696F6E202620676574426C697443A1
:1020B0006170732829292026262022626C697420E9
:1020C00066696C6C206F7065726174696F6E206EEA
:1020D0006F7420737570706F7274656422000000F5
:1020E0005553455F414E494D4154494F4E5F5354FE
:1020F0004F524147452026262022416E696D61746A
:10210000696F6E2073746F72616765207265717597
:102110006972656420666F722074686973206F70DD
:1021200065726174696F6E2E205365652048414C5D
:102130003A3A7365744672616D654275666665729A
:102140005374617274416464726573732200000099
:102150006672616D65427566666572416C6C6F632F
:1021600061746F72202626202248414C3A3A6672EA
:10217000616D65427566666572416C6C6F63617412
:102180006F72206E6F7420696E697469616C697A10
:102190006564212200000000212248414C3A3A5255
:1021A0004546524553485F53545241544547595F41
:1021B0005041525449414C5F4652414D454255466B
:1021C000464552206F6E6C7920737570706F727413
:1021D00073203136626974206F7220323462697400
:1021E000206672616D656275666665722200000028
:1021F000302026262022556E737570706F727465BC
:1022000064206269746D617020666F726D61742004
:10221000696E206765744269744465707468282922
:10222000220000000000000000000000000000008C
:10223000000000000000000000000000000000009E
:10224000000000000000000000000000000000008E
:10225000000000000000000000000000000000007E
:102260000000000000000000FB3C0108000000002E
:10227000ED6F000817380108532D01084F38010889
:10228000DB72000883730008AD740008DB2F0108BF
:10229000FB35010800000000000000000000000005
:1022A0000000000085140108BD1C010800000000AA
:1022B0003D1E010855210108FD2101080000000014
:1022C000FD3C010825370108000000000000000067
:1022D00000000000000000000000000000000000FE
:1022E0000923010848414C3A3A4652414D455F4264
:1022F00055464645525F5749445448203E203020B9
:102300002626202248414C20686173206E6F74207D
:102310006265656E20696E697469616C697A65646D
:102320002079657422000000433A5C6A656E6B692F
:102330006E735C776F726B73706163655C4372651B
:1023400061746552656C656173654275696C645C46
:102350006372656174655F72656C656173652D306C
:102360005C746F7563686766785C6275696C645FDE
:10237000636F6E665C636F72655C636F72746578C1
:102380005F6D375C494152382E785C2E2E5C2E2EC4
:102390005C2E2E5C2E2E5C6672616D65776F726BA3
:1023A0005C696E636C7564655C706C6174666F7299
:1023B0006D2F6472697665722F6C63642F4C434491
:1023C00032346270702E68707000000000000000EF
:1023D00000000000000000000000000000000000FD
:1023E00000000000000000000000000000000000ED
:1023F00000000000000000000000000000000000DD
:1024000000000000000000000000000000000000CC
:1024100000000000000000000000000000000000BC
:1024200000000000000000000000000000000000AC
:10243000000000000000000000000000000000009C
:10244000000000000000000000000000000000008C
:10245000000000000000000000000000000000007C
:10246000000000000000000000000000000000006C
:10247000000000000000000000000000000000005C
:10248000000000000000000000000000000000004C
:10249000000000000000000000000000000000003C
:1024A000000000000000000000000000000000002C
:1024B000000000000000000000000000000000001C
:1024C000000000000000000000000000000000000C
:1024D00000000000000000000000000000000000FC
:1024E00000000000000000000000000000000000EC
:1024F00000000000000000000000000000000000DC
:1025000000000000000000000000000000000000CB
:1025100000000000000000000000000000000000BB
:1025200000000000000000000000000000000000AB
:10253000000000000000000000000000000000009B
:10254000000000000000000000000000000000008B
:1025500000000000000000000000000030202626DF
:102560002022556E737570706F7274656420626995
:10257000746D617020666F726D617420666F722079
:10258000323462707020646973706C61792200006B
:10259000433A5C6A656E6B696E735C776F726B73DE
:1025A000706163655C43726561746552656C6561F9
:1025B00073654275696C645C6372656174655F72B2
:1025C000656C656173652D305C746F7563686766F3
:1025D000785C6672616D65776F726B5C736F757234
:1025E00063655C706C6174666F726D5C6472697651
:1025F00065725C6C63645C4C434432346270702E70
:1026000063707000302026262022556E737570701E
:102610006F72746564206269746D617020666F7298
:102620006D617420696E204C434432343A3A626CD6
:102630006974436F70792122000000002848414CE2
:102640003A3A676574496E7374616E636528292D23
:102650003E6765744672616D655265667265736842
:102660005374726174656779282920213D2048419F
:102670004C3A3A524546524553485F53545241549E
:102680004547595F5041525449414C5F4652414D74
:1026900045425546464552292026262022436F7042
:1026A00079206672616D6562756666657220726515
:1026B00067696F6E20746F206D656D6F7279206928
:1026C00073206E6F7420737570706F727465642000
:1026D000696E205061727469616C204672616D652B
:1026E000627566666572206D6F6465212200000068
:1026F00028626D702E676574466F726D617428294B
:10270000203D3D206672616D656275666665724644
:102710006F726D617428292920262620225468654D
:1027200020676976656E206269746D6170206861EA
:102730007320616E20696E76616C696420666F72C9
:102740006D6174220000000028626D705F64617426
:102750006120213D20302920262620224E6F206D29
:10276000656D6F727920616C6C6F63617465642054
:10277000666F722074686520676976656E204269AD
:10278000746D617022000000286162735265637489
:102790002E696E636C756465732876697352656320
:1027A000742929202626202256697369626C6520C7
:1027B000726567696F6E206D75737420626520693C
:1027C0006E73696465206162736F6C7574652072E5
:1027D0006567696F6E2200003020262620224C3863
:1027E0005F52474235363520496E6465786564200E
:1027F0004269746D617020666F726D6174206973D7
:10280000206E6F7420737570706F72746564206FC2
:102810006E2032342062697420646973706C61794F
:10282000732122003020262620224C385F52474256
:1028300035363520496E6465786564204269746D6B
:10284000617020666F726D6174206973206E6F74A1
:1028500020737570706F72746564206F6E203234EF
:1028600062707020646973706C617973212200005A
:102870002A7265696E746572707265745F636173E4
:10288000743C636F6E73742075696E7431365F7457
:102890002A3E28636C75744461746129203D3D2093
:1028A0004269746D61703A3A434C55545F464F52D9
:1028B0004D41545F4C385F415247423838383800F8
:1028C0002A7265696E746572707265745F63617394
:1028D000743C636F6E73742075696E7431365F7407
:1028E0002A3E28636C75744461746129203D3D2043
:1028F0004269746D61703A3A434C55545F464F5289
:102900004D41545F4C385F52474238383800000020
:1029100000000000000000000000000000000000B7
:10292000A3A3000867AB000859910008B391000801
:102930000000000000000000E93C0108D3910008FD
:1029400043920008BF3C0108C33C0108C73C010892
:10295000CB3C010800000000353D0108D13C0108D6
:10296000D33C0108D53C0108659200080000000036
:10297000D73C0108013D01080000000031AB000810
:102980006269746D61707320213D203020262620FD
:10299000224269746D617020646174616261736563
:1029A00020686173206E6F74206265656E20696EA9
:1029B000697469616C697A65642E2200433A5C6AC5
:1029C000656E6B696E735C776F726B737061636554
:1029D0005C43726561746552656C656173654275CF
:1029E000696C645C6372656174655F72656C656176
:1029F00073652D305C746F7563686766785C6275AB
:102A0000696C645F636F6E665C636F72655C636F55
:102A1000727465785F6D375C494152382E785C2E50
:102A20002E5C2E2E5C2E2E5C2E2E5C6672616D65E9
:102A3000776F726B5C696E636C7564655C746F75DF
:102A400063686766782F4269746D61702E68707074
:102A50000000000000000000000000000000000076
:102A6000000000006DAA000867AB0008599100083B
:102A7000B39100080000000000000000E93C0108DC
:102A8000D391000843920008BF3C0108C33C0108F1
:102A9000C73C0108CB3C010800000000353D01089F
:102AA000D13C0108D33C0108D53C010865920008DF
:102AB00000000000D73C0108013D010800000000B3
:102AC00031AB000800000000000000000000000022
:102AD000000000002BA70008213D010859910008C3
:102AE000B39100080000000000000000E93C01086C
:102AF000D391000843920008BF3C0108C33C010881
:102B0000C73C0108CB3C010800000000CF3C010895
:102B1000D13C0108D33C0108D53C0108659200086E
:102B200000000000D73C0108000000000000000089
:102B3000DDA5000843A60008F7A800080000000073
:102B40000000000000000000000000005793000893
:102B50000996000859910008B39100080000000090
:102B600000000000D7930008D391000843920008AA
:102B7000BF3C0108C33C0108C73C0108CB3C01082D
:102B800000000000CF3C0108D13C0108D33C010803
:102B9000D53C010865920008000000003796000847
:102BA000A19200081D930008000000000000000032
:102BB0000000000000000000259400081D96000899
:102BC0000000000000000000266420213D20746801
:102BD0006973202626202243616E6E6F7420616423
:102BE00064204472617761626C6520746F20736544
:102BF0006C662200433A5C6A656E6B696E735C7743
:102C00006F726B73706163655C437265617465526A
:102C1000656C656173654275696C645C637265615E
:102C200074655F72656C656173652D305C746F757A
:102C300063686766785C6672616D65776F726B5CFE
:102C4000736F757263655C746F7563686766785CD3
:102C5000636F6E7461696E6572735C436F6E7461ED
:102C6000696E65722E63707000000000642E7061E2
:102C700072656E74203D3D2030202626202243615F
:102C80006E6E6F7420616464204472617761626C5F
:102C900065206D756C7469706C652074696D657301
:102CA000220000006865616420213D202664202602
:102CB00026202243616E6E6F74206164642044722A
:102CC000617761626C65206D756C7469706C6520EC
:102CD00074696D657322000000000000FFFFFFFFB4
:102CE000FFFFFFFF000000000100000000000000E7
:102CF0000000000001000000FFFFFFFFFFFFFFFFDB
:102D000001000000FFFFFFFFFFFFFFFF01000000C9
:102D100001000000010000000000000000000000B1
:102D2000000000000000000077370108513701085B
:102D300059910008B3910008000000000000000055
:102D4000E93C0108D391000843920008BF3C010808
:102D5000C33C0108C73C0108CB3C0108000000004F
:102D6000CF3C0108D13C0108D33C0108D53C010807
:102D70006592000800000000D73C01080000000038
:102D8000000000000F2B01081F2B0108392B010840
:102D90000000000000000000832B0108B12B010897
:102DA0003020262620224C6F636B46726565444DA9
:102DB000415F5175657565206F766572666C6F77DA
:102DC00021220000433A5C6A656E6B696E735C7722
:102DD0006F726B73706163655C4372656174655299
:102DE000656C656173654275696C645C637265618D
:102DF00074655F72656C656173652D305C746F75A9
:102E000063686766785C6672616D65776F726B5C2C
:102E1000736F757263655C746F7563686766785C01
:102E200068616C5C444D412E63707000216973458C
:102E30006D707479282920262620224C6F636B46FA
:102E4000726565444D415F517565756520756E64A9
:102E50006572666C6F772122000000003020262604
:102E60002022444D413A3A65786563757465282996
:102E700020696E76616C696420426C69744F7022BF
:102E8000000000006269746D61707320213D203084
:102E900020262620224269746D617020646174616D
:102EA0006261736520686173206E6F74206265656E
:102EB0006E20696E697469616C697A65642E22009E
:102EC000433A5C6A656E6B696E735C776F726B73A5
:102ED000706163655C43726561746552656C6561C0
:102EE00073654275696C645C6372656174655F7279
:102EF000656C656173652D305C746F7563686766BA
:102F0000785C6672616D65776F726B5C736F7572FA
:102F100063655C746F7563686766785C4269746D3D
:102F200061702E63707000006964203C2042495437
:102F30004D41505F414E494D4154494F4E5F5354AE
:102F40004F524147452026262022496E7465726EF5
:102F5000616C206572726F722C20617474656D7083
:102F600074696E6720746F20676574206164647291
:102F7000657373206F6620696E76616C6964206981
:102F80006422000072657320262620224E6F742072
:102F9000616C6C206269746D61707320636F756C15
:102FA000642062652063616368656421220000001B
:102FB00030202626202244796E616D6963204269A3
:102FC000746D617020437265617465206E6F74204A
:102FD000737570706F7274656420666F72204355EC
:102FE00053544F4D206269746D617020666F726D2D
:102FF00061742200696420213D204249544D4150B2
:103000005F494E56414C4944202626202243616E9A
:103010006E6F7420636F7079204249544D41505F48
:10302000494E56414C494422000000006964203C4E
:1030300020286E756D6265724F664269746D6170AD
:1030400073202B206E756D6265724F6644796E61D8
:103050006D69634269746D61707329202626202290
:10306000496C6C6567616C204269746D617049647C
:10307000220000002821697344796E616D69634202
:1030800069746D617028696429207C7C2064796E84
:103090004269746D6170735B6964202D206E756D7B
:1030A0006265724F664269746D6170735D2E696E00
:1030B00075736529202626202243616E6E6F742069
:1030C000636F70792066726F6D2064656C657465DE
:1030D000642064796E616D6963206269746D6170EA
:1030E00022000000216269746D61702E676574456D
:1030F0007874726144617461282920262620224157
:103100006C706861206368616E6E656C206E6F74B0
:1031100020737570706F7274656420666F722064BE
:10312000796E616D6963206269746D6170732200EC
:1031300030202626202244796E616D696320426921
:10314000746D61702043726561746520436F70799E
:10315000206E6F7420737570706F72746564206672
:103160006F7220435553544F4D206269746D6170E6
:1031700020666F726D61742200000000636C7574CC
:1031800053697A65203E203020262620636C7574B2
:1031900053697A65203C3D20323536202626202290
:1031A00050616C657474652073697A65206D757300
:1031B00074206265206265747765656E20312061D8
:1031C0006E64203235362200697344796E616D6910
:1031D000634269746D617028696429202626202263
:1031E00043616E206F6E6C792066696C6C20647927
:1031F0006E616D6963206269746D61707322000095
:103200006269746D61702E676574466F726D61746A
:103210002829203D3D2048414C3A3A6C63642829D6
:103220002E6672616D65627566666572466F726D57
:1032300061742829202626202243616E206F6E6C3F
:10324000792066696C6C206E6174697665206269AC
:10325000746D617020666F726D617473220000007E
:10326000286373697A65203E202873697A655F63F5
:10327000616368655F7461626C6573202B2073699C
:103280007A655F64796E616D69635F6269746D61AF
:10329000705F6461746129292026262022496E739B
:1032A000756666696369656E74206361636865202D
:1032B00073746F7261676522000000006964203CCE
:1032C000204249544D41505F414E494D4154494F70
:1032D0004E5F53544F524147452026262022496EC7
:1032E0007465726E616C206572726F722C206174ED
:1032F00074656D7074696E6720746F2067657453B0
:10330000697A654F664269746D6170207769746887
:1033100020696E76616C6964206964220000000097
:1033200064617461202626202244796E616D696390
:10333000206269746D6170206C6F7374207069789D
:10334000656C20706F696E746572220030202626CD
:10335000202243616368696E672F44796E616D69ED
:1033600063206269746D617073206E6F7420737571
:1033700070706F7274656420666F722073656C651F
:1033800063746564206269746D617020666F726D2C
:10339000617422003020262620224461746120734B
:1033A000697A65206F662042575F524C4520636101
:1033B0006E6E6F742062652063616C63756C6174FE
:1033C0006564220030202626202243616368696EEE
:1033D00067206E6F7420737570706F7274656420EF
:1033E000666F722073656C656374656420626974CE
:1033F0006D617020666F726D6174220000000000C4
:10340000000000000000000000000000713D010805
:10341000713D010859910008B391000800000000B7
:1034200000000000E93C0108D39100084392000825
:10343000BF3C0108C33C0108C73C0108CB3C010864
:1034400000000000353D0108D13C0108D33C0108D3
:10345000D53C01086592000800000000D73C010837
:10346000013D01080000000000487047C00200084C
:103470000220704780B5DFF81003016800F01BFEE2
:10348000012803D0BDE8014000F0BBBF01BDEFF350
:10349000058000B16CE0DFF8F412086810B9012271
:1034A0000A6070474FF0FF307047000010B5EFF32F
:1034B000058008B100F004BADFF8D00201680129E4
:1034C00009D10022DFF8EC331A700224046000F006
:1034D00099FB002010BD4FF0FF3010BDF8B584B04F
:1034E00000230393EFF30583002B3ED103003CD070
:1034F00080251826002462B3136803B11C46936923
:103500001BB11E0004D0392E02D21379DF0702D579
:10351000002005B0F0BD536903B19D089768D2F84B
:103520000CC087B1BCF15C0F1FD31269002A18BF11
:10353000002B1AD001920B4602972A46009621468C
:1035400000F0C6F910E0BCF1000F04BF1269002AB8
:103550000BD103AB009601930B46AAB2214600F0B3
:103560003DFA012801D000200390039805B0F0BD7A
:103570006FF00500704710B5EFF3058111B16FF0E2
:10358000050403E0002408B100F004FB204610BD50
:1035900080B501F0CEF9010004D048680968BDE8A3
:1035A0000440084701BD2DE9FE4307468846914681
:1035B0001D460024EFF3058020BB1FB3082001F057
:1035C000D7F906001ED0B8F1010292413760D2430C
:1035D000C6F80490D20F0020D5B1296801B1084681
:1035E000AB68E96893B12C2909D3DFF8D0120193B5
:1035F00000913346012100F091FF040002D13046D2
:1036000001F040FA204603B0BDE8F0830029F6D16E
:10361000DFF8A81233460091012100F065FFECE7C6
:1036200080B50A46EFF3058101B10FE010B96FF0E4
:10363000030002BD00910023042100F0BAFF01281D
:1036400001D1002002BD6FF0020002BD6FF0050045
:1036500002BD7CB50E4614460025EFF30581002916
:103660003FD100283DD0B0423BD344B1A168E268CD
:1036700019B1502A35D3012101E0002A31D10128A6
:103680001CD1012907D1032500220095A368002140
:1036900001F04EFA03E00322002101F087FA050051
:1036A0001FD0BEB100230022002101F00FFB012832
:1036B00010D02846002501F017FE12E0012904D1A0
:1036C000A268314601F0C7FA02E0314601F0E2FAA1
:1036D000050006D0002C14BF21680021284601F007
:1036E00090FE284676BD38B50C46002518B1EFF39C
:1036F0000581B1B114B16FF003051DE000956A4674
:10370000002101F0ABFD012814D10098A0B14FF0C9
:103710008051DFF8A4211160BFF34F8FBFF36F8F8B
:103720000AE0214601F0CEFC012805D014B16FF06B
:10373000010501E06FF00205284632BD1CB50024EA
:1037400010B96FF003041CE0EFF3058189B1009418
:10375000694601F0CBFB012811D1009888B14FF0E8
:103760008051DFF854211160BFF34F8FBFF36F8F8B
:1037700007E00023002201F0A9FA012801D06FF030
:103780000204204616BD000010E000E090AC0024CA
:10379000F8B514460025EFF305823ABB002818BFA0
:1037A000002923D0E4B1A368E26893B1502A1DD365
:1037B0002269DAB1666901FB00F7BE4216D30095B3
:1037C00001F0B6F9050011D0002C14BF21680021CA
:1037D0000AE0002A04BF2369002B07D162692AB9D5
:1037E000002201F0E3F9EDE701F00BFE2846F2BDFF
:1037F00038B51C460025EFF30582AAB1002818BF92
:10380000002915D0A4B900946A4601F014FB0128E0
:103810001BD10098D8B14FF08051274A1160BFF3F7
:103820004F8FBFF36F8F12E0002818BF002902D11D
:103830006FF003050BE00023224601F047FA012850
:1038400005D014B16FF0010501E06FF002052846C4
:1038500032BD000038B51C460025EFF30582AAB141
:10386000002818BF002915D0A4B900936A4601F0BA
:10387000F5FC01281AD10098D0B14FF080510E4AC2
:103880001160BFF34F8FBFF36F8F11E0002818BF97
:10389000002902D16FF003050AE0224601F074FB13
:1038A000012805D014B16FF0010501E06FF00205A9
:1038B000284632BD1FED00E004ED00E09135000820
:1038C0006FF0050010BD81888079081880B27047BC
:1038D0002DE9FC4780460B980F461646994638B9A5
:1038E000502080F31188BFF34F8FBFF36F8FFEE737
:1038F0000C9C3CB9502080F31188BFF34F8FBFF36D
:103900006F8FFEE75C210091009A5C2A07D050205F
:1039100080F31188BFF34F8FBFF36F8FFEE70A9DCF
:103920000099206304F1580A0223A5228AF8013085
:10393000206BB10001F0E4FD226B02EB86010E1F4B
:10394000F608F600390006F0070004F1340721D02C
:1039500000223B4691F800C083F800C00878B0B15F
:1039600091F801E083F801E0487880B191F802C055
:1039700083F802C0887850B191F803C083F803C07F
:10398000C87820B1121D1B1D091D102AE2D300208A
:10399000F87300E03970372D88BF3725E562BD61C7
:1039A000C5F13805F861201D01F0D4FD04F11800BF
:1039B00001F0D0FD24610020A561002164624A4627
:1039C000386230468AF80010414600F06FFC2060F3
:1039D000204600F081F82046BDE8F6872DE9F84F33
:1039E000804616460F469946B00000F0C1FF5FEAD8
:1039F000000A42D05C2000F0BBFF04003AD00A9DD0
:103A0000C4F830A004F1580A00208AF80100206BA5
:103A1000A522B10001F074FD216B01EB8602161F97
:103A2000F608F600390006F0070004F1340728D044
:103A300000223B4691F800C083F800C00878B0B17E
:103A400091F801E083F801E0487880B191F802C074
:103A500083F802C0887850B191F803C083F803C09E
:103A6000C87820B1121D1B1D091D102AE2D30020A9
:103A7000F87307E0504601F005F84FF0FF30BDE85D
:103A8000F28F3870372D88BF3725DDF82CB0E5620E
:103A9000BD61C5F13805F861201D01F05BFD04F141
:103AA000180001F057FD24610020A5610021646227
:103AB0004A46386230468AF80010414600F0F6FB6C
:103AC0002060BBF1000F18BFCBF80040204600F08B
:103AD00003F80120BDE8F28FF8B50546DFF824654C
:103AE00000F065FCF16C491CF164B06A28BBB5625A
:103AF000F16C012929D1DFF81075382438461437C4
:103B000001F01BFD641EF9D106F1740006F1880472
:103B100001F013FD204601F010FD304601F00DFDCF
:103B200006F1140001F009FD06F1380001F005FD71
:103B300006F17401F162346307E0B06D28B9E96AF7
:103B4000B06AC26A914228BFB562B06EEA6A401C90
:103B50006864716D914238BF726502EB8203B06692
:103B6000DFF8A404291D00EB830001F0F6FC00F04F
:103B700037FCB06D68B1B16AEA6AC86A904208D28F
:103B80004FF08051DFF8D8341960BFF34F8FBFF387
:103B90006F8FF1BD70B5040029D0DFF86854286F2D
:103BA00038B1502181F31188BFF34F8FBFF36F8F6E
:103BB000FEE7286F401C28672E6DA96A081D01F0DA
:103BC000F4FCAA6AA419B4425460A86A04D2011D84
:103BD000286B01F0D0FC07E0011DE86A01F0CBFC86
:103BE000E86E844238BFEC6600F052F840B94FF0FE
:103BF0008050DFF86C140860BFF34F8FBFF36F8FF6
:103C000070BD000080B586B00020059003AA049026
:103C100004A905A801F0DEFC059A0498029200218F
:103C2000039A01900091002314A10FF2E130FFF7F5
:103C30004FFEA8B100F02CFC012813D1502080F3D6
:103C40001188BFF34F8FBFF36F8FDFF8B8034FF0CA
:103C5000FF31C166012282650023036500F048FB45
:103C600007B000BD10F1010FFAD1502080F3118888
:103C7000BFF34F8FBFF36F8FFEE7000049444C4501
:103C800000000000DFF87C03016F491C01677047EA
:103C900070B5DFF870630024306F002538B950210B
:103CA00081F31188BFF34F8FBFF36F8FFEE700F0F2
:103CB0007EFB306F401E3067316F00293DD1F06CC4
:103CC000F0B93AE0F168CC6804F1180001F06DFC3D
:103CD000201D01F06AFCE06A716D814238BF706599
:103CE00000EB8003DFF82023211D02EB830001F0AD
:103CF00034FCE16AB06AC26A914224BF0121316694
:103D000030680028DED10CB100F0C6F9F46D44B182
:103D100000F01BF808B101203066641EF8D10021C4
:103D2000F165306E48B14FF08051DFF83423012542
:103D30001160BFF34F8FBFF36F8F00F051FB284628
:103D400070BDDFF8C002006D7047F8B5DFF8B472DF
:103D50000026386F002855D13C6D641C3C6513D19A
:103D6000F86A006838B1502181F31188BFF34F8F92
:103D7000BFF36F8FFEE7F86A396BF9623863786ECC
:103D8000401C786600F088F9F86E84422AD322E05D
:103D9000F96ACA68D5686868844231D3281D01F081
:103DA00004FCA86A18B105F1180001F0FEFBE86AEE
:103DB000796D814238BF786500EB8003DFF84822D7
:103DC000291D02EB830001F0C8FBE96AB86AC26AE8
:103DD000914228BF0126F86A00680028D8D14FF028
:103DE000FF31F966B86A884AC06A00EB8001890031
:103DF0005358022B28BF0126386E30B1012604E04B
:103E0000F866EFE7F86D401CF8653046F2BD7D4A74
:103E1000106F10B10121116670471066506DDFF808
:103E2000843400EB800103EB810C00E0401E5CF861
:103E3000141949B90028F9D1502080F31188BFF333
:103E40004F8FBFF36F8FFEE700EB800103EB810123
:103E50004B685B6801F1080C4B60634504BF5B680D
:103E60004B604968CB6893625065704770B50D46EA
:103E700038B9502080F31188BFF34F8FBFF36F8F95
:103E8000FEE7DFF82444A26A02F1180101F073FB97
:103E9000266DA06A001D01F088FB15F1010F00D10D
:103EA0000FE0A06AAD19B5424560A06A00D210E0EB
:103EB000011DE06A01F05FFBE06E854238BFE566F8
:103EC00070BDA06A011D04F13800BDE8704001F02A
:103ED00044BB011D206BBDE8704001F04CBB38B500
:103EE0000D46144638B9502080F31188BFF34F8F28
:103EF000BFF36F8FFEE7434A936A03F1180101F0A5
:103F00002CFB0CB14FF0FF3521462846BDE834406C
:103F100000F09CB938B5C068C4683CB9502181F341
:103F20001188BFF34F8FBFF36F8FFEE704F11800C6
:103F3000344D01F03AFB296F79B9201D01F035FBB2
:103F4000E06A696D814238BF686500EB8003DFF885
:103F50005423211D02EB830002E004F118012846DE
:103F600001F0FBFAA86AE26AC16A914203D2012316
:103F700001202B6632BD002032BDDFF82C134A6EC3
:103F80000260096D41607047F8B504000D4607D125
:103F9000502080F31188BFF34F8FBFF36F8FFEE780
:103FA0003DB9502080F31188BFF34F8FBFF36F8F5F
:103FB000FEE700F0FCF9DFF8F002016D62682E68A0
:103FC0008B1A16F1010F0ED0476ED4F800C067456A
:103FD00001D091420BD2B34207D2F31A2B60416E4B
:103FE0002160006D6060002402E00021296001244E
:103FF00000F0F6F92046F2BD0120DFF8AC120866A9
:104000007047000054A90024109800242DE9F041C5
:10401000134C4FF08055DFF88C82DFF88C7211E082
:1040200000F0C5F9386AC668301D01F0BEFAF86CB8
:10403000401EF864796B491E796300F0D1F930466F
:1040400000F010F8786B0028EAD1D8F800100229A7
:10405000F8D32560BFF34F8FBFF36F8FF2E70000F7
:1040600004ED00E010B5044694F8590040B9206B07
:1040700000F008FD2046BDE8104000F003BD10BD73
:104080000128F7D00228FAD0502080F31188BFF31E
:104090004F8FBFF36F8FFEE7DFF80C12C86A00681E
:1040A00018B94FF0FF32CA667047C86AC268D36851
:1040B0005868C8667047DFF8F011886D08B90120AC
:1040C0007047086F08B9022070470020704770B52C
:1040D000044600209CB3E16ADFF8CC51AA6AD36A97
:1040E000994226D2A069002804D4A86AC26AC2F103
:1040F0003802A26101EB8102DFF8A861636906EB77
:1041000082018B4211D1201D01F04FFAA96AC86AC1
:104110006A6D824238BF686500EB8002E062211D53
:1041200006EB820001F019FA08E0A96AC86AE062A9
:1041300004E0E16CAA6AD36A994200D2012070BD02
:1041400038B5044600219CB3DFF85C51A86A84426C
:1041500007D0502181F31188BFF34F8FBFF36F8FCA
:10416000FEE7206D38B9502080F31188BFF34F8FE0
:10417000BFF36F8FFEE7E26A401EE36C20659A4250
:1041800016D0A8B9201D01F010FAE06CE062C0F171
:104190003801A1616A6D824238BF686500EB800218
:1041A000DFF80031211D03EB820001F0D6F9012177
:1041B000084632BD70B504003DD0206D38B950209E
:1041C00080F31188BFF34F8FBFF36F8FFEE7E26C70
:1041D000914238BF1146E26A8A422CD001282AD186
:1041E000DFF8C450A86A844207D1502181F31188B6
:1041F000BFF34F8FBFF36F8FFEE7A069E162002826
:104200005CBFC1F13801A16102EB8203DFF8946069
:10421000616906EB830291420DD1201D01F0C5F9C1
:10422000E06A696D814238BF686500EB8002211D3C
:1042300006EB820049E670BDDFF86C10886A18B1A1
:10424000886A026D521C0265886A7047F8B5164D7F
:104250000C462F6DA96A0646081D01F0A6F916F155
:10426000010F08D13CB1A86A011D05F13800BDE875
:10427000F44001F072B9A86AF619BE424660A86A15
:1042800005D2011D286BBDE8F44001F074B9011D91
:10429000E86A01F070F9E86E864238BFEE66F1BD5B
:1042A000000000001098002454A900244908490087
:1042B000A0F120034FF0807C99610FF219011A6080
:1042C0006FF00202C3F81CC0596140F8242D203859
:1042D00070470000654950204A6812F1010F80F3D1
:1042E0001188BFF34F8FBFF36F8F00D0FEE7FEE75B
:1042F0003EB55F495F4A0868904207D1502181F37B
:104300001188BFF34F8FBFF36F8FFEE708685A4ADB
:10431000904207D1502181F31188BFF34F8FBFF333
:104320006F8FFEE7554AFF241378019314701578B8
:104330004E4C8DF800509DF8000000F050002070A9
:10434000072005E09DF80030401E5B008DF800302E
:104350009DF800502B06F5D4434213F1030F08D00B
:10436000A060502080F31188BFF34F8FBFF36F8F91
:10437000FEE7000200F4E060A060019810700A6A95
:1043800042F470020A62086A40F07040086201F06C
:104390002BF90021616001F089F93948026842F087
:1043A0004042026001F072F9002003B030BD50209D
:1043B00080F31188BFF34F8FBFF36F8F2B494A688B
:1043C000521C012A4A600AD12E490A68130606D0F7
:1043D00080F31188BFF34F8FBFF36F8FFEE77047F5
:1043E0002249486838B9502080F31188BFF34F8FB5
:1043F000BFF36F8FFEE7401E486008BF80F311884F
:10440000704780B5502080F31188BFF34F8FBFF302
:104410006F8FFFF79AFC18B14FF080501949086070
:10442000002282F3118801BDEFF3058010280F49A7
:104430000CD3154A105C0B78984207D2502080F3B9
:104440001188BFF34F8FBFF36F8FFEE788680F4966
:104450000A6802F4E062904207D2502383F3118885
:10446000BFF34F8FBFF36F8FFEE770473C00002410
:1044700000ED00E071C20F4170C20F4100E400E0A6
:1044800034EF00E004ED00E0F0E300E00CED00E0CC
:1044900010B586B0DFF8C04400F024FAA068C0B1BF
:1044A000002204A9059205A8049203AA01F00CF9C0
:1044B0000222059800920499039A02900191002328
:1044C0000FF29C410FF24510FFF702FA0028E0605E
:1044D00007D1502181F31188BFF34F8FBFF36F8F46
:1044E000FEE7012006B010BD2DE9FC4105460E4651
:1044F000174698462C2000F03BFA04000BD0002110
:10450000434684F82810089800903A4601943146B2
:10451000284600F028F82046BDE8F6817CB52C241A
:104520000094009D2C2D07D0502080F31188BFF3FC
:104530004F8FBFF36F8FFEE7079C009D002C07D1C4
:10454000502080F31188BFF34F8FBFF36F8FFEE7CA
:1045500007D0022584F82850069E0194009600F0AA
:1045600002F8204676BD2DE9F8430E008146154637
:10457000984607D1502080F31188BFF34F8FBFF3C7
:104580006F8FFEE7099C94B1089F00F0ABF9C4F867
:104590000090201DA661C4F81C80276200F0DAFF9D
:1045A0002DB194F8280040F0040084F82800BDE8FC
:1045B000F183F8B5044684B01E4600203CB9502073
:1045C00080F31188BFF34F8FBFF36F8FFEE7DFF8E3
:1045D0008873BD68C5B106290091019202940DDA75
:1045E000FFF769FD022807BF0A9A00230023002273
:1045F000B868694600F06AFB05B0F0BD002332469A
:104600006946284600F017FC05B0F0BD2DE9F043DF
:1046100089B0DFF848834FF08059DFF83C73396880
:10462000086810B90124002502E0C8680024056864
:10463000FFF728FB684600F0E5F8064600980028DA
:1046400055D1002C3FD1AE4242D3FFF721FB386851
:10465000C168CC68201D00F0A8FF94F8280041072D
:104660002CD5A1692B4632462046491900F01EF987
:1046700080B19CB1B868C8B1002201920295039440
:10468000FFF719FDB8680023002201A900F01EFB06
:1046900000280BD0216A2046884732E0502080F362
:1046A0001188BFF34F8FBFF36F8FFEE7502080F369
:1046B0001188BFF34F8FBFF36F8FFEE700F0FE004E
:1046C00084F82800E6E7786801684C1EA441E40FEE
:1046D000B8682246A91B00F0EFFEFFF7D9FA80B9AF
:1046E000C8F80090BFF34F8FBFF36F8F09E0FFF75B
:1046F000CFFA06E094F82800810740D4204600F065
:10470000C1F9B868002201A900F03EFC002886D05B
:104710000198002803D504990398029A90470198BC
:104720000028EED4039C606910B1201D00F03DFF0D
:10473000684600F067F801990929E2D8DFE801F03E
:104740002626261F070626261F07DAE7D2E794F853
:10475000282042F0010284F828200299A16131B199
:10476000034602460918204600F0A0F8C9E7502089
:1047700080F31188BFF34F8FBFF36F8FFEE794F87C
:10478000280000F0FE0084F82800BAE794F828100A
:104790000246A06941F0010184F8281002990B46F5
:1047A0004118204600F082F80028AAD0216A20464D
:1047B000884794F828004207A3D5029AA1698A186D
:1047C00084B1B868B0B10023069205930794FFF74F
:1047D00072FCB8680023002205A900F077FA0028CF
:1047E0008FD107E0502080F31188BFF34F8FBFF3C4
:1047F0006F8FFEE7502080F31188BFF34F8FBFF318
:104800006F8FFEE72DE9F04184B00746FFF799FA74
:104810008046514E306980450DD3002139604046B5
:10482000C6F8108004B0BDE8F0816060211D2461ED
:10483000306800F0A0FE3168086890B3C868C468AA
:104840000568201D00F0B1FE216A2046884794F8D3
:1048500028004207EFD5A06940198542E5D384B10D
:10486000B068B0B10022009201950294FFF723FCDA
:10487000B06800230022694600F028FA0028DAD147
:1048800007E0502080F31188BFF34F8FBFF36F8F85
:10489000FEE7502080F31188BFF34F8FBFF36F8F77
:1048A000FEE77068716030600121B7E710B5002441
:1048B0008A424160006107D3D21A83699A4207D2C3
:1048C000011D254A506808E09A4203D2994201D35B
:1048D000012404E0011D2048006800F04CFE204641
:1048E00010BD00001CB5FFF762FD1B4CA068E0B9CD
:1048F00004F1140000F021FE04F1280000F01DFE78
:1049000004F1140004F1280100222060616004F128
:104910003C03009204F18C0210210A2000F008F9F7
:10492000A06010B110A100F06CFDBDE81340FFF7CE
:1049300057BD10B5040007D1502080F31188BFF394
:104940004F8FBFF36F8FFEE7FFF731FDE469FFF78D
:1049500047FD204610BD000028A8002404ED00E01B
:10496000546D722053766300546D72510000000044
:104970002DE9F04104466D4FFFF784F9B8684FF018
:104980000008002508BB07F1200313F0070F07F10B
:1049900020014FF400400A4605D0CA1DD208D200BB
:1049A000C2F50040081880180838C008C0003A60F6
:1049B000811A7D60B8604560056051601060506884
:1049C0003861F8604FF00040F861F9690C424BD152
:1049D000002C49D0083414F0070F04D004F108006B
:1049E00004F00704041B002C3ED0F868A0423BD31F
:1049F00039463E6801E0314606467268A24202D25C
:104A000030680028F7D1B86886422DD00A6833682C
:104A10000B6002F108087268121B112A11D33119B8
:104A200011F0070007D0502181F31188BFF34F8F99
:104A3000BFF36F8FFEE7301D02510846746000F02F
:104A400050F87168F8683C69401AF860FA68A24248
:104A500088BF2246F8693A610143716035607A691E
:104A600008F00705521C7A61FFF712F93DB150209A
:104A700080F31188BFF34F8FBFF36F8FFEE740467F
:104A8000BDE8F081002800D1704738B5A0F10804D6
:104A9000264D6168EA69114207D1502080F31188E0
:104AA000BFF34F8FBFF36F8FFEE7206838B15021FF
:104AB00081F31188BFF34F8FBFF36F8FFEE79143F0
:104AC0006160FFF7DFF8E968606841182046E96037
:104AD00000F007F8A969491CA961BDE83140FFF75A
:104AE000D7B8124930B40A4600E02246146884421E
:104AF000FBD35368D418844203D14068C3181046CE
:104B0000536043681468C518A54208D189688C426F
:104B100004D06168CB184360246800E00C46046050
:104B2000824218BF106030BC70470000F00D0024B6
:104B300038B51C4638B9502080F31188BFF34F8F29
:104B4000BFF36F8FFEE73CB9502080F31188BFF3AD
:104B50004F8FBFF36F8FFEE742B141B9502080F312
:104B60001188BFF34F8FBFF36F8FFEE779B95023E2
:104B70000093009D502D12D1009B34B1049B012560
:104B800084F84650009400F032F8204632BD50249C
:104B900084F31188BFF34F8FBFF36F8FFEE783F36A
:104BA0001188BFF34F8FBFF36F8FFEE7F8B5050095
:104BB0000E46174607D1502080F31188BFF34F8F60
:104BC000BFF36F8FFEE706FB05F05030FFF7D0FE16
:104BD00004000AD000213B4684F8461004F150023C
:104BE00000943146284600F002F82046F2BD70B528
:104BF0001D46049C00290CBF24602260E0632164F0
:104C00003CB9502080F31188BFF34F8FBFF36F8FF3
:104C1000FEE7FFF7CCFB206CE16B2268002600FB6F
:104C200001F3491E48431344A3601044A663E060A7
:104C300004F1440662604FF0FF303070707004F190
:104C4000100000F07AFC04F1240000F076FCFFF77D
:104C5000C7FB357270BD38B50C46134638B95020C5
:104C600080F31188BFF34F8FBFF36F8FFEE7A04231
:104C700007D2502080F31188BFF34F8FBFF36F8F9F
:104C8000FEE70225002200950021FFF751FF00B149
:104C9000846332BD10B50C4638B9502080F31188BA
:104CA000BFF34F8FBFF36F8FFEE7A04207D25020B4
:104CB00080F31188BFF34F8FBFF36F8FFEE702229F
:104CC0000021FFF773FF00B1846310BD2DE9F641A9
:104CD00082B0064688461F4600243EB9502080F325
:104CE0001188BFF34F8FBFF36F8FFEE7B8F1000F4E
:104CF00001D1306C98B9022F02D1F06B012816D186
:104D0000FFF7D9F9002850D1039800284DD0502141
:104D100081F31188BFF34F8FBFF36F8FFEE75020F1
:104D200080F31188BFF34F8FBFF36F8FFEE75020E2
:104D300080F31188BFF34F8FBFF36F8FFEE70398A7
:104D4000002855D01CB968460124FFF716F9FFF773
:104D500047FBFEF797FFFFF72AFB06F1440090F9A7
:104D6000001011F1010F04BF0022027090F9011030
:104D700011F1010F04BF00224270FFF731FB03A9BC
:104D80006846FFF701F900284CD1FFF710FBB06B24
:104D9000F16B884214BF00250125FFF721FB5DBBA5
:104DA000304600F0FEFAFEF773FFFFF700FBB06B32
:104DB000F16B884201D3022FC1D13A4641463046B9
:104DC00000F0A8FA716A29B106F12400FFF7A2F8F1
:104DD00008B909E040B14FF08050DFF8D416086000
:104DE000BFF34F8FBFF36F8FFFF7FAFA01201FE079
:104DF000FFF7F6FA00201BE0039906F11000FFF719
:104E000035F8304600F0CDFAFEF742FF0028CCD14D
:104E10004FF08050DFF898160860BFF34F8FBFF354
:104E20006F8FC2E7304600F0BCFAFEF731FFE1E7D2
:104E300004B0BDE8F0812DE9F84304000E461546A4
:104E40001F4607D1502080F31188BFF34F8FBFF367
:104E50006F8FFEE70EB9206C68BB022F02D1E06BAA
:104E6000012830D1FFF7E0FAEFF31188502181F3E8
:104E70001188BFF34F8FBFF36F8FA06BE16B884238
:104E800001D3022F2DD194F94590A06B3A463146BB
:104E9000204600F03FFA19F1010F1CD1606AF0B111
:104EA00004F12400FFF736F8002818BF002D16D0B3
:104EB0000120286013E0502181F31188BFF34F8F48
:104EC000BFF36F8FFEE7502080F31188BFF34F8F41
:104ED000BFF36F8FFEE709F1010984F845900120C7
:104EE00000E0002088F31188BDE8F28370B504006B
:104EF0000D4607D1502080F31188BFF34F8FBFF3C9
:104F00006F8FFEE7206C38B1502181F31188BFF319
:104F10004F8FBFF36F8FFEE7216809B9A06810BB00
:104F2000FFF782FAEFF31186502181F31188BFF366
:104F30004F8FBFF36F8FA06BE16B884220D294F943
:104F40004510401CA06311F1010F14D1606AA8B193
:104F500004F12400FEF7DEFF002818BF002D0DD05D
:104F6000012028600AE0502181F31188BFF34F8FA0
:104F7000BFF36F8FFEE7491C84F84510012000E065
:104F8000002086F3118870BDF7B506460F46002451
:104F90003EB9502080F31188BFF34F8FBFF36F8F5E
:104FA000FEE70FB9306C60B9FFF785F8B0B9029829
:104FB000A0B1502181F31188BFF34F8FBFF36F8FE2
:104FC000FEE7502080F31188BFF34F8FBFF36F8F40
:104FD000FEE7304600F0E5F9FEF75AFEFFF7E7F985
:104FE000B56B002D44D10298002858D01CB96846F2
:104FF0000124FEF7C2FFFFF7F3F9FEF743FEFFF7C8
:10500000D6F906F14400415711F1010F04BF002207
:10501000027090F9011011F1010F04BF00224270DB
:10502000FFF7DEF902A96846FEF7AEFF002839D186
:10503000FFF7BDF9B06B451EAD41ED0FFFF7D0F99D
:10504000002DC6D0029906F12400FEF70FFF30466E
:1050500000F0A7F9FEF71CFE0028BFD14FF08050EA
:10506000DFF84C140860BFF34F8FBFF36F8FB5E7C5
:105070003946304600F082F96D1EB563306968B17B
:1050800006F11000FEF746FF40B14FF08050DFF808
:1050900020140860BFF34F8FBFF36F8FD6E0FFF788
:1050A0009FF9D0E0304600F07CF9FEF7F1FDFFF704
:1050B0007EF9B06B451EAD41ED0FFFF791F9002D64
:1050C0008CD0EEE7F2B582B00746002400253FB948
:1050D000502080F31188BFF34F8FBFF36F8FFEE72F
:1050E000386C38B1502181F31188BFF34F8FBFF373
:1050F0006F8FFEE7FEF7DFFF70B9029860B15021B5
:1051000081F31188BFF34F8FBFF36F8FFEE73846EF
:1051100000F047F9FEF7BCFDFFF749F9B86B00282E
:105120004ED10298002862D01CB968460124FEF7CF
:1051300024FFFFF755F9FEF7A5FDFFF738F907F152
:10514000440090F9001011F1010F04BF0022027019
:1051500090F9011011F1010F04BF00224270FFF716
:105160003FF902A96846FEF70FFF00284BD1FFF771
:105170001EF9B86B461EB641F60FFFF731F9002E47
:10518000C5D0386838B9FFF712F9B868FEF79FFF45
:105190000546FFF725F9029907F12400FEF766FEA0
:1051A000384600F0FEF8FEF773FD0028B4D14FF04A
:1051B000805029490860BFF34F8FBFF36F8FABE773
:1051C000401EB863386810B9FFF736F8B860386920
:1051D00060B107F11000FEF79DFE38B14FF080502E
:1051E0001D490860BFF34F8FBFF36F8F2EE03DB1B5
:1051F000502080F31188BFF34F8FBFF36F8FFEE70E
:10520000FFF7EEF81FE0384600F0CBF8FEF740FD60
:10521000FFF7CDF8B86B461EB641F60FFFF7E0F882
:10522000002E3FF479AF75B1FFF7C1F8786A002816
:105230001DBF396B0968C1F138010021B868FEF75C
:10524000B9FFFFF7CDF8002003B0F0BDFFF7C8F8B5
:10525000012003B0F0BD000004ED00E02DE9F843AB
:1052600004000F46154607D1502080F31188BFF384
:105270004F8FBFF36F8FFEE70FB9206C70B9FFF748
:10528000D3F8EFF31188502181F31188BFF34F8FCA
:10529000BFF36F8FA66B4EB9002023E6502080F33A
:1052A0001188BFF34F8FBFF36F8FFEE794F94490DF
:1052B00039462046761E00F061F8A66319F1010F09
:1052C0000CD1206970B104F11000FEF723FE002814
:1052D00018BF002D06D00120286003E009F1010964
:1052E00084F844900120D8E710B5040007D150207D
:1052F00080F31188BFF34F8FBFF36F8FFEE700F08D
:10530000AAF894F8460020B92046BDE81040FFF7FF
:10531000B9BB10BDF8B506461546B46B326C002714
:1053200042B9316831BBB068FEF70AFF0021074679
:10533000B1601FE065B9706800F0D2F9B2687068BA
:10534000316C08449042706014D33068706011E092
:10535000F06800F0C5F9306CF16840420144F1603A
:105360003268914202D2B3681844F060022D01D134
:1053700004B1641E641C3846B463F2BD026C0B4673
:10538000002A00D1704730B4C16884681144C160FC
:10539000A14224BF0568C560C168184630BC00F052
:1053A0009FB9F8B5054605F14406FFF700F896F9F0
:1053B0000140012C0ADB686A40B105F12400FEF7C8
:1053C000A9FD08B1FEF718FE641EF4D14FF0FF37B7
:1053D0007770FFF705F8FEF7EAFF96F90040012C19
:1053E0000ADB286940B105F11000FEF793FD08B112
:1053F000FEF702FE641EF4D13770BDE8F140FEF7FF
:10540000EFBF30B42B4D00242B6833B945F834106E
:1054100005EBC401486030BC7047AA680124002A2B
:105420001EBF02242B69002BF0D0AA690324002A96
:105430001EBF04242B6A002BE8D0AA6A0524002A88
:105440001EBF06242B6B002B1EBF0724AA6B002A4D
:10545000DCD030BC704710B4164B00225968814232
:1054600007D1002043F832001B1D43F8320010BC66
:105470007047DC68012284421EBF022259698142C2
:10548000EFD0DC69032284421EBF0422596A8142A4
:10549000E7D0DC6A052284421EBF0622596B814296
:1054A0001EBF0722DC6B8442DBD010BC70470000BB
:1054B00004ED00E044AB0024F8B504460D46164662
:1054C00004F13807FEF773FF97F90C0010F1010F94
:1054D00004BF0021397397F90D0010F1010F04BFCB
:1054E00000217973FEF77CFF386828B932462946D7
:1054F00004F12400FEF7F3FC2046BDE8F24050E73B
:1055000062F30F2262F31F4200B500BF13009646FC
:105510009446103928BFA0E80C50FAD85FEA417CC5
:1055200028BF0CC048BF40F8042BC90728BF20F88B
:10553000022B48BF00F8012B00BD4FF0FF3200F1F5
:105540000801826000F1080341600022C36001612C
:105550000260704700210161704742684A609368A9
:105560008B60D2F808C0CCF8041091600861016823
:10557000491C0160704730B40A6812F1010F08BF7E
:10558000036907D000F1080300E023465C68256842
:10559000AA42FAD25A684A6091608B6059600861E9
:1055A0000168491C016030BC70474368016982682A
:1055B0009A608268D0F804C0C2F804C04B68834285
:1055C00004BF82684A60002303610868401E0860C7
:1055D00008687047034B036003F15C00086080219A
:1055E00011607047E4A3002470B4084800210160F2
:1055F00000228260064B1C68064E0721A4FB06654C
:105600006D0A6D1E4560016070BC704710E000E0DF
:1056100054000024986E1283EFF30980BFF36F8F5C
:10562000264B1A681EF0100F08BF20ED108A20E9E3
:10563000F04F106009B44FF0500080F31188BFF3B1
:105640004F8FBFF36F8FFEF7E2FB4FF0000080F348
:10565000118809BC19680868B0E8F04F1EF0100FF7
:1056600008BFB0EC108A80F30988BFF36F8F7047D2
:10567000124B19680868B0E8F04F80F30988BFF34F
:105680006F8F4FF0000080F3118870470C4800685E
:10569000006880F308884FF0000080F3148862B639
:1056A00061B6BFF34F8FBFF36F8F00DFDFF81400D9
:1056B000016841F470010160704700007CA900247A
:1056C00008ED00E088ED00E0044B036003F15C00AE
:1056D00008604FF480711160704700BF709C002417
:1056E00062B38B0708D0521E11F8013B00F8013B52
:1056F00000F024808B07F6D1830740F0208000BFA4
:10570000103A07D330B4B1E83810103AA0E8381096
:10571000F9D230BC530724BFB1E80810A0E8081044
:1057200044BF51F8043B40F8043BD20724BF31F892
:10573000022B20F8022B44BF0B7803707047121F16
:1057400017D35B0009D151F8043B20F8023B1B0C36
:10575000121F20F8023BF6D20BE051F8043B00F890
:10576000013B1B0A20F8023B1B0C121F00F8013BF7
:10577000F3D238BF121D521E24BF11F8013B00F8AE
:10578000013BF8D87047C079C009704710B504468E
:1057900000F006F801482060204610BD1004000803
:1057A00000BFF8B504460D4616463B4F00F092F890
:1057B0003A4804F59C72206000211160384851601D
:1057C000384B3C60002720600FF2E80C936004F532
:1057D000A473D760DCE90001C3E90001D561324D53
:1057E000966128680021026893689847002001F0BC
:1057F0009AF8296891F8760000281ABFC86C00282A
:10580000886801F0D7F82046F2BD00002DE930008D
:1058100000F59E7129A212E080B500F5A871234B16
:105820004A6800920A6800F59C71214801F0D4F89A
:1058300001BD00002DE9300000F59E7121A28860B5
:1058400000F5A473D2E90045C3E9004500F5A07056
:10585000086030BC704780B500F5A871134B4A68EA
:1058600000920A6800F59C71114801F05FF901BDD2
:105870002DE9300000F59E7114A2E0E780B500F537
:10588000A8710A4B4A6800920A6800F59C710848A2
:1058900001F032FA01BD0000680D00247804000810
:1058A000D4040008BC04000874AC0024700D00246B
:1058B0006C0D0024000000000000000019580008D2
:1058C0000000000057580008000000007D58000844
:1058D0000000000000BF38B50446DFF8081A216058
:1058E000DFF8042A22600023A4F8843004F1A80021
:1058F00001F0EAFA04F1EA00DFF8F05901F0E4FA05
:1059000004F596700021018041808180C180017280
:105910004172DFF8DC19DFF8DC0901F0E3FA10B1BD
:105920000020288106E04FF480610220298128614F
:1059300001F08FFB00212046E9602961696100F0D8
:10594000E5FC204632BDDFF8A409C06870470000BE
:10595000DFF89809006910B1026893691847704729
:1059600070473EB50022DFF894490092DFF888398D
:10597000A25EB3F90050ADF804206946ADF80650B8
:105980000268536B984703B030BDF8B505460C4626
:10599000DFF86409DFF8641984B0B0F90000B1F9E8
:1059A0000010002200920822ADF804102146ADF844
:1059B000060002A8FFF794FE694602A801F0A2FDC6
:1059C000204602A90822DFF82469FFF789FE306922
:1059D00008B395F8341169B1684621460822FFF7EB
:1059E0007FFEDDE9002311461A46284600F015F82F
:1059F00005B0F0BD05682146AF68B847B06918B179
:105A00000268214693689847DFF8F4082146006849
:105A10000268D369984705B0F0BD2DE9F74F88B00B
:105A200009A801F0B7FD68B1CAE30898A9B200F16E
:105A3000A80409A804EBC10101F0B8FDA9B22046F1
:105A400001F0FCFD0898B0F8E880B8F1010851D4E5
:105A5000DFF8B068DFF8B07808981FFA88F3BDF96E
:105A6000245000F1A80101EBC3040091B4F9001027
:105A7000A942A2BFB4F90220BDF926309A4236DB12
:105A8000BDF82450BDF828C0B4F804E065442DB238
:105A9000714409B28D422ADBBDF82A10E088CB1888
:105AA0001BB2821812B2934221DB089A1FFA88F0C7
:105AB000B2F8E810884207D34FF4DE723946304618
:105AC00001F0E2FDAFF3008008981FFA88F5B0F806
:105AD000E810491EA0F8E81088B2854207D2009B62
