:020000040800F2
:1000000000BE00244D7D0108B9850108BB850108AB
:10001000BD850108BF850108C185010800000000F9
:10002000000000000000000000000000E55C000887
:10003000C3850108000000008D5C00085D350008E4
:100040002F8B0108338B0108378B01083B8B01088C
:100050003F8B0108438B0108478B01084B8B01083C
:10006000C58501084F8B0108538B0108578B010888
:100070005B8B01085F8B0108638B0108678B0108AC
:100080006B8B01086F8B0108738B0108778B01085C
:100090007B8B01087F8B0108838B0108878B01080C
:1000A0008B8B01088F8B0108938B0108978B0108BC
:1000B0009B8B01089F8B0108A38B0108A78B01086C
:1000C000AB8B0108AF8B0108B38B0108B78B01081C
:1000D000BB8B0108BF8B0108C38B0108C78B0108CC
:1000E000CB8B0108CF8B0108D38B0108D78B01087C
:1000F000DB8B0108DF8B0108E38B0108E78B01082C
:10010000EB8B0108EF8B0108F38B0108F78B0108DB
:10011000FB8B0108FF8B0108CF850108038C0108C8
:10012000078C01080B8C01080F8C0108138C010847
:10013000178C010800000000000000001B8C010863
:100140001F8C0108238C0108278C01082B8C0108C7
:100150002F8C0108338C0108378C01083B8C010877
:100160003F8C0108438C0108478C01084B8C010827
:100170004F8C0108538C0108578C01085B8C0108D7
:100180005F8C0108638C0108678C01086B8C010887
:100190006F8C0108738C0108778C01087B8C010837
:1001A000D98501087F8C0108E3850108838C01084B
:1001B000ED850108878C01088B8C01088F8C010864
:1001C000938C0108978C01080000000000000000DB
:1001D00000000000000000009B8C010800000000EF
:1001E000000000000000000000000000000000000F
:1001F00000000000000000009F8C0108A38C010893
:10020000A78C0108AB8C010800000000AF8C01082E
:10021000B38C0108B78C0108BB8C0108BF8C0108A6
:10022000C38C0108C78C0108CB8C010800000000BA
:10023000CF8C0108D38C010800000000D78C010886
:10024000DB8C0108DF8C0108E38C0108E78C0108D6
:10025000EB8C0108EF8C0108F38C0108F78C010886
:10026000FB8C0108FF8C0108038D0108078D010834
:100270000B8D01080F8D0108138D0108000000008F
:10028000178D01081B8D0108000000001F8D01085B
:1002900000000000238D0108278D01082B8D010827
:1002A0002F8D0108338D0108378D010800000000F3
:1002B000000000000000000000000000000000003E
:1002C00000000090000000003C003C000D000B000E
:1002D0002200244040380090000000003C003C0018
:1002E0000D000B0022002440000000000000000070
:1002F00000000000000000007479706564546578A7
:10030000747320213D2030202626202254797065E8
:1003100064546578742064617461626173652068F7
:100320006173206E6F74206265656E20696E6974FA
:1003300069616C697A65642E22000000443A5C3978
:10034000395F50726F6A6563745C4769744875629F
:100350005C546F7563684746585C4D794170706CAA
:1003600069636174696F6E5C455741524D2F2E2E43
:100370002F4D6964646C6577617265732F53542FD8
:10038000746F7563686766782F6672616D65776FE5
:10039000726B2F696E636C7564655C746F756368EE
:1003A0006766782F5479706564546578742E687028
:1003B0007000000074797065645465787449642035
:1003C0003C206E756D6265724F6654797065645439
:1003D00065787473202626202274797065645465CC
:1003E00078744964206C6172676572207468616E0C
:1003F000206E756D6265724F6654797065645465E0
:100400007874732E2200000000000000000000003D
:10041000997E00080F8700081F8700084F8D00088D
:10042000618A0108258A0108000000000000000020
:1004300000000000000000000000000000000000BC
:10044000AB7E0008D37E000863880008000000002F
:10045000000000008B69000800000000EDBB0008F0
:10046000F374000831BE0008D58A0108E38A010848
:100470000000000000000000997E00080F870008BF
:100480001F8700084F8D00082F870008258A010864
:10049000000000000000000000000000000000005C
:1004A0000000000000000000AB7E0008D37E0008C2
:1004B0006388000800000000000000000000000049
:1004C00000000000B58A0108CF61000800000000AC
:1004D00000000000997E00080F8700081F870008B1
:1004E0004F8D00082F870008258A010800000000B2
:1004F00000000000000000000000000000000000FC
:1005000000000000AB7E0008D37E0008638800086E
:1005100000000000000000007F7D000800000000D7
:10052000679B0008F374000831BE0008D58A0108F3
:10053000E38A010873697A656F662853637265659B
:100540006E5479706529203C3D20686561702E737A
:10055000637265656E53746F726167652E656C6555
:100560006D656E745F73697A6528292026262022BE
:100570005669657720616C6C6F636174696F6E207A
:100580006572726F723A20436865636B20746861AC
:100590007420616C6C2076696577732061726520C8
:1005A000616464656420746F2046726F6E74656E5A
:1005B00064486561703A3A56696577547970657335
:1005C00022000000443A5C39395F50726F6A6563FB
:1005D000745C4769744875625C546F75636847461C
:1005E000585C4D794170706C69636174696F6E5CC1
:1005F000455741524D2F2E2E2F4D6964646C6577FF
:10060000617265732F53542F746F756368676678D2
:100610002F6672616D65776F726B2F696E636C7593
:1006200064655C6D76702F4D56504170706C6963D7
:100630006174696F6E2E68707000000073697A656E
:100640006F662850726573656E7465725479706553
:1006500029203C3D20686561702E70726573656E5F
:1006600074657253746F726167652E656C656D6534
:100670006E745F73697A65282920262620225072BD
:100680006573656E74657220616C6C6F636174690B
:100690006F6E206572726F723A20436865636B20DB
:1006A0007468617420616C6C2070726573656E741F
:1006B0006572732061726520616464656420746F83
:1006C0002046726F6E74656E64486561703A3A5088
:1006D000726573656E74657254797065732200007B
:1006E00073697A656F66285472616E7354797065A8
:1006F00029203C3D20686561702E7472616E7369BB
:1007000074696F6E53746F726167652E656C656D89
:10071000656E745F73697A65282920262620225425
:1007200072616E736974696F6E20616C6C6F636166
:1007300074696F6E206572726F723A2043686563E8
:100740006B207468617420616C6C207472616E73CC
:100750006974696F6E732061726520616464656499
:1007600020746F2046726F6E74656E6448656170A8
:100770003A3A5472616E736974696F6E5479706538
:1007800073220000000000000000000000000000D4
:1007900000000000958A0108000000000000000031
:1007A00000000000D3A9000800000000E9BC000818
:1007B000C5BD000835BE0008D58A0108E38A0108D6
:1007C00095BE00087BB3000873697A656F6628538D
:1007D000637265656E5479706529203C3D206865BB
:1007E00061702E73637265656E53746F72616765B5
:1007F0002E656C656D656E745F73697A6528292056
:10080000262620225669657720616C6C6F636174BF
:10081000696F6E206572726F723A20436865636B10
:10082000207468617420616C6C2076696577732030
:1008300061726520616464656420746F2046726F24
:100840006E74656E64486561703A3A5669657754AE
:100850007970657322000000443A5C39395F507248
:100860006F6A6563745C4769744875625C546F7540
:1008700063684746585C4D794170706C6963617478
:10088000696F6E5C455741524D2F2E2E2F4D696476
:10089000646C6577617265732F53542F746F756341
:1008A000686766782F6672616D65776F726B2F6906
:1008B0006E636C7564655C6D76702F4D565041703B
:1008C000706C69636174696F6E2E687070000000EF
:1008D00073697A656F662850726573656E746572A8
:1008E0005479706529203C3D20686561702E7072D6
:1008F0006573656E74657253746F726167652E659A
:100900006C656D656E745F73697A6528292026268B
:10091000202250726573656E74657220616C6C6F15
:10092000636174696F6E206572726F723A204368FA
:1009300065636B207468617420616C6C20707265F3
:1009400073656E746572732061726520616464659D
:100950006420746F2046726F6E74656E64486561C2
:10096000703A3A50726573656E7465725479706549
:100970007322000073697A656F66285472616E7322
:100980005479706529203C3D20686561702E747231
:10099000616E736974696F6E53746F726167652EEF
:1009A000656C656D656E745F73697A6528292026AC
:1009B0002620225472616E736974696F6E20616CB7
:1009C0006C6F636174696F6E206572726F723A202A
:1009D000436865636B207468617420616C6C20747B
:1009E00072616E736974696F6E73206172652061E4
:1009F0006464656420746F2046726F6E74656E6403
:100A0000486561703A3A5472616E736974696F6EC9
:100A1000547970657322000000000000000000009F
:100A20000000000000000000758A010800000000BE
:100A3000000000000000000093A800080000000073
:100A400039BB00089DBD0008EDBD0008D58A01082E
:100A5000E38A010879BE000863AD000873697A650E
:100A60006F662853637265656E5479706529203C02
:100A70003D20686561702E73637265656E53746F97
:100A8000726167652E656C656D656E745F73697AFA
:100A900065282920262620225669657720616C6CFE
:100AA0006F636174696F6E206572726F723A204372
:100AB0006865636B207468617420616C6C20766972
:100AC0006577732061726520616464656420746F6A
:100AD0002046726F6E74656E64486561703A3A566E
:100AE000696577547970657322000000443A5C3977
:100AF000395F50726F6A6563745C476974487562E8
:100B00005C546F7563684746585C4D794170706CF2
:100B100069636174696F6E5C455741524D2F2E2E8B
:100B20002F4D6964646C6577617265732F53542F20
:100B3000746F7563686766782F6672616D65776F2D
:100B4000726B2F696E636C7564655C6D76702F4D8A
:100B500056504170706C69636174696F6E2E687075
:100B60007000000073697A656F662850726573655E
:100B70006E7465725479706529203C3D206865610A
:100B8000702E70726573656E74657253746F7261E6
:100B900067652E656C656D656E745F73697A65282F
:100BA00029202626202250726573656E7465722096
:100BB000616C6C6F636174696F6E206572726F72C5
:100BC0003A20436865636B207468617420616C6CC3
:100BD0002070726573656E74657273206172652032
:100BE000616464656420746F2046726F6E74656E14
:100BF00064486561703A3A50726573656E746572E7
:100C0000547970657322000073697A656F662854A1
:100C100072616E735479706529203C3D206865616E
:100C2000702E7472616E736974696F6E53746F7233
:100C30006167652E656C656D656E745F73697A6555
:100C4000282920262620225472616E736974696FE8
:100C50006E20616C6C6F636174696F6E2065727277
:100C60006F723A20436865636B2074686174206119
:100C70006C6C207472616E736974696F6E7320613D
:100C8000726520616464656420746F2046726F6EC3
:100C900074656E64486561703A3A5472616E736946
:100CA00074696F6E54797065732200000000000053
:100CB00000000000200000000100000020000000F3
:100CC000010000001C000000010000001C000000EA
:100CD000010000008B5E000800000000CB5E0008F1
:100CE000000000000B5F0008000000000000000092
:100CF0000000000000000000000000006FB80008C5
:100D00001B5C0008098A01080D8A01080000000028
:100D1000795F000800000000056900082F680008DE
:100D2000118A0108FB5D0008158A01081D8A010867
:100D300023A90008BB680008E78A0108EB8A0108BC
:100D40000DA900080800000064656661756C7454A4
:100D500061736B004755495F5461736B000000007D
:100D60007465737454696D657200000074696D6513
:100D7000720D0A00480D000800000000000000008D
:100D80000000000000000000000200001800000049
:100D90000000000000000000540D000800000000EA
:100DA0000000000000000000000000000040000003
:100DB000180000000000000000000000600D0008A6
:100DC00000000000000000000000000028667261C2
:100DD0006D655F6275666665725F73656D20213D46
:100DE00020302920262620224372656174696F6EA7
:100DF000206F66206672616D656275666665722039
:100E000073656D6170686F7265206661696C656499
:100E100022000000443A5C39395F50726F6A6563A2
:100E2000745C4769744875625C546F7563684746C3
:100E3000585C4D794170706C69636174696F6E5C68
:100E4000546F7563684746585C7461726765745C7B
:100E500067656E6572617465645C4F53577261704B
:100E6000706572732E6370700000000028767379CD
:100E70006E635F717565756520213D2030292026E0
:100E80002620224372656174696F6E206F6620763A
:100E900073796E63206D6573736167652071756525
:100EA0007565206661696C6564220000F0E300E00E
:100EB000000000000000000003B80008BBBA0008F2
:100EC000EFBB000800000000000000000000000070
:100ED0000000000000000000000000000000000012
:100EE000198E00081B8E0008E7BC000800000000F7
:100EF000FCFFFFFF000000000000000000000000F9
:100F00000000000000000000BBE20008000000003C
:100F1000858E0008D58D000833BE0008DD8D0008E1
:100F2000739100081B9200084593000803C2000853
:100F3000DFC9000800000000000000003F49010870
:100F400000000000858E00080F3A010833BE00083B
:100F50004B9E0008739100081B92000845930008FF
:100F600003C20008DFC90008000000000000000004
:100F70000000000000000000EF8A01089F1A01082D
:100F80000000000000000000A76E01080000000043
:100F9000858E0008359E000833BE00084B9E000871
:100FA000739100081B9200084593000803C20008D3
:100FB000DFC90008379E00080000000000000000A4
:100FC000000000003D9500083F9500086F70010883
:100FD00000000000FCFFFFFF000000000000000018
:100FE0000000000000000000000000007370010815
:100FF00000000000858E0008F994000833BE000848
:1010000001950008739100081B92000845930008A1
:1010100003C20008DFC90008000000000000000053
:101020002371010800000000858E00080F3A0108B6
:1010300033BE00084B9E0008739100081B92000805
:101040004593000803C20008DFC900080000000043
:101050000000000000000000000000000F8B0108ED
:101060008B7001080000000000000000C773010839
:1010700000000000858E00087DA8000833BE00082F
:101080004B9E0008739100081B92000845930008CE
:1010900003C20008DFC900087FA8000800000000A4
:1010A00000000000000000009F4D0108E9740108E5
:1010B00057760108694D0108BF740108FB7A0108E1
:1010C0000000000000000000000000003D75010865
:1010D00001760108E3740108A54D0108914F01084C
:1010E0005376010855760108000000002F750108AD
:1010F000302026262022556E737570706F727465CD
:101100006420466F726D617421220000443A5C399C
:10111000395F50726F6A6563745C476974487562C1
:101120005C546F7563684746585C4D794170706CCC
:1011300069636174696F6E5C546F75636847465884
:101140005C7461726765745C67656E657261746515
:10115000645C53544D3332444D412E637070000033
:10116000302026262022556E737570706F7274655C
:101170006420466F726D617421220000443A5C392C
:10118000395F50726F6A6563745C47697448756251
:101190005C546F7563684746585C4D794170706C5C
:1011A00069636174696F6E5C546F75636847465814
:1011B0005C7461726765745C67656E6572617465A5
:1011C000645C53544D3332444D412E6370700000C3
:1011D000302026262022556E737570706F727465EC
:1011E0006420666F726D617422000000443A5C39BD
:1011F000395F50726F6A6563745C476974487562E1
:101200005C546F7563684746585C4D794170706CEB
:1012100069636174696F6E5C546F756368474658A3
:101220005C7461726765745C67656E657261746534
:10123000645C53544D3332444D412E637070000052
:10124000A086010080380100C0D401000000000029
:101250007A0D0000FA0000005C120000A00F0000F0
:10126000800200001400000000000000801A060048
:1012700000E20400005307000000000084030000A7
:10128000640000001405000058020000FA0000008D
:10129000640000000000000040420F0000350C0018
:1012A000804F120000000000C20100003200000068
:1012B000F4010000040100003C0000006400000094
:1012C00000000000010002000400060008000A00FF
:1012D0000C0010002000400080000001010101030B
:1012E00007010000080402040801010100000000D9
:1012F0000000000000000000000000000986010856
:101300003586010800000000010203040102030405
:101310000607080949444C450000000075736564E0
:10132000203E203000000000443A5C39395F5072A2
:101330006F6A6563745C4769744875625C546F7565
:1013400063684746585C4D794170706C696361749D
:10135000696F6E5C455741524D2F2E2E2F4D69649B
:10136000646C6577617265732F53542F746F756366
:10137000686766782F6672616D65776F726B2F692B
:101380006E636C7564655C746F7563686766782FEF
:101390005465787450726F76696465722E687070E7
:1013A000000000006F6666736574203C20757365ED
:1013B00064000000443A5C39395F50726F6A6563BB
:1013C000745C4769744875625C546F75636847461E
:1013D000585C4D794170706C69636174696F6E5CC3
:1013E000455741524D2F2E2E2F4D6964646C657701
:1013F000617265732F53542F746F756368676678D5
:101400002F6672616D65776F726B2F696E636C7595
:1014100064655C746F7563686766782F546578746B
:1014200050726F76696465722E68707000000000FB
:1014300075736564203E203100000000443A5C3939
:10144000395F50726F6A6563745C4769744875628E
:101450005C546F7563684746585C4D794170706C99
:1014600069636174696F6E5C455741524D2F2E2E32
:101470002F4D6964646C6577617265732F53542FC7
:10148000746F7563686766782F6672616D65776FD4
:10149000726B2F696E636C7564655C746F756368DD
:1014A0006766782F5465787450726F7669646572D8
:1014B0002E6870700000000024750090546D72203A
:1014C00053766300546D725100000000000000006C
:1014D000000000000000000000000000000000000C
:1014E000000000000000000000000000857B0108F3
:1014F00000000000000000000000000000000000EC
:1015000000000000000000000000000000000000DB
:101510000000000000000000518D0108FB7C010864
:1015200000000000000000000000000000000000BB
:1015300000000000000000000000000000000000AB
:10154000000000000000000000000000A37B010874
:101550003F7D0108000000000000000000000000C6
:10156000000000000000000000000000000000007B
:10157000000000000000000000000000000000006B
:10158000558D0108598D0108000000000000000081
:10159000000000000000000000000000857B010842
:1015A0006672616D6542756666657220213D203008
:1015B000202626202241206672616D65627566666E
:1015C00065722061646472657373206D7573742035
:1015D0006265207365742200443A5C39395F507249
:1015E0006F6A6563745C4769744875625C546F75B3
:1015F00063684746585C4D794170706C69636174EB
:10160000696F6E5C455741524D2F2E2E2F4D6964E8
:10161000646C6577617265732F53542F746F7563B3
:10162000686766782F6672616D65776F726B2F6978
:101630006E636C7564655C746F7563686766782F3C
:1016400068616C2F48414C2E6870700000000000EB
:10165000000000000000000000000000658D01088F
:1016600000000000251B0108000000000000000031
:10167000D91B0108A1660108AF660108B766010819
:1016800009670108C71B0108271C0108718D0108A3
:10169000736801084F69010899690108000000009A
:1016A00000000000B76A0108F96901082D6B010804
:1016B000DD6B0108376C0108000000003F6C010879
:1016C0008D8D0108551B0108691B0108791B010854
:1016D000891B010800000000558701080D670108FB
:1016E00000000000A38D0108038301080000000032
:1016F000000000000000000021650108B71B010880
:10170000BF1B0108CD1B0108C36D0108436E010812
:10171000B18701082F1C01087B1C01080000000094
:10172000000000000000000000000000658D0108BE
:10173000000000001D64010825640108000000008D
:1017400083640108A1660108AF660108B766010855
:101750000967010873640108271C0108718D0108DD
:10176000736801084F6901089969010800000000C9
:1017700000000000B76A0108F96901082D6B010833
:10178000DD6B0108376C0108000000003F6C0108A8
:101790008D8D0108DD640108E5640108ED64010830
:1017A000F564010800000000558701080D67010875
:1017B00000000000A38D0108038301080000000061
:1017C000000000000000000021650108B71B0108AF
:1017D000BF1B01087B640108C36D0108436E01084B
:1017E000B18701082F1C01087B1C01087573656413
:1017F000203E203000000000433A5C6A656E6B6951
:101800006E735C776F726B73706163655C43726556
:1018100061746552656C656173654275696C645C81
:101820006372656174655F72656C656173652D30A7
:101830005C746F7563686766785C6275696C645F19
:10184000636F6E665C636F72655C636F72746578FC
:101850005F6D375C494152382E785C2E2E5C2E2EFF
:101860005C2E2E5C2E2E5C6672616D65776F726BDE
:101870005C696E636C7564655C746F7563686766DC
:10188000782F5465787450726F76696465722E682B
:101890007070000075736564203E3D206E756D00AC
:1018A000433A5C6A656E6B696E735C776F726B73DB
:1018B000706163655C43726561746552656C6561F6
:1018C00073654275696C645C6372656174655F72AF
:1018D000656C656173652D305C746F7563686766F0
:1018E000785C6275696C645F636F6E665C636F726F
:1018F000655C636F727465785F6D375C494152381F
:101900002E785C2E2E5C2E2E5C2E2E5C2E2E5C668F
:1019100072616D65776F726B5C696E636C7564651F
:101920005C746F7563686766782F5465787450725D
:101930006F76696465722E687070000075736564F7
:10194000202B206E756D203C3D2073697A65000068
:10195000433A5C6A656E6B696E735C776F726B732A
:10196000706163655C43726561746552656C656145
:1019700073654275696C645C6372656174655F72FE
:10198000656C656173652D305C746F75636867663F
:10199000785C6275696C645F636F6E665C636F72BE
:1019A000655C636F727465785F6D375C494152386E
:1019B0002E785C2E2E5C2E2E5C2E2E5C2E2E5C66DF
:1019C00072616D65776F726B5C696E636C7564656F
:1019D0005C746F7563686766782F546578745072AD
:1019E0006F76696465722E68707000007573656447
:1019F000203E203000000000433A5C6A656E6B694F
:101A00006E735C776F726B73706163655C43726554
:101A100061746552656C656173654275696C645C7F
:101A20006372656174655F72656C656173652D30A5
:101A30005C746F7563686766785C6275696C645F17
:101A4000636F6E665C636F72655C636F72746578FA
:101A50005F6D375C494152382E785C2E2E5C2E2EFD
:101A60005C2E2E5C2E2E5C6672616D65776F726BDC
:101A70005C696E636C7564655C746F7563686766DA
:101A8000782F5465787450726F76696465722E6829
:101A90007070000075736564202B206E756D203C9E
:101AA0003D2073697A650000433A5C6A656E6B6934
:101AB0006E735C776F726B73706163655C437265A4
:101AC00061746552656C656173654275696C645CCF
:101AD0006372656174655F72656C656173652D30F5
:101AE0005C746F7563686766785C6275696C645F67
:101AF000636F6E665C636F72655C636F727465784A
:101B00005F6D375C494152382E785C2E2E5C2E2E4C
:101B10005C2E2E5C2E2E5C6672616D65776F726B2B
:101B20005C696E636C7564655C746F756368676629
:101B3000782F5465787450726F76696465722E6878
:101B40007070000075736564203E206F6666736573
:101B500074000000433A5C6A656E6B696E735C7773
:101B60006F726B73706163655C437265617465521B
:101B7000656C656173654275696C645C637265610F
:101B800074655F72656C656173652D305C746F752B
:101B900063686766785C6275696C645F636F6E66C4
:101BA0005C636F72655C636F727465785F6D375CE0
:101BB000494152382E785C2E2E5C2E2E5C2E2E5CE7
:101BC0002E2E5C6672616D65776F726B5C696E63F9
:101BD0006C7564655C746F7563686766782F5465AF
:101BE000787450726F76696465722E687070000048
:101BF00075736564203C2073697A6500433A5C6ABA
:101C0000656E6B696E735C776F726B737061636521
:101C10005C43726561746552656C6561736542759C
:101C2000696C645C6372656174655F72656C656143
:101C300073652D305C746F7563686766785C627578
:101C4000696C645F636F6E665C636F72655C636F23
:101C5000727465785F6D375C494152382E785C2E1E
:101C60002E5C2E2E5C2E2E5C2E2E5C6672616D65B7
:101C7000776F726B5C696E636C7564655C746F75AD
:101C800063686766782F5465787450726F766964FC
:101C900065722E68707000006F6666736574203C14
:101CA0002075736564000000433A5C6A656E6B6979
:101CB0006E735C776F726B73706163655C437265A2
:101CC00061746552656C656173654275696C645CCD
:101CD0006372656174655F72656C656173652D30F3
:101CE0005C746F7563686766785C6275696C645F65
:101CF000636F6E665C636F72655C636F7274657848
:101D00005F6D375C494152382E785C2E2E5C2E2E4A
:101D10005C2E2E5C2E2E5C6672616D65776F726B29
:101D20005C696E636C7564655C746F756368676627
:101D3000782F5465787450726F76696465722E6876
:101D400070700000000000000000000077860108AD
:101D50000F890108338901086B890108B78D0108D3
:101D60000000000000000000000000000000000073
:101D700000000000997E00080F8700081F870008F8
:101D80004F8D00082F870008A97E00080000000082
:101D90000000000000000000000000000000000043
:101DA00000000000AB7E0008D37E000863880008B6
:101DB000696E646578203C205F73697A6500000075
:101DC000433A5C6A656E6B696E735C776F726B73B6
:101DD000706163655C43726561746552656C6561D1
:101DE00073654275696C645C6372656174655F728A
:101DF000656C656173652D305C746F7563686766CB
:101E0000785C6275696C645F636F6E665C636F7249
:101E1000655C636F727465785F6D375C49415238F9
:101E20002E785C2E2E5C2E2E5C2E2E5C2E2E5C666A
:101E300072616D65776F726B5C696E636C756465FA
:101E40005C746F7563686766782F68616C2F54796E
:101E50007065732E687070005F73697A65203C202E
:101E60006361706163697479202626202256656358
:101E7000746F72206361706163697479206578633F
:101E80006565646564220000433A5C6A656E6B694F
:101E90006E735C776F726B73706163655C437265C0
:101EA00061746552656C656173654275696C645CEB
:101EB0006372656174655F72656C656173652D3011
:101EC0005C746F7563686766785C6275696C645F83
:101ED000636F6E665C636F72655C636F7274657866
:101EE0005F6D375C494152382E785C2E2E5C2E2E69
:101EF0005C2E2E5C2E2E5C6672616D65776F726B48
:101F00005C696E636C7564655C746F756368676645
:101F1000782F68616C2F54797065732E687070002B
:101F2000696E646578203C205F73697A6500000003
:101F3000433A5C6A656E6B696E735C776F726B7344
:101F4000706163655C43726561746552656C65615F
:101F500073654275696C645C6372656174655F7218
:101F6000656C656173652D305C746F756368676659
:101F7000785C6275696C645F636F6E665C636F72D8
:101F8000655C636F727465785F6D375C4941523888
:101F90002E785C2E2E5C2E2E5C2E2E5C2E2E5C66F9
:101FA00072616D65776F726B5C696E636C75646589
:101FB0005C746F7563686766782F68616C2F5479FD
:101FC0007065732E68707000000000000000000053
:101FD000000000000000000015A5000881A5000811
:101FE000959E0008EF9E0008000000000000000021
:101FF000E38D01080F9F00087F9F0008B98D01083D
:10200000BD8D0108C18D0108C58D010800000000CB
:10201000C98D0108CB8D0108CD8D0108CF8D010838
:10202000A19F000800000000D18D0108B9A500089B
:10203000C3A50008287769647468203E20302920F1
:1020400026262028686569676874203E203029208C
:102050002626202243616E6E6F7420626C697420A4
:10206000656D70747920726563742200433A5C6A0E
:10207000656E6B696E735C776F726B7370616365AD
:102080005C43726561746552656C65617365427528
:10209000696C645C6372656174655F72656C6561CF
:1020A00073652D305C746F7563686766785C667203
:1020B000616D65776F726B5C736F757263655C746D
:1020C0006F7563686766785C68616C5C48414C2E2C
:1020D0006370700028626C69744F702E6F70657247
:1020E0006174696F6E202620676574426C69744361
:1020F0006170732829292026262022626C697420A9
:102100006F7065726174696F6E206E6F7420737585
:1021100070706F7274656422000000002877696433
:102120007468203E203029202626202868656967AB
:102130006874203E203029202626202243616E6EBE
:102140006F742066696C6C20656D7074792072659F
:102150006374220028626C69744F702E6F70657210
:102160006174696F6E202620676574426C697443E0
:102170006170732829292026262022626C69742028
:1021800066696C6C206F7065726174696F6E206E29
:102190006F7420737570706F727465642200000034
:1021A0005553455F414E494D4154494F4E5F53543D
:1021B0004F524147452026262022416E696D6174A9
:1021C000696F6E2073746F726167652072657175D7
:1021D0006972656420666F722074686973206F701D
:1021E00065726174696F6E2E205365652048414C9D
:1021F0003A3A7365744672616D65427566666572DA
:1022000053746172744164647265737322000000D8
:102210006672616D65427566666572416C6C6F636E
:1022200061746F72202626202248414C3A3A667229
:10223000616D65427566666572416C6C6F63617451
:102240006F72206E6F7420696E697469616C697A4F
:102250006564212200000000212248414C3A3A5294
:102260004546524553485F53545241544547595F80
:102270005041525449414C5F4652414D45425546AA
:10228000464552206F6E6C7920737570706F727452
:1022900073203136626974206F722032346269743F
:1022A000206672616D656275666665722200000067
:1022B000302026262022556E737570706F727465FB
:1022C00064206269746D617020666F726D61742044
:1022D000696E206765744269744465707468282962
:1022E00022000000000000000000000000000000CC
:1022F00000000000000000000000000000000000DE
:1023000000000000000000000000000000000000CD
:1023100000000000000000000000000000000000BD
:102320000000000000000000F58D01080000000022
:10233000858E00080F3A010833BE00084B9E000846
:10234000739100081B9200084593000803C200081F
:10235000DFC90008000000000000000000000000CD
:1023600000000000D55001080D59010800000000D0
:102370008D5A0108A55D01084D5E010800000000AE
:10238000F78D0108418801080000000000000000EE
:10239000000000000000000000000000000000003D
:1023A000595F010848414C3A3A4652414D455F4217
:1023B00055464645525F5749445448203E203020F8
:1023C0002626202248414C20686173206E6F7420BD
:1023D0006265656E20696E697469616C697A6564AD
:1023E0002079657422000000433A5C6A656E6B696F
:1023F0006E735C776F726B73706163655C4372655B
:1024000061746552656C656173654275696C645C85
:102410006372656174655F72656C656173652D30AB
:102420005C746F7563686766785C6275696C645F1D
:10243000636F6E665C636F72655C636F7274657800
:102440005F6D375C494152382E785C2E2E5C2E2E03
:102450005C2E2E5C2E2E5C6672616D65776F726BE2
:102460005C696E636C7564655C706C6174666F72D8
:102470006D2F6472697665722F6C63642F4C4344D0
:1024800032346270702E687070000000000000002E
:10249000000000000000000000000000000000003C
:1024A000000000000000000000000000000000002C
:1024B000000000000000000000000000000000001C
:1024C000000000000000000000000000000000000C
:1024D00000000000000000000000000000000000FC
:1024E00000000000000000000000000000000000EC
:1024F00000000000000000000000000000000000DC
:1025000000000000000000000000000000000000CB
:1025100000000000000000000000000000000000BB
:1025200000000000000000000000000000000000AB
:10253000000000000000000000000000000000009B
:10254000000000000000000000000000000000008B
:10255000000000000000000000000000000000007B
:10256000000000000000000000000000000000006B
:10257000000000000000000000000000000000005B
:10258000000000000000000000000000000000004B
:10259000000000000000000000000000000000003B
:1025A000000000000000000000000000000000002B
:1025B000000000000000000000000000000000001B
:1025C000000000000000000000000000000000000B
:1025D00000000000000000000000000000000000FB
:1025E00000000000000000000000000000000000EB
:1025F00000000000000000000000000000000000DB
:1026000000000000000000000000000000000000CA
:10261000000000000000000000000000302026261E
:102620002022556E737570706F72746564206269D4
:10263000746D617020666F726D617420666F7220B8
:10264000323462707020646973706C6179220000AA
:10265000433A5C6A656E6B696E735C776F726B731D
:10266000706163655C43726561746552656C656138
:1026700073654275696C645C6372656174655F72F1
:10268000656C656173652D305C746F756368676632
:10269000785C6672616D65776F726B5C736F757273
:1026A00063655C706C6174666F726D5C6472697690
:1026B00065725C6C63645C4C434432346270702EAF
:1026C00063707000302026262022556E737570705E
:1026D0006F72746564206269746D617020666F72D8
:1026E0006D617420696E204C434432343A3A626C16
:1026F0006974436F70792122000000002848414C22
:102700003A3A676574496E7374616E636528292D62
:102710003E6765744672616D655265667265736881
:102720005374726174656779282920213D204841DE
:102730004C3A3A524546524553485F5354524154DD
:102740004547595F5041525449414C5F4652414DB3
:1027500045425546464552292026262022436F7081
:1027600079206672616D6562756666657220726554
:1027700067696F6E20746F206D656D6F7279206967
:1027800073206E6F7420737570706F72746564203F
:10279000696E205061727469616C204672616D656A
:1027A000627566666572206D6F64652122000000A7
:1027B00028626D702E676574466F726D617428298A
:1027C000203D3D206672616D656275666665724684
:1027D0006F726D617428292920262620225468658D
:1027E00020676976656E206269746D61702068612A
:1027F0007320616E20696E76616C696420666F7209
:102800006D6174220000000028626D705F64617465
:102810006120213D20302920262620224E6F206D68
:10282000656D6F727920616C6C6F63617465642093
:10283000666F722074686520676976656E204269EC
:10284000746D6170220000002861627352656374C8
:102850002E696E636C75646573287669735265635F
:10286000742929202626202256697369626C652006
:10287000726567696F6E206D75737420626520697B
:102880006E73696465206162736F6C757465207224
:102890006567696F6E2200003020262620224C38A2
:1028A0005F52474235363520496E6465786564204D
:1028B0004269746D617020666F726D617420697316
:1028C000206E6F7420737570706F72746564206F02
:1028D0006E2032342062697420646973706C61798F
:1028E000732122003020262620224C385F52474296
:1028F00035363520496E6465786564204269746DAB
:10290000617020666F726D6174206973206E6F74E0
:1029100020737570706F72746564206F6E2032342E
:1029200062707020646973706C6179732122000099
:102930002A7265696E746572707265745F63617323
:10294000743C636F6E73742075696E7431365F7496
:102950002A3E28636C75744461746129203D3D20D2
:102960004269746D61703A3A434C55545F464F5218
:102970004D41545F4C385F41524742383838380037
:102980002A7265696E746572707265745F636173D3
:10299000743C636F6E73742075696E7431365F7446
:1029A0002A3E28636C75744461746129203D3D2082
:1029B0004269746D61703A3A434C55545F464F52C8
:1029C0004D41545F4C385F52474238383800000060
:1029D00000000000000000000000000000000000F7
:1029E000DFAA000817B30008959E0008EF9E0008B4
:1029F0000000000000000000E38D01080F9F0008A8
:102A00007F9F0008B98D0108BD8D0108C18D0108A7
:102A1000C58D0108000000002F8E0108CB8D010834
:102A2000CD8D0108CF8D0108A19F00080000000096
:102A3000D18D0108FB8D010800000000E1B2000803
:102A40006269746D61707320213D2030202626203C
:102A5000224269746D6170206461746162617365A2
:102A600020686173206E6F74206265656E20696EE8
:102A7000697469616C697A65642E2200433A5C6A04
:102A8000656E6B696E735C776F726B737061636593
:102A90005C43726561746552656C6561736542750E
:102AA000696C645C6372656174655F72656C6561B5
:102AB00073652D305C746F7563686766785C6275EA
:102AC000696C645F636F6E665C636F72655C636F95
:102AD000727465785F6D375C494152382E785C2E90
:102AE0002E5C2E2E5C2E2E5C2E2E5C6672616D6529
:102AF000776F726B5C696E636C7564655C746F751F
:102B000063686766782F4269746D61702E687070B3
:102B100000000000000000000000000000000000B5
:102B2000000000001DB2000817B30008959E0008C1
:102B3000EF9E00080000000000000000E38D010887
:102B40000F9F00087F9F0008B98D0108BD8D010807
:102B5000C18D0108C58D0108000000002F8E0108FD
:102B6000CB8D0108CD8D0108CF8D0108A19F0008F4
:102B700000000000D18D0108FB8D0108000000005D
:102B8000E1B20008000000000000000000000000AA
:102B900000000000D7AE00081B8E0108959E0008BB
:102BA000EF9E00080000000000000000E38D010817
:102BB0000F9F00087F9F0008B98D0108BD8D010897
:102BC000C18D0108C58D010800000000C98D0108F4
:102BD000CB8D0108CD8D0108CF8D0108A19F000884
:102BE00000000000D18D010800000000000000007E
:102BF00089AD0008EFAD0008A3B000080000000098
:102C000000000000000000000000000093A0000889
:102C100045A30008959E0008EF9E000800000000F4
:102C20000000000013A100080F9F00087F9F00080C
:102C3000B98D0108BD8D0108C18D0108C58D010840
:102C400000000000C98D0108CB8D0108CD8D010861
:102C5000CF8D0108A19F00080000000073A30008A9
:102C6000DD9F000859A000080000000000000000DF
:102C7000000000000000000061A1000859A3000846
:102C80000000000000000000266420213D20746840
:102C90006973202626202243616E6E6F7420616462
:102CA00064204472617761626C6520746F20736583
:102CB0006C662200433A5C6A656E6B696E735C7782
:102CC0006F726B73706163655C43726561746552AA
:102CD000656C656173654275696C645C637265619E
:102CE00074655F72656C656173652D305C746F75BA
:102CF00063686766785C6672616D65776F726B5C3E
:102D0000736F757263655C746F7563686766785C12
:102D1000636F6E7461696E6572735C436F6E74612C
:102D2000696E65722E63707000000000642E706121
:102D300072656E74203D3D2030202626202243619E
:102D40006E6E6F7420616464204472617761626C9E
:102D500065206D756C7469706C652074696D657340
:102D6000220000006865616420213D202664202641
:102D700026202243616E6E6F742061646420447269
:102D8000617761626C65206D756C7469706C65202B
:102D900074696D657322000000000000FFFFFFFFF3
:102DA000FFFFFFFF00000000010000000000000026
:102DB0000000000001000000FFFFFFFFFFFFFFFF1A
:102DC00001000000FFFFFFFFFFFFFFFF0100000009
:102DD00001000000010000000000000000000000F1
:102DE0000000000000000000938801086D880108C1
:102DF000959E0008EF9E0008000000000000000003
:102E0000E38D01080F9F00087F9F0008B98D01081E
:102E1000BD8D0108C18D0108C58D010800000000AD
:102E2000C98D0108CB8D0108CD8D0108CF8D01081A
:102E3000A19F000800000000D18D010800000000E3
:102E40000000000013740108237401083D74010898
:102E5000000000000000000087740108B57401083C
:102E60003020262620224C6F636B46726565444DE8
:102E7000415F5175657565206F766572666C6F7719
:102E800021220000433A5C6A656E6B696E735C7761
:102E90006F726B73706163655C43726561746552D8
:102EA000656C656173654275696C645C63726561CC
:102EB00074655F72656C656173652D305C746F75E8
:102EC00063686766785C6672616D65776F726B5C6C
:102ED000736F757263655C746F7563686766785C41
:102EE00068616C5C444D412E6370700021697345CC
:102EF0006D707479282920262620224C6F636B463A
:102F0000726565444D415F517565756520756E64E8
:102F10006572666C6F772122000000003020262643
:102F20002022444D413A3A657865637574652829D5
:102F300020696E76616C696420426C69744F7022FE
:102F4000000000006269746D61707320213D2030C3
:102F500020262620224269746D61702064617461AC
:102F60006261736520686173206E6F7420626565AD
:102F70006E20696E697469616C697A65642E2200DD
:102F8000433A5C6A656E6B696E735C776F726B73E4
:102F9000706163655C43726561746552656C6561FF
:102FA00073654275696C645C6372656174655F72B8
:102FB000656C656173652D305C746F7563686766F9
:102FC000785C6672616D65776F726B5C736F75723A
:102FD00063655C746F7563686766785C4269746D7D
:102FE00061702E63707000006964203C2042495477
:102FF0004D41505F414E494D4154494F4E5F5354EE
:103000004F524147452026262022496E7465726E34
:10301000616C206572726F722C20617474656D70C2
:1030200074696E6720746F206765742061646472D0
:10303000657373206F6620696E76616C69642069C0
:103040006422000072657320262620224E6F7420B1
:10305000616C6C206269746D61707320636F756C54
:10306000642062652063616368656421220000005A
:1030700030202626202244796E616D6963204269E2
:10308000746D617020437265617465206E6F742089
:10309000737570706F7274656420666F722043552B
:1030A00053544F4D206269746D617020666F726D6C
:1030B00061742200696420213D204249544D4150F1
:1030C0005F494E56414C4944202626202243616EDA
:1030D0006E6F7420636F7079204249544D41505F88
:1030E000494E56414C494422000000006964203C8E
:1030F00020286E756D6265724F664269746D6170ED
:1031000073202B206E756D6265724F6644796E6117
:103110006D69634269746D617073292026262022CF
:10312000496C6C6567616C204269746D61704964BB
:10313000220000002821697344796E616D69634241
:1031400069746D617028696429207C7C2064796EC3
:103150004269746D6170735B6964202D206E756DBA
:103160006265724F664269746D6170735D2E696E3F
:1031700075736529202626202243616E6E6F7420A8
:10318000636F70792066726F6D2064656C6574651D
:10319000642064796E616D6963206269746D617029
:1031A00022000000216269746D61702E67657445AC
:1031B0007874726144617461282920262620224196
:1031C0006C706861206368616E6E656C206E6F74F0
:1031D00020737570706F7274656420666F722064FE
:1031E000796E616D6963206269746D61707322002C
:1031F00030202626202244796E616D696320426961
:10320000746D61702043726561746520436F7079DD
:10321000206E6F7420737570706F727465642066B1
:103220006F7220435553544F4D206269746D617025
:1032300020666F726D61742200000000636C75740B
:1032400053697A65203E203020262620636C7574F1
:1032500053697A65203C3D203235362026262022CF
:1032600050616C657474652073697A65206D75733F
:1032700074206265206265747765656E2031206117
:103280006E64203235362200697344796E616D694F
:10329000634269746D6170286964292026262022A2
:1032A00043616E206F6E6C792066696C6C20647966
:1032B0006E616D6963206269746D617073220000D4
:1032C0006269746D61702E676574466F726D6174AA
:1032D0002829203D3D2048414C3A3A6C6364282916
:1032E0002E6672616D65627566666572466F726D97
:1032F00061742829202626202243616E206F6E6C7F
:10330000792066696C6C206E6174697665206269EB
:10331000746D617020666F726D61747322000000BD
:10332000286373697A65203E202873697A655F6334
:10333000616368655F7461626C6573202B207369DB
:103340007A655F64796E616D69635F6269746D61EE
:10335000705F6461746129292026262022496E73DA
:10336000756666696369656E74206361636865206C
:1033700073746F7261676522000000006964203C0D
:10338000204249544D41505F414E494D4154494FAF
:103390004E5F53544F524147452026262022496E06
:1033A0007465726E616C206572726F722C2061742C
:1033B00074656D7074696E6720746F2067657453EF
:1033C000697A654F664269746D61702077697468C7
:1033D00020696E76616C69642069642200000000D7
:1033E00064617461202626202244796E616D6963D0
:1033F000206269746D6170206C6F737420706978DD
:10340000656C20706F696E7465722200302026260C
:10341000202243616368696E672F44796E616D692C
:1034200063206269746D617073206E6F74207375B0
:1034300070706F7274656420666F722073656C655E
:1034400063746564206269746D617020666F726D6B
:10345000617422003020262620224461746120738A
:10346000697A65206F662042575F524C4520636140
:103470006E6E6F742062652063616C63756C61743D
:103480006564220030202626202243616368696E2D
:1034900067206E6F7420737570706F72746564202E
:1034A000666F722073656C6563746564206269740D
:1034B0006D617020666F726D617422000000000003
:1034C0000000000000000000000000006B8E0108FA
:1034D0006B8E0108959E0008EF9E0008000000001A
:1034E00000000000E38D01080F9F00087F9F000887
:1034F000B98D0108BD8D0108C18D0108C58D010878
:10350000000000002F8E0108CB8D0108CD8D010831
:10351000CF8D0108A19F000800000000D18D010897
:10352000FB8D01080000000000487047C002000841
:1035300002207047020012B2002A05D40901DFF808
:10354000782200B2115408E00901DFF8702200B2BD
:1035500010F00F00104400F8041C704780B5DFF82D
:103560006002006800F0F2FE012801D001F0F6F8D8
:1035700001BD80B500217FF00400FFF7DBFF01BD36
:10358000EFF30580002802D07FF005000AE0DFF8A5
:1035900034120868002803D101200860002001E0EF
:1035A0005FF0FF30704710B5EFF30580002802D0C0
:1035B0007FF005000EE0DFF80C422068012807D1FB
:1035C000FFF7D7FF0220206000F0DDFB002001E0C4
:1035D0005FF0FF3010BDF8B584B000230393EFF324
:1035E0000583002B56D10300002B53D080251823D0
:1035F00000245FF0FF36002A2ED01768002F00D07D
:1036000014689769002F00D09369002B04D0392BE0
:1036100002D21779FF0701D500203CE05769002F3F
:1036200001D05569AD089768002F0AD0D7685C2F84
:1036300007D31769002F04D05769002F01D0012646
:103640000BE09768002F08D1D768002F05D11769C4
:10365000002F02D1002600E00026012E0BD1966833
:1036600002961269019200930B002A00210000F0DB
:1036700039FA03900EE0002E0CD103AA01920093B8
:103680000B002A0092B2210000F06EFA012801D04E
:1036900000200390039805B0F0BD10B5EFF305814D
:1036A000002902D07FF0050404E00024002801D0A6
:1036B00000F043FB200010BD80B501F032FB01009B
:1036C000002902D048680968884701BD2DE9FE43FA
:1036D0000700884691461E000025EFF3058000286C
:1036E0004BD13800002848D0082001F045FB0400E9
:1036F000002C42D02760C4F804905FFA88F8B8F133
:10370000000F01D1002200E001225FF0FF33002012
:10371000002E13D03168002900D03068B16800292C
:1037200004D0F1682C2901D3012308E0B1680029F5
:1037300005D1F168002902D1002300E00023012B0C
:103740000AD1B1680191DFF894130091230001219F
:1037500001F0A6F8050009E0002B07D1DFF87C1383
:1037600000912300012101F080F80500002D04D113
:10377000002C02D0200001F08DFB2800BDE8FE8364
:1037800080B50A00EFF30581002902D07FF0050023
:1037900010E0002802D17FF003000BE0002100912F
:1037A0000023042101F0CCF8012801D1002001E020
:1037B0007FF0020002BD000000E400E018ED00E030
:1037C00010E000E034AD00247CB50E0015000024AC
:1037D000EFF30581002956D1002854D0B04252D3CE
:1037E0005FF0FF32002D0FD0A968002904D0E968EE
:1037F000502901D3012208E0A968002905D1E96810
:10380000002902D1002200E0002212F1010F3AD07B
:10381000012822D1012A09D103200090AB6800229F
:103820000021012001F02DFC040005E0032200210D
:10383000012001F07AFC0400002C1AD0002E18D0D0
:10384000002300220021200001F0E4FC012810D018
:10385000200002F048F800240BE0012A05D1AA68F4
:10386000310001F098FC040003E0310001F0B4FCE9
:103870000400002C07D0002D01D0296800E00021B1
:10388000200002F0FDF8200076BD38B50C000025C0
:10389000002802D17FF003052BE0EFF3058100291A
:1038A0001BD0002C02D07FF0030522E00021009104
:1038B0006A46002101F0C0FF012802D07FF0020516
:1038C00017E00098002814D05FF080506449086029
:1038D000BFF34F8FBFF36F8F0BE0210001F0DFFECE
:1038E000012806D0002C02D07FF0010501E07FF016
:1038F0000205280032BD1CB50024002802D17FF04B
:10390000030422E0EFF30581002915D00021009186
:10391000694601F0BAFD012802D07FF0020414E0EC
:103920000098002811D05FF080504D490860BFF327
:103930004F8FBFF36F8F08E000230022002101F0BA
:1039400069FC012801D07FF00204200016BD7CB57F
:1039500014000025EFF30582002A40D100283ED054
:1039600000293CD05FF0FF33002C1DD0A268002A54
:103970000CD0E268502A09D32269002A06D0626975
:1039800001FB00F6B24201D301230EE0A268002A37
:103990000BD1E268002A08D12269002A05D16269A8
:1039A000002A02D1002300E00023012B07D10022CE
:1039B0000092A368226901F064FB050005E0002B7A
:1039C00003D1002201F0B1FB0500002D07D0002C2F
:1039D00001D0216800E00021280002F051F8280001
:1039E00076BD38B51C000025EFF30582002A1FD0F4
:1039F000002803D0002901D0002C02D07FF003055D
:103A00002AE00022009200236A4601F0CEFC012841
:103A100002D07FF002051FE0009800281CD05FF064
:103A200080500F490860BFF34F8FBFF36F8F13E0D3
:103A3000002801D0002902D17FF003050CE000230B
:103A4000220001F0E7FB012806D0002C02D07FF015
:103A5000010501E07FF00205280032BD00000000F2
:103A600004ED00E038B51C000025EFF30582002AC4
:103A70001FD0002803D0002901D0002C02D07FF0F5
:103A8000030529E0002200926A4601F0D5FE0128D4
:103A900002D07FF002051FE0009800281CD05FF0E4
:103AA0008050DFF83C100860BFF34F8FBFF36F8F7B
:103AB00012E0002801D0002902D17FF003050BE0BD
:103AC000220001F03EFD012806D0002C02D07FF03C
:103AD000010501E07FF00205280032BDB93600087B
:103AE00004ED00E078B585B005000B98002807D1FB
:103AF000502080F31188BFF34F8FBFF36F8FFEE725
:103B00000C9C002C07D1502080F31188BFF34F8FFD
:103B1000BFF36F8FFEE75C260096009E5C2E07D0F9
:103B2000502080F31188BFF34F8FBFF36F8FFEE7F4
:103B3000009E002C13D0002811D02063022084F8AE
:103B4000590000200390029404A801900A98009064
:103B5000280000F042F8200000F0A0F801E000206A
:103B60000490049806B070BD2DE9F84384B00700B6
:103B7000884616009946300080B2800001F0FCF8BB
:103B80000500002D0BD05C2001F0F6F80400002C9D
:103B900001D0256304E0280001F07CF900E0002456
:103BA000002C15D0002084F85900002003900294C6
:103BB0000D9801900C9800904B46B6B232004146E9
:103BC000380000F00AF8200000F068F8012001E059
:103BD0005FF0FF3005B0BDE8F0832DE9F843050044
:103BE0000C00170098460A9EB900A522D6F830901E
:103BF000484601F093FF306B00EB8700071FFF087A
:103C0000FF0017F00700002807D0502080F311882C
:103C1000BFF34F8FBFF36F8FFEE7002C10D0002152
:103C200000E0491C102907D2605C06EB010282F813
:103C30003400605C0028F4D1002086F8430002E0E4
:103C4000002086F83400DDF82090B9F1380F01D358
:103C50005FF03709099CC6F82C90C6F84C900020FC
:103C60003065301D01F09CFF16F1180001F098FF3F
:103C70003661D9F13809C6F818907662002070656F
:103C8000002086F8580042462900380000F0A6FCC3
:103C90003060002C00D02660BDE8F18338B5040008
:103CA00000F02CFDDFF838140868401C0860DFF8CD
:103CB00034542868002806D12C60086801280DD1EA
:103CC00000F0C6FA0AE0DFF820040068002805D1F9
:103CD000E06A2968C96A884200D32C60DFF80C04C6
:103CE0000168491C016000686064DFF80404016831
:103CF000E26A914201D2E16A0160211DDFF8F423FA
:103D0000E36A1420434302EB030001F04CFF00F090
:103D10000FFDDFF8D403006800280DD02868C06AC2
:103D2000E16A884208D25FF08050DFF8F41408603E
:103D3000BFF34F8FBFF36F8F31BD10B5040000206C
:103D4000002C14D0DFF830040068002807D0502081
:103D500080F31188BFF34F8FBFF36F8FFEE700F042
:103D60005DF80021200000F0EDFB00F05DF8002878
:103D700008D15FF08050DFF8A8140860BFF34F8FC0
:103D8000BFF36F8F10BD10B586B0002004900020E7
:103D9000039005AA03A904A801F052FFDFF8D84652
:103DA0000498029003980190002000900023059A47
:103DB000DFF864170FF26D40FFF794FE2060206873
:103DC000002801D0012000E00020012801D100F0EE
:103DD00017FD012817D1502080F31188BFF34F8FB2
:103DE000BFF36F8F5FF0FF30DFF8481708600120E6
:103DF000DFF8F41208600020DFF89413086000F088
:103E000016FC06B010BD10F1010FFAD1502080F35E
:103E10001188BFF34F8FBFF36F8FFEE7DFF85803B2
:103E20000168491C0160704770B500240025DFF867
:103E300048633068002807D1502080F31188BFF311
:103E40004F8FBFF36F8FFEE700F058FC3068401EC5
:103E500030603068002855D1DFF8840200680028FF
:103E600026D14FE0C868C46814F1180001F0C2FE02
:103E7000201D01F0BFFEDFF878020168E26A91427E
:103E800001D2E16A0160211DDFF86822E36A142093
:103E9000434302EB030001F086FEE06ADFF84412C0
:103EA0000968C96A884203D30120DFF88C160860CC
:103EB000DFF8601608680028D4D1002C01D000F08B
:103EC00031FADFF878663468002C0CD000F022F864
:103ED000002803D00120DFF860160860641E002C63
:103EE000F4D100203060DFF850060068002809D0C7
:103EF00001255FF08050DFF828130860BFF34F8F73
:103F0000BFF36F8F00F014FC280070BDDFF8800253
:103F100000687047F8B500259748006800286AD106
:103F2000DFF86C020468641C0460002C1AD1DFF80E
:103F3000181308680068002807D0502080F3118803
:103F4000BFF34F8FBFF36F8FFEE70868DFF8FC22E7
:103F500013680B601060DFF8E8050168491C016018
:103F600000F0E0F9DFF8CC653068844232D326E017
:103F70000868C068C768786884422AD3381D01F091
:103F800039FEB86A002803D017F1180001F032FE9C
:103F900057480168FA6A914201D2F96A0160391DF5
:103FA000544AFB6A1420434302EB030001F0FBFD7B
:103FB000F86A4C490968C96A884200D30125DFF8CC
:103FC0008812086800680028D2D15FF0FF303060A6
:103FD00000E03060434800684649C26A142042430A
:103FE0008858022800D30125DFF84C050068002816
:103FF00006D0012504E0DFF844050168491C016092
:104000002800F2BD10B45C480068002804D00120EC
:10401000DFF8241508602CE00020DFF81C1508608C
:10402000334A106800E0401E1423324C03FB00F1B9
:104030006158002909D10028F5D1502080F311885A
:10404000BFF34F8FBFF36F8FFEE703FB00F304EB6B
:1040500003014B685B684B604B6811F10804A34295
:1040600002D14B685B684B604968C9681D4B196099
:10407000106010BC704710B50C00002807D150200C
:1040800080F31188BFF34F8FBFF36F8FFEE7DFF828
:1040900010150968183101F092FD0121200000F08F
:1040A00051FA10BD38B50D001400002807D150207A
:1040B00080F31188BFF34F8FBFF36F8FFEE7DFF8F8
:1040C000E0140968183101F06EFD002C01D05FF09A
:1040D000FF352100280000F035FA31BD0000000056
:1040E0008CAD00247CAD002498AD0024A8AD002444
:1040F00094AD00248097002410B5C068C468002CDB
:1041000007D1502080F31188BFF34F8FBFF36F8F1B
:10411000FEE714F1180001F06DFD17480068002853
:1041200015D1201D01F066FDDFF878040168E26A10
:10413000914201D2E16A0160211DDFF86C24E36A3B
:104140001420434302EB030001F02DFD05E014F1C0
:104150001801DFF8C00301F026FDDFF84404006811
:10416000C06AE16A884205D201200121DFF8C82334
:10417000116000E0002010BDB4AD0024DFF8C013D2
:1041800009680160DFF82414096841607047000085
:1041900090AD002438B504000D00002C07D150204C
:1041A00080F31188BFF34F8FBFF36F8FFEE7002DB1
:1041B00007D1502080F31188BFF34F8FBFF36F8F6B
:1041C000FEE700F09BFADFF8E40300686168411A3B
:1041D0002A6812F1010F01D1002418E0DFF86023F2
:1041E000126823689A4204D06268904201D3012485
:1041F0000DE02868814207D22868411A2960200012
:10420000FFF7BCFF002402E000202860012400F03A
:104210008FFA200032BD0120DFF81C1308607047C0
:1042200004ED00E080B500F03EF8DFF87C030068A4
:104230000228F8D35FF0805043490860BFF34F8FE6
:10424000BFF36F8FEFE7000080AD002484AD002442
:1042500038B5002408E0DFF85003142101FB04F115
:10426000084401F08EFC641C382CF4D3DFF8404382
:10427000200001F086FCDFF83C53280001F081FCAF
:10428000DFF8900201F07DFCDFF82C0301F079FCEF
:10429000DFF8280301F075FCDFF824030460DFF881
:1042A0002403056031BD38B515E000F027FADFF8CA
:1042B0000803C068C468201D01F09CFCDFF80803F7
:1042C0000168491E01602868401E286000F030FA2D
:1042D000200000F006F8DFF8F45228680028E4D146
:1042E00031BD10B5040094F85900002806D1206BA8
:1042F00000F0D0FD200000F0CDFD10BD94F8590075
:10430000012803D1200000F0C5FDF6E794F859001C
:104310000228F2D0502080F31188BFF34F8FBFF3F3
:104320006F8FFEE7DFF8981208680068002804D154
:104330005FF0FF307F49086005E00868C068C0682A
:1043400040687C490860704704ED00E0DFF88002B7
:104350000068002801D1012007E0DFF8780200683A
:10436000002801D1022000E000207047F8B50400C9
:104370000021002839D0DFF82852E06A2A68D26A82
:1043800090422CD2A069002804D42868C06AD0F1D9
:104390003800A061DFF8106214276069E16A794390
:1043A0003144884216D1201D01F024FC2868C06ADF
:1043B000E062DFF8F0010168E26A914201D2E16A4D
:1043C0000160211DE06A07FB00F706EB070001F022
:1043D000EAFB02E02868C06AE062012105E0E06CC7
:1043E0002A68D26A904200D201210800F2BD10B5BD
:1043F0000400002100283DD0DFF8A40100688442B9
:1044000007D0502080F31188BFF34F8FBFF36F8F19
:10441000FEE7206D002807D1502080F31188BFF3FC
:104420004F8FBFF36F8FFEE7206D401E2065E06A5F
:10443000E26C90421ED0206D00281BD1201D01F09F
:10444000D9FBE06CE062E06AD0F13800A061DFF8EF
:1044500054010168E26A914201D2E16A0160211DC2
:10446000DFF84421E36A1420434302EB030001F028
:104470009AFB0121080010BDB0AD002470B5040006
:104480000122002844D0206D002807D1502080F35D
:104490001188BFF34F8FBFF36F8FFEE7E06C884248
:1044A00000D3E16CE06A884232D0206D90422FD177
:1044B000DFF8EC000068844207D1502080F31188B7
:1044C000BFF34F8FBFF36F8FFEE7E06AE162A2692F
:1044D000002A02D4D1F13801A161DFF8CC501426B2
:1044E000616970432844814212D1201D01F082FB92
:1044F000DFF8B0000168E26A914201D2E16A01602E
:10450000211DE06A06FB00F605EB060001F04BFBFF
:1045100070BD0000A4AC002414130008DFF8801064
:104520000868002803D00868026D521C02650868FC
:1045300070470000ACAD0024A0AD00249CAD002469
:10454000A4AD0024F8B505000C0018480668144F07
:104550003868001D01F04EFB15F1010F07D1002C4A
:1045600005D03868011D154801F01DFB16E0AD1996
:1045700038684560B54206D23868011D11480068A8
:1045800001F01DFB0AE03868011D0D48006801F0CC
:1045900016FB114801688D4200D20560F1BD000094
:1045A0007CAD002494AD00248097002490AD0024BD
:1045B0007CAC002490AC0024B8AC0024CCAC00242B
:1045C00080AD002484AD00248CAD002488AD00248F
:1045D00098AD0024B4AD0024ACAD0024001F5FF002
:1045E00080730360001F490849000160001F0FF23B
:1045F0001501016014380260001F7FF002010160A4
:10460000203870477248006810F1010F07D0502021
:1046100080F31188BFF34F8FBFF36F8FFEE75020F9
:1046200080F31188BFF34F8FBFF36F8FFEE7E0B5C4
:1046300068480168684A914207D1502080F3118888
:10464000BFF34F8FBFF36F8FFEE700686349884267
:1046500007D1502080F31188BFF34F8FBFF36F8FC6
:10466000FEE75F4801780191FF21017001788DF824
:1046700000109DF8001011F050015A4A11705A496B
:1046800007220A6007E00A68521E0A609DF80020AF
:1046900052008DF800209DF800201206F3D40A681D
:1046A000D2F10702042A07D0502080F31188BFF30B
:1046B0004F8FBFF36F8FFEE70A6812020A600A6825
:1046C00012F4E0620A60019901704848016851F4EF
:1046D00070010160016851F07041016001F0BCFAA5
:1046E00000203B49086001F01BFB4148016851F084
:1046F0004041016001F004FB00200EBD502080F31A
:104700001188BFF34F8FBFF36F8F31490A68521C76
:104710000A60096801290AD136490968090606D0E4
:1047200080F31188BFF34F8FBFF36F8FFEE77047A1
:1047300027490868002807D1502080F31188BFF36B
:104740004F8FBFF36F8FFEE70868401E0860086850
:10475000002802D1002080F31188704780B55020D6
:1047600080F31188BFF34F8FBFF36F8FFFF7D2FB3A
:10477000002803D05FF080501E490860002080F3BD
:10478000118801BDEFF3058010280FD31A4909687D
:10479000085C14490978C0B2884207D2502080F3DF
:1047A0001188BFF34F8FBFF36F8FFEE70E4800688D
:1047B0001249096811F4E061884207D2502080F361
:1047C0001188BFF34F8FBFF36F8FFEE77047000074
:1047D0003400002400ED00E071C20F4170C20F41AF
:1047E00000E400E0FAAD002464AD002420ED00E018
:1047F00034EF00E004ED00E0AC0E00080CED00E04A
:1048000038B586B0002400F066FADFF83C05006891
:1048100000281DD0002004900020039005AA03A9C1
:1048200004A801F08BFADFF824550498029003984D
:104830000190022000900023059ADFF814150FF272
:10484000D110FFF74FF928602868002800D0012414
:10485000002C07D1502080F31188BFF34F8FBFF396
:104860006F8FFEE7200007B030BD2DE9FC41050049
:104870000E00170098462C2000F07EFA0400002C51
:104880000BD0002084F8280001940898009043463B
:104890003A003100280000F029F82000BDE8F68138
:1048A0003EB52C240094009C2C2C07D0502080F383
:1048B0001188BFF34F8FBFF36F8FFEE7079C009DFA
:1048C000002C07D1502080F31188BFF34F8FBFF326
:1048D0006F8FFEE7002C07D0022584F82850019442
:1048E000069D009500F002F820003EBD2DE9F8433A
:1048F00007000E0015009846002E07D1502080F3C7
:104900001188BFF34F8FBFF36F8FFEE7099C002C18
:1049100014D0DDF8209000F0DEF92760A661C4F81D
:104920001C80C4F82090201D01F03AF9002D05D01C
:1049300094F8280050F0040084F82800BDE8F183C2
:104940007FB504001D000020002C07D1502080F30B
:104950001188BFF34F8FBFF36F8FFEE7DFF8E86377
:104960003368002B1CD0009101920294062911DAC1
:10497000FFF7ECFC022806D1089A0023694630684C
:1049800000F048FC0CE0002300226946306800F08B
:1049900041FC05E000232A006946306800F005FD6F
:1049A00004B070BD7CB504000D00DFF8A8030068FA
:1049B000C068C668301D01F01DF996F82800400750
:1049C0001BD523002A00B1690919300000F08CF8CA
:1049D000002818D000200090002322000021300081
:1049E000FFF7AEFF002807D1502080F31188BFF3F6
:1049F0004F8FBFF36F8FFEE705E096F8280010F0A9
:104A0000FE0086F828003000316A884773BD000038
:104A100080B5684600F041F8009900F003F800F016
:104A200082F8F6E77CB505000C00FFF7F7F9684659
:104A300000F046F80600009800282BD1002C08D181
:104A4000AE4206D3FFF7F0F931002800FFF7AAFFC6
:104A500022E0002C08D0DFF800030068006800287E
:104A600001D1012400E000242200AD1B2900DFF861
:104A7000D802006801F02CF8FFF7D6F900280BD116
:104A80005FF08050DFF8D4120860BFF34F8FBFF3A0
:104A90006F8F01E0FFF7C8F973BDDFF8B822116826
:104AA0000968002901D1012100E0002101600068AE
:104AB000002803D11068C068006800E0002070473B
:104AC00070B50400FFF722FA0500DFF89462306841
:104AD000854204D200F0C5F80120206001E00020EA
:104AE00020603560280070BD10B500244160006171
:104AF0008A420BD3D21A81698A4201D3012410E081
:104B0000011D9548006801F05AF80AE09A4203D264
:104B1000994201D3012404E0011D8E48006801F090
:104B20004EF8200010BD10B586B0FFE7002201A9A5
:104B30008548006800F005FD002800F0908001988D
:104B400000280ED502AA002A07D1502080F3118830
:104B5000BFF34F8FBFF36F8FFEE791685068126805
:104B6000904701980028E1D4039C6069002802D096
:104B7000201D01F03FF805A8FFF7A2FF02000198F1
:104B800000280ED002280CD00BD304283AD032D300
:104B9000062806D053D308282DD002D3092831D0B7
:104BA0005CE094F8280050F0010084F82800029B93
:104BB0000299A06941182000FFF796FF0028B5D0A0
:104BC0002000216A884794F828004007AED50020CD
:104BD00000900023029AA069821800212000FFF7AC
:104BE000AFFE0028A2D1502080F31188BFF34F8F71
:104BF000BFF36F8FFEE794F8280010F0FE0084F8F2
:104C0000280093E794F8280050F0010084F8280069
:104C10000298A061A069002809D013001000A169C2
:104C20008A18110002002000FFF75EFF7EE7502087
:104C300080F31188BFF34F8FBFF36F8FFEE794F8B7
:104C40002800800703D4200000F024F905E094F840
:104C5000280010F0FE0084F8280067E766E706B039
:104C600010BD7CB505E070603661311D206800F034
:104C7000A6FF384C20680068002826D02068C0684D
:104C800005682068C068C668301D00F0B3FF3000BA
:104C9000316A884796F828004007EAD5B06940197C
:104CA0008542E0D30020009000232A00002130003C
:104CB000FFF746FE002800D0DBE7502080F3118884
:104CC000BFF34F8FBFF36F8FFEE7206822490A685A
:104CD0002260086073BD7CB5FFF710FD1A4C206898
:104CE00000281BD11F4D280000F04BFF1E4E300046
:104CF00000F047FF17480560174806600020009045
:104D00001A4B1B4A10210A2000F0BBF920602068D2
:104D1000002803D01749206800F0B2FEFFF708FD15
:104D200073BD10B50400002807D1502080F311880E
:104D3000BFF34F8FBFF36F8FFEE7FFF7DFFCE46930
:104D4000FFF7F6FC200010BDCCAD0024D0AD002450
:104D5000BC140008C4AD0024C8AD002404ED00E07C
:104D6000D4AD0024E0AC0024F4AC002484A90024D9
:104D7000A0A50024C41400082DE9F8430400002570
:104D8000FFF74CF8DFF84492D9F80000002801D171
:104D900000F0BDF88E4F386804426AD1002C15D05F
:104DA0008C480068041914F0070F0FD014F10800A4
:104DB00014F00704041B14F0070F07D0502080F3F1
:104DC0001188BFF34F8FBFF36F8FFEE7002C50D0D9
:104DD000DFF80482D8F80000A0424AD37F480100DF
:104DE000066801E0310036687068A04202D230687F
:104DF0000028F7D1D9F8000086423AD075480A68F1
:104E0000036802EB030532680A60006840007168BD
:104E1000091B884214D206EB040111F00700002898
:104E200007D0502080F31188BFF34F8FBFF36F8FEF
:104E3000FEE77068001B48607460080000F096F898
:104E4000D8F800107068091AC8F800106448D8F83B
:104E500000100268914202D2D8F800100160716817
:104E6000386801437160002030605E480168491C69
:104E70000160FEF7D9FF15F00700002807D0502089
:104E800080F31188BFF34F8FBFF36F8FFEE72800C9
:104E9000BDE8F28310B50100002837D04D48006806
:104EA000404201EB00044A4960680A68104207D199
:104EB000502080F31188BFF34F8FBFF36F8FFEE751
:104EC0002068002807D0502080F31188BFF34F8F4F
:104ED000BFF36F8FFEE760680A68104216D0206843
:104EE000002813D16268086882436260FEF796FF6B
:104EF00039490A68606882180A60200000F036F8B4
:104F000039480168491C0160FEF78EFF10BD10B4DE
:104F10004FF400423548010011F0070F04D0C91DBD
:104F2000C908C900521A82182C4801600023436046
:104F3000521828480068121AD208D200234802608A
:104F4000002304686360002304682360521A4A60E7
:104F5000006808604868224A106048681E49086076
:104F60005FF000401A49086010BC704710B41B4A3B
:104F700000E0126811688142FBD3110053681944A4
:104F8000814204D15168406841185160100001000D
:104F9000436819441368994210D10C4913680C688E
:104FA000A34208D0436811684968CB184360116870
:104FB0000968016004E00968016001E011680160AE
:104FC000824200D0106010BC7047000038AD002451
:104FD0004CAD0024440D00083CAD002424AD002459
:104FE00040AD002444AD002448AD002460010024FD
:104FF00038B504000D00002C07D1502080F3118833
:10500000BFF34F8FBFF36F8FFEE7FFF777FB21688A
:10501000E26B206C424301EB0200A0600020A06321
:10502000206860602168E26B521E206C424301EBF5
:105030000200E0605FF0FF3084F8440084F845002F
:10504000002D12D12069002817D014F11000FFF7AD
:1050500053F8002811D05FF08050DFF8D8170860AF
:10506000BFF34F8FBFF36F8F07E014F1100000F014
:1050700088FD14F1240000F084FDFFF759FB0120A6
:1050800032BD38B51C00002807D1502080F31188AC
:10509000BFF34F8FBFF36F8FFEE7002C07D1502077
:1050A00080F31188BFF34F8FBFF36F8FFEE7002AA5
:1050B00001D0002901D0012300E00023DBB2002B46
:1050C00007D1502080F31188BFF34F8FBFF36F8F4C
:1050D000FEE7002A01D1002901D1012300E00023CD
:1050E000DBB2002B07D1502080F31188BFF34F8F24
:1050F000BFF36F8FFEE750230093009B502B07D028
:10510000502080F31188BFF34F8FBFF36F8FFEE7FE
:10511000009B002C07D0049B012584F84650009486
:10512000DBB200F027F8200032BDF8B505000E0014
:105130001700002D07D1502080F31188BFF34F8F47
:10514000BFF36F8FFEE706FB05F05030FFF714FE4C
:105150000400002C0CD0200010F15002002084F834
:10516000460000943B00DBB23100280000F002F85A
:105170002000F2BD38B51C00049D002901D12D602E
:1051800000E02A60E863296401212800FFF730FF6E
:1051900085F84C4031BD1CB50C001300002807D128
:1051A000502080F31188BFF34F8FBFF36F8FFEE75E
:1051B000A04207D2502080F31188BFF34F8FBFF376
:1051C0006F8FFEE70221009100220021FFF759FFB7
:1051D000002800D0846316BD10B50C00002807D14C
:1051E000502080F31188BFF34F8FBFF36F8FFEE71E
:1051F000A04207D2502080F31188BFF34F8FBFF336
:105200006F8FFEE702220021FFF78FFF002800D0FA
:10521000846310BDF7B505000E001F000024002DAB
:1052200007D1502080F31188BFF34F8FBFF36F8FEA
:10523000FEE7002E02D1286C002801D1012000E0F9
:105240000020C0B2002807D1502080F31188BFF39E
:105250004F8FBFF36F8FFEE7022F02D1E86B01285B
:1052600001D1012000E00020C0B2002807D1502069
:1052700080F31188BFF34F8FBFF36F8FFEE7FFF707
:1052800065F8002802D10298002801D1012000E031
:105290000020C0B2002838D1502080F31188BFF31D
:1052A0004F8FBFF36F8FFEE7029800285CD0002C71
:1052B00003D16846FEF762FF0124FFF739FAFEF7D3
:1052C000ADFDFFF71BFA95F9440010F1010F02D173
:1052D000002085F8440095F9450010F1010F02D136
:1052E000002085F84500FFF723FA02A96846FEF77B
:1052F00051FF002852D1280000F0B3FB002837D11D
:10530000280000F069FBFEF78FFDFFF7F7F9A86BA7
:10531000E96B884201D3022FC6D13A003100280040
:1053200000F002FB696A00290FD015F12400FEF796
:10533000E3FE002814D05FF08050DFF8F814086016
:10534000BFF34F8FBFF36F8F0AE0002808D05FF0E4
:105350008050DFF8E0140860BFF34F8FBFF36F8F0A
:10536000FFF7E6F901201FE0FFF7E2F900201BE05C
:10537000029915F11000FEF77EFE280000F02CFBCC
:10538000FEF752FD0028C0D15FF08050DFF8A41472
:105390000860BFF34F8FBFF36F8FB6E7280000F0B0
:1053A0001BFBFEF741FD0020FEBD2DE9F843050083
:1053B0000E0014009846002D07D1502080F311886C
:1053C000BFF34F8FBFF36F8FFEE7002E02D1286C23
:1053D000002801D1012000E00020C0B2002807D140
:1053E000502080F31188BFF34F8FBFF36F8FFEE71C
:1053F000B8F1020F02D1E86B012801D1012000E0D1
:105400000020C0B2002807D1502080F31188BFF3DC
:105410004F8FBFF36F8FFEE7FFF7B4F9EFF31187FC
:10542000502080F31188BFF34F8FBFF36F8FA86BAD
:10543000E96B884202D3B8F1020F21D195F945906A
:10544000A86B42463100280000F06EFA48465FF033
:10545000FF3140B288420DD1686A002809D015F1A9
:105460002400FEF749FE002803D0002C01D00120C3
:10547000206003E019F1010985F84590012000E062
:10548000002087F31188BDE8F28370B505000C0099
:10549000002D07D1502080F31188BFF34F8FBFF349
:1054A0006F8FFEE7286C002807D0502080F311880A
:1054B000BFF34F8FBFF36F8FFEE72868002802D13C
:1054C000A868002801D1012000E00020C0B2002817
:1054D00007D1502080F31188BFF34F8FBFF36F8F38
:1054E000FEE7FFF74FF9EFF31186502080F31188A4
:1054F000BFF34F8FBFF36F8FA86BE96B88421CD24D
:1055000095F94510401CA86308005FF0FF3240B2D7
:1055100090420DD1686A00280DD015F12400FEF7E5
:10552000EBFD002807D0002C05D00120206002E010
:10553000491C85F84510012000E0002086F3118801
:1055400070BDF7B506000F000024002E07D15020D3
:1055500080F31188BFF34F8FBFF36F8FFEE7002FEB
:1055600002D1306C002801D1012000E00020C0B23F
:10557000002807D1502080F31188BFF34F8FBFF36D
:105580006F8FFEE7FEF7E2FE002802D102980028A6
:1055900001D1012000E00020C0B200280CD1502031
:1055A00080F31188BFF34F8FBFF36F8FFEE730009A
:1055B00000F012FAFEF738FCFFF7A0F8B56B002DEB
:1055C00041D1029800285AD0002C03D16846FEF73A
:1055D000D5FD0124FFF7ACF8FEF720FCFFF78EF8AD
:1055E00096F9440010F1010F02D1002086F8440022
:1055F00096F9450010F1010F02D1002086F8450010
:10560000FFF796F802A96846FEF7C4FD00283AD1D4
:10561000300000F018FA0028C9D0029916F12400D1
:10562000FEF729FD300000F0D7F9FEF7FDFB00285A
:10563000C2D15FF08050DFF8FC110860BFF34F8FDC
:10564000BFF36F8FB8E73900300000F0B0F96D1E7E
:10565000B563306900280ED016F11000FEF74CFD3E
:10566000002808D05FF08050DFF8C8110860BFF351
:105670004F8FBFF36F8FFFF75BF801200EE0FFF74E
:1056800057F800200AE0300000F0A6F9FEF7CCFB46
:10569000300000F0D8F900288ED00020FEBD73B590
:1056A00082B0060000240025002E07D1502080F390
:1056B0001188BFF34F8FBFF36F8FFEE7306C002868
:1056C00007D0502080F31188BFF34F8FBFF36F8F47
:1056D000FEE7FEF73BFE002802D10398002801D127
:1056E000012000E00020C0B200280CD1502080F33F
:1056F0001188BFF34F8FBFF36F8FFEE7300000F0CC
:105700006BF9FEF791FBFEF7F9FFB06B00284BD168
:105710000398002865D0002C03D16846FEF72EFDC3
:105720000124FFF705F8FEF779FBFEF7E7FF96F98E
:10573000440010F1010F02D1002086F8440096F9D0
:10574000450010F1010F02D1002086F84500FEF758
:10575000EFFF03A96846FEF71DFD00284FD130007A
:1057600000F071F90028C9D03068002807D1FEF791
:10577000C5FFB068FEF7FAFD0500FEF7D9FF0399F3
:1057800016F12400FEF777FC300000F025F9FEF753
:105790004BFB0028B7D15FF0805026490860BFF36B
:1057A0004F8FBFF36F8FAEE7401EB06330680028A5
:1057B00002D1FEF7B3FEB060306900280DD016F1BB
:1057C0001000FEF799FC002807D05FF080501949BF
:1057D0000860BFF34F8FBFF36F8FFEF7A9FF012063
:1057E00026E0002D07D0502080F31188BFF34F8FA3
:1057F000BFF36F8FFEE7FEF79BFF002018E030003D
:1058000000F0EAF8FEF710FB300000F01CF9002869
:105810003FF479AF002D0AD0FEF770FF300000F0A2
:1058200079F80100B068FEF729FEFEF781FF00203D
:1058300004B070BD04ED00E02DE9F84305000E0052
:105840001400002D07D1502080F31188BFF34F8F33
:10585000BFF36F8FFEE7002E02D1286C002801D124
:10586000012000E00020C0B2002807D1502080F3C2
:105870001188BFF34F8FBFF36F8FFEE7FEF782FFF4
:10588000EFF31188502080F31188BFF34F8FBFF3DF
:105890006F8FAF6B002F21D095F944903100280015
:1058A00000F085F87F1EAF6348465FF0FF3140B2DD
:1058B00088420DD1286900280ED015F11000FEF79E
:1058C0001BFC002808D0002C06D00120206003E03B
:1058D00019F1010985F84490012000E0002088F3C7
:1058E0001188BDE8F28310B50400002C07D15020C8
:1058F00080F31188BFF34F8FBFF36F8FFEE7200057
:1059000000F0D0F894F84600002802D12000FFF7FC
:10591000C1FA10BD416A002904D0006B0068D0F1C3
:10592000380000E0002070472DE9F0410600150026
:105930000027B46B306C002809D13068002831D1C1
:10594000B068FEF754FD07000020B0602AE0002D8B
:105950000FD1326C7568280000F0FCF97068316C6A
:10596000084470607068B16888421BD3306870600A
:1059700018E0326CD6F80C80404600F0EBF9F06885
:10598000316C49420844F060F0683168884204D2C2
:10599000B068316C49420844F060022D02D1002CFD
:1059A00000D0641E641CB4633800BDE8F08110B5FB
:1059B0000C00016C00290ED0C168026C1144C1605A
:1059C000C1688268914201D30168C160026CC168FC
:1059D000200000F0BFF910BD70B50400FEF78EFE88
:1059E00094F9455008E014F12400FEF785FB0028E7
:1059F00001D0FEF710FC6D1E280040B2012802DB2A
:105A0000606A0028EFD15FF0FF3584F84550FEF75B
:105A10008FFEFEF773FE94F9446008E014F1100065
:105A2000FEF76AFB002801D0FEF7F5FB761E30007A
:105A300040B2012802DB20690028EFD184F84450ED
:105A4000FEF776FE70BD10B50400FEF757FEA06BA2
:105A5000002801D1012400E00024FEF769FE2000A7
:105A600010BD10B50400FEF749FEA06BE16B884243
:105A700001D1012400E00024FEF75AFE200010BDF1
:105A800010B4002300E05B1C082B09D20F4C54F823
:105A90003320002AF7D144F8331004EBC3014860E7
:105AA00010BC7047002100E0491C08290CD2074AAD
:105AB00002EBC1035B688342F6D1002042F831005B
:105AC000002002EBC10148607047000008AB0024D1
:105AD00070B504000D001600FEF710FE94F94400A6
