:020000040800F2
:10000000F8BF0024F5930108619C0108639C010876
:10001000659C0108679C0108699C010800000000BC
:10002000000000000000000000000000BD5D0008AE
:100030006B9C010800000000655D00087135000838
:10004000D7A10108DBA10108DFA10108E3A1010894
:10005000E7A10108EBA10108EFA10108F3A1010844
:100060006D9C0108F7A10108FBA10108FFA101088F
:1000700003A2010807A201080BA201080FA20108B0
:1000800013A2010817A201081BA201081FA2010860
:1000900023A2010827A201082BA201082FA2010810
:1000A00033A2010837A201083BA201083FA20108C0
:1000B00043A2010847A201084BA201084FA2010870
:1000C00053A2010857A201085BA201085FA2010820
:1000D00063A2010867A201086BA201086FA20108D0
:1000E00073A2010877A201087BA201087FA2010880
:1000F00083A2010887A201088BA201088FA2010830
:1001000093A2010897A201089BA201089FA20108DF
:10011000A3A20108A7A20108779C0108ABA20108CD
:10012000AFA20108B3A20108B7A20108BBA201084F
:10013000BFA201080000000000000000C3A20108E7
:10014000C7A20108CBA20108CFA20108D3A20108CF
:10015000D7A20108DBA20108DFA20108E3A201087F
:10016000E7A20108EBA20108EFA20108F3A201082F
:10017000F7A20108FBA20108FFA2010803A30108DE
:1001800007A301080BA301080FA3010813A301088B
:1001900017A301081BA301081FA3010823A301083B
:1001A000819C010827A301088B9C01082BA301084F
:1001B000959C01082FA3010833A3010837A3010868
:1001C0003BA301083FA3010800000000000000005D
:1001D000000000000000000043A301080000000030
:1001E000000000000000000000000000000000000F
:1001F000000000000000000047A301084BA3010815
:100200004FA3010853A301080000000057A30108F1
:100210005BA301085FA3010863A3010867A30108AA
:100220006BA301086FA3010873A30108000000007D
:1002300077A301087BA30108000000007FA3010849
:1002400083A3010887A301088BA301088FA30108DA
:1002500093A3010897A301089BA301089FA301088A
:10026000A3A30108A7A30108ABA30108AFA301083A
:10027000B3A30108B7A30108BBA301080000000055
:10028000BFA30108C3A3010800000000C7A3010821
:1002900000000000CBA30108CFA30108D3A30108ED
:1002A000D7A30108DBA30108DFA3010800000000B9
:1002B000000000000000000000000000000000003E
:1002C00000000090000000003C003C000D000B000E
:1002D0002200244040380090000000003C003C0018
:1002E0000D000B0022002440000000000000000070
:1002F00000000000000000007479706564546578A7
:10030000747320213D2030202626202254797065E8
:1003100064546578742064617461626173652068F7
:100320006173206E6F74206265656E20696E6974FA
:1003300069616C697A65642E22000000443A5C3978
:10034000395F50726F6A6563745C4769744875629F
:100350005C546F7563684746585C4D794170706CAA
:1003600069636174696F6E5C455741524D2F2E2E43
:100370002F4D6964646C6577617265732F53542FD8
:10038000746F7563686766782F6672616D65776FE5
:10039000726B2F696E636C7564655C746F756368EE
:1003A0006766782F5479706564546578742E687028
:1003B0007000000074797065645465787449642035
:1003C0003C206E756D6265724F6654797065645439
:1003D00065787473202626202274797065645465CC
:1003E00078744964206C6172676572207468616E0C
:1003F000206E756D6265724F6654797065645465E0
:100400007874732E2200000000000000000000003D
:10041000717F0008E7870008F7870008278E00082B
:1004200009A10108CDA001080000000000000000A3
:1004300000000000000000000000000000000000BC
:10044000837F0008AB7F00083B89000800000000A4
:1004500000000000636A000800000000C5BC00083E
:10046000CB75000809BF00087DA101088BA1010818
:100470000000000000000000717F0008E78700080E
:10048000F7870008278E000807880008CDA001081C
:10049000000000000000000000000000000000005C
:1004A0000000000000000000837F0008AB7F000810
:1004B0003B89000800000000000000000000000070
:1004C000000000005DA10108A76200080000000014
:1004D00000000000717F0008E7870008F787000828
:1004E000278E000807880008CDA001080000000042
:1004F00000000000000000000000000000000000FC
:1005000000000000837F0008AB7F00083B890008E3
:100510000000000000000000577E000800000000FE
:100520003F9C0008CB75000809BF00087DA10108A9
:100530008BA1010873697A656F66285363726565DC
:100540006E5479706529203C3D20686561702E737A
:10055000637265656E53746F726167652E656C6555
:100560006D656E745F73697A6528292026262022BE
:100570005669657720616C6C6F636174696F6E207A
:100580006572726F723A20436865636B20746861AC
:100590007420616C6C2076696577732061726520C8
:1005A000616464656420746F2046726F6E74656E5A
:1005B00064486561703A3A56696577547970657335
:1005C00022000000443A5C39395F50726F6A6563FB
:1005D000745C4769744875625C546F75636847461C
:1005E000585C4D794170706C69636174696F6E5CC1
:1005F000455741524D2F2E2E2F4D6964646C6577FF
:10060000617265732F53542F746F756368676678D2
:100610002F6672616D65776F726B2F696E636C7593
:1006200064655C6D76702F4D56504170706C6963D7
:100630006174696F6E2E68707000000073697A656E
:100640006F662850726573656E7465725479706553
:1006500029203C3D20686561702E70726573656E5F
:1006600074657253746F726167652E656C656D6534
:100670006E745F73697A65282920262620225072BD
:100680006573656E74657220616C6C6F636174690B
:100690006F6E206572726F723A20436865636B20DB
:1006A0007468617420616C6C2070726573656E741F
:1006B0006572732061726520616464656420746F83
:1006C0002046726F6E74656E64486561703A3A5088
:1006D000726573656E74657254797065732200007B
:1006E00073697A656F66285472616E7354797065A8
:1006F00029203C3D20686561702E7472616E7369BB
:1007000074696F6E53746F726167652E656C656D89
:10071000656E745F73697A65282920262620225425
:1007200072616E736974696F6E20616C6C6F636166
:1007300074696F6E206572726F723A2043686563E8
:100740006B207468617420616C6C207472616E73CC
:100750006974696F6E732061726520616464656499
:1007600020746F2046726F6E74656E6448656170A8
:100770003A3A5472616E736974696F6E5479706538
:1007800073220000000000000000000000000000D4
:10079000000000003DA10108000000000000000072
:1007A00000000000ABAA000800000000C1BD000866
:1007B0009DBE00080DBF00087DA101088BA10108A6
:1007C0006DBF000853B4000873697A656F662853DB
:1007D000637265656E5479706529203C3D206865BB
:1007E00061702E73637265656E53746F72616765B5
:1007F0002E656C656D656E745F73697A6528292056
:10080000262620225669657720616C6C6F636174BF
:10081000696F6E206572726F723A20436865636B10
:10082000207468617420616C6C2076696577732030
:1008300061726520616464656420746F2046726F24
:100840006E74656E64486561703A3A5669657754AE
:100850007970657322000000443A5C39395F507248
:100860006F6A6563745C4769744875625C546F7540
:1008700063684746585C4D794170706C6963617478
:10088000696F6E5C455741524D2F2E2E2F4D696476
:10089000646C6577617265732F53542F746F756341
:1008A000686766782F6672616D65776F726B2F6906
:1008B0006E636C7564655C6D76702F4D565041703B
:1008C000706C69636174696F6E2E687070000000EF
:1008D00073697A656F662850726573656E746572A8
:1008E0005479706529203C3D20686561702E7072D6
:1008F0006573656E74657253746F726167652E659A
:100900006C656D656E745F73697A6528292026268B
:10091000202250726573656E74657220616C6C6F15
:10092000636174696F6E206572726F723A204368FA
:1009300065636B207468617420616C6C20707265F3
:1009400073656E746572732061726520616464659D
:100950006420746F2046726F6E74656E64486561C2
:10096000703A3A50726573656E7465725479706549
:100970007322000073697A656F66285472616E7322
:100980005479706529203C3D20686561702E747231
:10099000616E736974696F6E53746F726167652EEF
:1009A000656C656D656E745F73697A6528292026AC
:1009B0002620225472616E736974696F6E20616CB7
:1009C0006C6F636174696F6E206572726F723A202A
:1009D000436865636B207468617420616C6C20747B
:1009E00072616E736974696F6E73206172652061E4
:1009F0006464656420746F2046726F6E74656E6403
:100A0000486561703A3A5472616E736974696F6EC9
:100A1000547970657322000000000000000000009F
:100A200000000000000000001DA1010800000000FF
:100A300000000000000000006BA90008000000009A
:100A400011BC000875BE0008C5BE00087DA10108E4
:100A50008BA1010851BF00083BAE000873697A659D
:100A60006F662853637265656E5479706529203C02
:100A70003D20686561702E73637265656E53746F97
:100A8000726167652E656C656D656E745F73697AFA
:100A900065282920262620225669657720616C6CFE
:100AA0006F636174696F6E206572726F723A204372
:100AB0006865636B207468617420616C6C20766972
:100AC0006577732061726520616464656420746F6A
:100AD0002046726F6E74656E64486561703A3A566E
:100AE000696577547970657322000000443A5C3977
:100AF000395F50726F6A6563745C476974487562E8
:100B00005C546F7563684746585C4D794170706CF2
:100B100069636174696F6E5C455741524D2F2E2E8B
:100B20002F4D6964646C6577617265732F53542F20
:100B3000746F7563686766782F6672616D65776F2D
:100B4000726B2F696E636C7564655C6D76702F4D8A
:100B500056504170706C69636174696F6E2E687075
:100B60007000000073697A656F662850726573655E
:100B70006E7465725479706529203C3D206865610A
:100B8000702E70726573656E74657253746F7261E6
:100B900067652E656C656D656E745F73697A65282F
:100BA00029202626202250726573656E7465722096
:100BB000616C6C6F636174696F6E206572726F72C5
:100BC0003A20436865636B207468617420616C6CC3
:100BD0002070726573656E74657273206172652032
:100BE000616464656420746F2046726F6E74656E14
:100BF00064486561703A3A50726573656E746572E7
:100C0000547970657322000073697A656F662854A1
:100C100072616E735479706529203C3D206865616E
:100C2000702E7472616E736974696F6E53746F7233
:100C30006167652E656C656D656E745F73697A6555
:100C4000282920262620225472616E736974696FE8
:100C50006E20616C6C6F636174696F6E2065727277
:100C60006F723A20436865636B2074686174206119
:100C70006C6C207472616E736974696F6E7320613D
:100C8000726520616464656420746F2046726F6EC3
:100C900074656E64486561703A3A5472616E736946
:100CA00074696F6E54797065732200000000000053
:100CB00000000000200000000100000020000000F3
:100CC000010000001C000000010000001C000000EA
:100CD00001000000635F000800000000A35F00083F
:100CE00000000000E35F00080000000000000000BA
:100CF00000000000000000000000000047B90008EC
:100D0000F35C0008B1A00108B5A0010800000000D4
:100D10005160000800000000DD6900080769000854
:100D2000B9A00108D35E0008BDA00108C5A0010854
:100D3000FBA90008936900088FA1010893A101088D
:100D4000E5A900080800000064656661756C7454CC
:100D500061736B004755495F5461736B000000007D
:100D6000480D000800000000000000000000000026
:100D70000000000000020000180000000000000059
:100D800000000000540D00080000000000000000FA
:100D900000000000000000000040000018000000FB
:100DA0000000000000000000286672616D655F624F
:100DB00075666665725F73656D20213D2030292060
:100DC000262620224372656174696F6E206F66204B
:100DD0006672616D656275666665722073656D61C8
:100DE00070686F7265206661696C6564220000003E
:100DF000443A5C39395F50726F6A6563745C476965
:100E0000744875625C546F7563684746585C4D79E9
:100E10004170706C69636174696F6E5C546F756367
:100E2000684746585C7461726765745C67656E6597
:100E300072617465645C4F53577261707065727350
:100E40002E63707000000000287673796E635F7106
:100E50007565756520213D203029202626202243F6
:100E600072656174696F6E206F66207673796E6348
:100E7000206D6573736167652071756575652066A2
:100E800061696C6564220000F0E300E0000000008E
:100E900000000000DBB8000893BB0008C7BC0008D6
:100EA0000000000000000000000000000000000042
:100EB000000000000000000000000000F18E0008AB
:100EC000F38E0008BFBD000800000000FCFFFFFF1C
:100ED0000000000000000000000000000000000012
:100EE0000000000097E30008000000005D8F00088C
:100EF000AD8E00080BBF0008B58E00084B920008AD
:100F0000F39200081D940008DBC20008BBCA000869
:100F10000000000000000000F37501080000000060
:100F20005D8F00088B3B01080BBF0008239F000862
:100F30004B920008F39200081D940008DBC20008E1
:100F4000BBCA000800000000000000000000000014
:100F50000000000097A101081B1C01080000000010
:100F600000000000BB770108000000005D8F000852
:100F70000D9F00080BBF0008239F00084B9200083C
:100F8000F39200081D940008DBC20008BBCA0008E9
:100F90000F9F00080000000000000000000000009B
:100FA0001596000817960008BF770108000000009A
:100FB000FCFFFFFF00000000000000000000000038
:100FC00000000000000000004B8701080000000046
:100FD0005D8F0008D19500080BBF0008D995000867
:100FE0004B920008F39200081D940008DBC2000831
:100FF000BBCA00080000000000000000678E010866
:10100000000000005D8F00088B3B01080BBF00084B
:10101000239F00084B920008F39200081D940008DB
:10102000DBC20008BBCA000800000000000000008E
:101030000000000000000000B7A10108A38901081A
:101040000000000000000000DF8E0108000000002A
:101050005D8F000855A900080BBF0008239F0008FA
:101060004B920008F39200081D940008DBC20008B0
:10107000BBCA000857A900080000000000000000DB
:1010800000000000EB540108358801088391010835
:10109000B55401080B880108A39101080000000065
:1010A0000000000000000000898801084D89010847
:1010B0002F880108F1540108DD5601089F890108B5
:1010C000A1890108000000007B8801083020262645
:1010D0002022556E737570706F7274656420466F50
:1010E000726D617421220000443A5C39395F50729C
:1010F0006F6A6563745C4769744875625C546F75A8
:1011000063684746585C4D794170706C69636174DF
:10111000696F6E5C546F7563684746585C746172A2
:101120006765745C67656E6572617465645C535471
:101130004D3332444D412E6370700000302026261E
:101140002022556E737570706F7274656420466FDF
:10115000726D617421220000443A5C39395F50722B
:101160006F6A6563745C4769744875625C546F7537
:1011700063684746585C4D794170706C696361746F
:10118000696F6E5C546F7563684746585C74617232
:101190006765745C67656E6572617465645C535401
:1011A0004D3332444D412E637070000030202626AE
:1011B0002022556E737570706F7274656420666F4F
:1011C000726D617422000000443A5C39395F5072DC
:1011D0006F6A6563745C4769744875625C546F75C7
:1011E00063684746585C4D794170706C69636174FF
:1011F000696F6E5C546F7563684746585C746172C2
:101200006765745C67656E6572617465645C535490
:101210004D3332444D412E6370700000A0860100B2
:1012200080380100C0D40100000000007A0D0000E9
:10123000FA0000005C120000A00F00008002000015
:101240001400000000000000801A060000E2040004
:101250000053070000000000840300006400000049
:101260001405000058020000FA00000064000000AD
:101270000000000040420F0000350C00804F1200BB
:1012800000000000C201000032000000F401000074
:10129000040100003C0000006400000000000000A9
:1012A000010002000400060008000A000C00100003
:1012B000200040008000000101010103070100003F
:1012C0000804020408010101000000000000000001
:1012D0000000000000000000B19C0108DD9C010836
:1012E00000000000010203040102030406070809CC
:1012F00049444C450000000075736564203E203071
:1013000000000000443A5C39395F50726F6A6563CF
:10131000745C4769744875625C546F7563684746CE
:10132000585C4D794170706C69636174696F6E5C73
:10133000455741524D2F2E2E2F4D6964646C6577B1
:10134000617265732F53542F746F75636867667885
:101350002F6672616D65776F726B2F696E636C7546
:1013600064655C746F7563686766782F546578741C
:1013700050726F76696465722E68707000000000AC
:101380006F6666736574203C2075736564000000A9
:10139000443A5C39395F50726F6A6563745C4769BF
:1013A000744875625C546F7563684746585C4D7944
:1013B0004170706C69636174696F6E5C455741522E
:1013C0004D2F2E2E2F4D6964646C657761726573A5
:1013D0002F53542F746F7563686766782F66726138
:1013E0006D65776F726B2F696E636C7564655C7485
:1013F0006F7563686766782F5465787450726F767E
:10140000696465722E687070000000007573656411
:10141000203E203100000000443A5C39395F5072B0
:101420006F6A6563745C4769744875625C546F7574
:1014300063684746585C4D794170706C69636174AC
:10144000696F6E5C455741524D2F2E2E2F4D6964AA
:10145000646C6577617265732F53542F746F756375
:10146000686766782F6672616D65776F726B2F693A
:101470006E636C7564655C746F7563686766782FFE
:101480005465787450726F76696465722E687070F6
:101490000000000024750090546D722053766300A4
:1014A000546D7251000000000000000000000000B8
:1014B000000000000000000000000000000000002C
:1014C00000000000000000002D9201080000000054
:1014D000000000000000000000000000000000000C
:1014E00000000000000000000000000000000000FC
:1014F00000000000F9A30108A39301080000000008
:1015000000000000000000000000000000000000DB
:1015100000000000000000000000000000000000CB
:1015200000000000000000004B920108E793010852
:1015300000000000000000000000000000000000AB
:10154000000000000000000000000000000000009B
:10155000000000000000000000000000FDA30108E2
:1015600001A40108000000000000000000000000CD
:1015700000000000000000002D9201086672616DFD
:101580006542756666657220213D20302026262042
:101590002241206672616D656275666665722061C2
:1015A000646472657373206D757374206265207353
:1015B00065742200443A5C39395F50726F6A656322
:1015C000745C4769744875625C546F75636847461C
:1015D000585C4D794170706C69636174696F6E5CC1
:1015E000455741524D2F2E2E2F4D6964646C6577FF
:1015F000617265732F53542F746F756368676678D3
:101600002F6672616D65776F726B2F696E636C7593
:1016100064655C746F7563686766782F68616C2FAA
:1016200048414C2E6870700000000000000000006F
:1016300000000000000000000DA4010800000000F0
:10164000A11C01080000000000000000551D010859
:10165000ED6D0108FB6D0108036E0108556E010870
:10166000431D0108A31D010819A40108BF6F01084B
:101670009B700108E57001080000000000000000F8
:101680000372010845710108797201082973010884
:1016900083730108000000008B73010835A4010862
:1016A000D11C0108E51C0108F51C0108051D0108F5
:1016B00000000000FD9D0108596E010800000000B7
:1016C0004BA40108AB9901080000000000000000D5
:1016D000000000006D6C0108331D01083B1D01086E
:1016E000491D01080F7501088F750108599E0108F1
:1016F000AB1D0108F71D01080000000000000000FC
:1017000000000000000000000DA40108000000001F
:10171000696B0108716B010800000000CF6B0108C4
:10172000ED6D0108FB6D0108036E0108556E01089F
:10173000BF6B0108A31D010819A40108BF6F0108B0
:101740009B700108E5700108000000000000000027
:1017500003720108457101087972010829730108B3
:1017600083730108000000008B73010835A4010891
:10177000296C0108316C0108396C0108416C0108C1
:1017800000000000FD9D0108596E010800000000E6
:101790004BA40108AB990108000000000000000004
:1017A000000000006D6C0108331D01083B1D01089D
:1017B000C76B01080F7501088F750108599E010854
:1017C000AB1D0108F71D010854696D657248616E13
:1017D000646C6554657374000D0A5B202573205D8D
:1017E000202053746F702074696D65720D0A0000BB
:1017F0000D0A5B202573205D20202564200D0A0042
:1018000075736564203E203000000000433A5C6A36
:10181000656E6B696E735C776F726B737061636515
:101820005C43726561746552656C65617365427590
:10183000696C645C6372656174655F72656C656137
:1018400073652D305C746F7563686766785C62756C
:10185000696C645F636F6E665C636F72655C636F17
:10186000727465785F6D375C494152382E785C2E12
:101870002E5C2E2E5C2E2E5C2E2E5C6672616D65AB
:10188000776F726B5C696E636C7564655C746F75A1
:1018900063686766782F5465787450726F766964F0
:1018A00065722E687070000075736564203E3D207F
:1018B0006E756D00433A5C6A656E6B696E735C773A
:1018C0006F726B73706163655C43726561746552BE
:1018D000656C656173654275696C645C63726561B2
:1018E00074655F72656C656173652D305C746F75CE
:1018F00063686766785C6275696C645F636F6E6667
:101900005C636F72655C636F727465785F6D375C82
:10191000494152382E785C2E2E5C2E2E5C2E2E5C89
:101920002E2E5C6672616D65776F726B5C696E639B
:101930006C7564655C746F7563686766782F546551
:10194000787450726F76696465722E6870700000EA
:1019500075736564202B206E756D203C3D20736986
:101960007A650000433A5C6A656E6B696E735C77FA
:101970006F726B73706163655C437265617465520D
:10198000656C656173654275696C645C6372656101
:1019900074655F72656C656173652D305C746F751D
:1019A00063686766785C6275696C645F636F6E66B6
:1019B0005C636F72655C636F727465785F6D375CD2
:1019C000494152382E785C2E2E5C2E2E5C2E2E5CD9
:1019D0002E2E5C6672616D65776F726B5C696E63EB
:1019E0006C7564655C746F7563686766782F5465A1
:1019F000787450726F76696465722E68707000003A
:101A000075736564203E203000000000433A5C6A34
:101A1000656E6B696E735C776F726B737061636513
:101A20005C43726561746552656C6561736542758E
:101A3000696C645C6372656174655F72656C656135
:101A400073652D305C746F7563686766785C62756A
:101A5000696C645F636F6E665C636F72655C636F15
:101A6000727465785F6D375C494152382E785C2E10
:101A70002E5C2E2E5C2E2E5C2E2E5C6672616D65A9
:101A8000776F726B5C696E636C7564655C746F759F
:101A900063686766782F5465787450726F766964EE
:101AA00065722E687070000075736564202B206E5F
:101AB000756D203C3D2073697A650000433A5C6A8D
:101AC000656E6B696E735C776F726B737061636563
:101AD0005C43726561746552656C656173654275DE
:101AE000696C645C6372656174655F72656C656185
:101AF00073652D305C746F7563686766785C6275BA
:101B0000696C645F636F6E665C636F72655C636F64
:101B1000727465785F6D375C494152382E785C2E5F
:101B20002E5C2E2E5C2E2E5C2E2E5C6672616D65F8
:101B3000776F726B5C696E636C7564655C746F75EE
:101B400063686766782F5465787450726F7669643D
:101B500065722E687070000075736564203E206F9A
:101B60006666736574000000433A5C6A656E6B6973
:101B70006E735C776F726B73706163655C437265E3
:101B800061746552656C656173654275696C645C0E
:101B90006372656174655F72656C656173652D3034
:101BA0005C746F7563686766785C6275696C645FA6
:101BB000636F6E665C636F72655C636F7274657889
:101BC0005F6D375C494152382E785C2E2E5C2E2E8C
:101BD0005C2E2E5C2E2E5C6672616D65776F726B6B
:101BE0005C696E636C7564655C746F756368676669
:101BF000782F5465787450726F76696465722E68B8
:101C00007070000075736564203C2073697A65000C
:101C1000433A5C6A656E6B696E735C776F726B7367
:101C2000706163655C43726561746552656C656182
:101C300073654275696C645C6372656174655F723B
:101C4000656C656173652D305C746F75636867667C
:101C5000785C6275696C645F636F6E665C636F72FB
:101C6000655C636F727465785F6D375C49415238AB
:101C70002E785C2E2E5C2E2E5C2E2E5C2E2E5C661C
:101C800072616D65776F726B5C696E636C756465AC
:101C90005C746F7563686766782F546578745072EA
:101CA0006F76696465722E68707000006F66667387
:101CB0006574203C2075736564000000433A5C6ADB
:101CC000656E6B696E735C776F726B737061636561
:101CD0005C43726561746552656C656173654275DC
:101CE000696C645C6372656174655F72656C656183
:101CF00073652D305C746F7563686766785C6275B8
:101D0000696C645F636F6E665C636F72655C636F62
:101D1000727465785F6D375C494152382E785C2E5D
:101D20002E5C2E2E5C2E2E5C2E2E5C6672616D65F6
:101D3000776F726B5C696E636C7564655C746F75EC
:101D400063686766782F5465787450726F7669643B
:101D500065722E6870700000000000000000000036
:101D60001F9D0108B79F0108DB9F010813A0010810
:101D70005FA4010800000000000000000000000057
:101D80000000000000000000717F0008E7870008E5
:101D9000F7870008278E000807880008817F000861
:101DA0000000000000000000000000000000000033
:101DB0000000000000000000837F0008AB7F0008E7
:101DC0003B890008696E646578203C205F73697AFE
:101DD00065000000433A5C6A656E6B696E735C7700
:101DE0006F726B73706163655C4372656174655299
:101DF000656C656173654275696C645C637265618D
:101E000074655F72656C656173652D305C746F75A8
:101E100063686766785C6275696C645F636F6E6641
:101E20005C636F72655C636F727465785F6D375C5D
:101E3000494152382E785C2E2E5C2E2E5C2E2E5C64
:101E40002E2E5C6672616D65776F726B5C696E6376
:101E50006C7564655C746F7563686766782F68611C
:101E60006C2F54797065732E687070005F73697A97
:101E700065203C20636170616369747920262620A7
:101E800022566563746F722063617061636974794F
:101E9000206578636565646564220000433A5C6A86
:101EA000656E6B696E735C776F726B73706163657F
:101EB0005C43726561746552656C656173654275FA
:101EC000696C645C6372656174655F72656C6561A1
:101ED00073652D305C746F7563686766785C6275D6
:101EE000696C645F636F6E665C636F72655C636F81
:101EF000727465785F6D375C494152382E785C2E7C
:101F00002E5C2E2E5C2E2E5C2E2E5C6672616D6514
:101F1000776F726B5C696E636C7564655C746F750A
:101F200063686766782F68616C2F54797065732ECB
:101F300068707000696E646578203C205F73697A10
:101F400065000000433A5C6A656E6B696E735C778E
:101F50006F726B73706163655C4372656174655227
:101F6000656C656173654275696C645C637265611B
:101F700074655F72656C656173652D305C746F7537
:101F800063686766785C6275696C645F636F6E66D0
:101F90005C636F72655C636F727465785F6D375CEC
:101FA000494152382E785C2E2E5C2E2E5C2E2E5CF3
:101FB0002E2E5C6672616D65776F726B5C696E6305
:101FC0006C7564655C746F7563686766782F6861AB
:101FD0006C2F54797065732E6870700000000000DB
:101FE000000000000000000000000000EDA5000857
:101FF00059A600086D9F0008C79F00080000000058
:10200000000000008BA40108E79F000857A000080B
:1020100061A4010865A4010869A401086DA4010870
:102020000000000071A4010873A4010875A4010850
:1020300077A4010879A000080000000079A4010835
:1020400091A600089BA60008287769647468203E62
:102050002030292026262028686569676874203E7C
:10206000203029202626202243616E6E6F74206264
:102070006C697420656D70747920726563742200D8
:10208000433A5C6A656E6B696E735C776F726B73F3
:10209000706163655C43726561746552656C65610E
:1020A00073654275696C645C6372656174655F72C7
:1020B000656C656173652D305C746F756368676608
:1020C000785C6672616D65776F726B5C736F757249
:1020D00063655C746F7563686766785C68616C5C87
:1020E00048414C2E6370700028626C69744F702EEA
:1020F0006F7065726174696F6E2026206765744227
:102100006C69744361707328292920262620226275
:102110006C6974206F7065726174696F6E206E6F88
:102120007420737570706F72746564220000000013
:10213000287769647468203E2030292026262028CC
:10214000686569676874203E203029202626202291
:1021500043616E6E6F742066696C6C20656D70747F
:10216000792072656374220028626C69744F702E46
:102170006F7065726174696F6E20262067657442A6
:102180006C697443617073282929202626202262F5
:102190006C69742066696C6C206F7065726174691B
:1021A0006F6E206E6F7420737570706F72746564DB
:1021B000220000005553455F414E494D4154494F5F
:1021C0004E5F53544F524147452026262022416EF0
:1021D000696D6174696F6E2073746F7261676520D9
:1021E000726571756972656420666F7220746869C2
:1021F00073206F7065726174696F6E2E2053656510
:102200002048414C3A3A7365744672616D65427577
:102210006666657253746172744164647265737347
:10222000220000006672616D6542756666657241E6
:102230006C6C6F6361746F72202626202248414CBB
:102240003A3A6672616D65427566666572416C6C9C
:102250006F6361746F72206E6F7420696E69746948
:10226000616C697A656421220000000021224841E6
:102270004C3A3A524546524553485F5354524154A2
:102280004547595F5041525449414C5F4652414D78
:1022900045425546464552206F6E6C7920737570E5
:1022A000706F727473203136626974206F722032DD
:1022B00034626974206672616D6562756666657206
:1022C00022000000302026262022556E7375707083
:1022D0006F72746564206269746D617020666F72DC
:1022E0006D617420696E206765744269744465701D
:1022F000746828292200000000000000000000008F
:1023000000000000000000000000000000000000CD
:1023100000000000000000000000000000000000BD
:1023200000000000000000000000000000000000AD
:102330000000000000000000000000009DA4010853
:10234000000000005D8F00088B3B01080BBF0008F8
:10235000239F00084B920008F39200081D94000888
:10236000DBC20008BBCA000800000000000000003B
:102370000000000000000000215801085960010819
:1023800000000000D9610108F164010899650108A5
:10239000000000009FA40108E99E01080000000061
:1023A000000000000000000000000000000000002D
:1023B00000000000A566010848414C3A3A465241E7
:1023C0004D455F4255464645525F57494454482063
:1023D0003E2030202626202248414C206861732070
:1023E0006E6F74206265656E20696E697469616CD8
:1023F000697A65642079657422000000433A5C6A5A
:10240000656E6B696E735C776F726B737061636519
:102410005C43726561746552656C65617365427594
:10242000696C645C6372656174655F72656C65613B
:1024300073652D305C746F7563686766785C627570
:10244000696C645F636F6E665C636F72655C636F1B
:10245000727465785F6D375C494152382E785C2E16
:102460002E5C2E2E5C2E2E5C2E2E5C6672616D65AF
:10247000776F726B5C696E636C7564655C706C61C0
:1024800074666F726D2F6472697665722F6C636407
:102490002F4C434432346270702E6870700000001C
:1024A000000000000000000000000000000000002C
:1024B000000000000000000000000000000000001C
:1024C000000000000000000000000000000000000C
:1024D00000000000000000000000000000000000FC
:1024E00000000000000000000000000000000000EC
:1024F00000000000000000000000000000000000DC
:1025000000000000000000000000000000000000CB
:1025100000000000000000000000000000000000BB
:1025200000000000000000000000000000000000AB
:10253000000000000000000000000000000000009B
:10254000000000000000000000000000000000008B
:10255000000000000000000000000000000000007B
:10256000000000000000000000000000000000006B
:10257000000000000000000000000000000000005B
:10258000000000000000000000000000000000004B
:10259000000000000000000000000000000000003B
:1025A000000000000000000000000000000000002B
:1025B000000000000000000000000000000000001B
:1025C000000000000000000000000000000000000B
:1025D00000000000000000000000000000000000FB
:1025E00000000000000000000000000000000000EB
:1025F00000000000000000000000000000000000DB
:1026000000000000000000000000000000000000CA
:1026100000000000000000000000000000000000BA
:1026200000000000000000000000000000000000AA
:10263000302026262022556E737570706F72746577
:1026400064206269746D617020666F726D617420C0
:10265000666F7220323462707020646973706C61CE
:1026600079220000433A5C6A656E6B696E735C7731
:102670006F726B73706163655C4372656174655200
:10268000656C656173654275696C645C63726561F4
:1026900074655F72656C656173652D305C746F7510
:1026A00063686766785C6672616D65776F726B5C94
:1026B000736F757263655C706C6174666F726D5C6C
:1026C0006472697665725C6C63645C4C434432345A
:1026D0006270702E63707000302026262022556EA6
:1026E000737570706F72746564206269746D617067
:1026F00020666F726D617420696E204C43443234E1
:102700003A3A626C6974436F7079212200000000CC
:102710002848414C3A3A676574496E7374616E6338
:102720006528292D3E6765744672616D6552656640
:102730007265736853747261746567792829202102
:102740003D2048414C3A3A524546524553485F5322
:10275000545241544547595F5041525449414C5F8E
:102760004652414D4542554646455229202626208F
:1027700022436F7079206672616D65627566666569
:102780007220726567696F6E20746F206D656D6F62
:102790007279206973206E6F7420737570706F7218
:1027A00074656420696E205061727469616C2046A2
:1027B00072616D65627566666572206D6F64652114
:1027C0002200000028626D702E676574466F726D7E
:1027D00061742829203D3D206672616D65627566D1
:1027E000666572466F726D6174282929202626203D
:1027F0002254686520676976656E206269746D6130
:10280000702068617320616E20696E76616C696406
:1028100020666F726D6174220000000028626D7086
:102820005F6461746120213D20302920262620220A
:102830004E6F206D656D6F727920616C6C6F636196
:1028400074656420666F72207468652067697665B8
:102850006E204269746D617022000000286162730D
:10286000526563742E696E636C756465732876694E
:1028700073526563742929202626202256697369BC
:10288000626C6520726567696F6E206D7573742068
:10289000626520696E73696465206162736F6C752F
:1028A000746520726567696F6E22000030202626ED
:1028B00020224C385F52474235363520496E6465D8
:1028C000786564204269746D617020666F726D6115
:1028D00074206973206E6F7420737570706F7274DA
:1028E0006564206F6E2032342062697420646973DD
:1028F000706C6179732122003020262620224C380A
:102900005F52474235363520496E646578656420EC
:102910004269746D617020666F726D6174206973B5
:10292000206E6F7420737570706F72746564206FA1
:102930006E20323462707020646973706C617973D8
:10294000212200002A7265696E7465727072657466
:102950005F636173743C636F6E73742075696E742A
:1029600031365F742A3E28636C7574446174612942
:10297000203D3D204269746D61703A3A434C555494
:102980005F464F524D41545F4C385F415247423889
:10299000383838002A7265696E74657270726574B1
:1029A0005F636173743C636F6E73742075696E74DA
:1029B00031365F742A3E28636C75744461746129F2
:1029C000203D3D204269746D61703A3A434C555444
:1029D0005F464F524D41545F4C385F524742383842
:1029E00038000000000000000000000000000000AF
:1029F00000000000B7AB0008EFB300086D9F0008AF
:102A0000C79F000800000000000000008BA4010820
:102A1000E79F000857A0000861A4010865A4010809
:102A200069A401086DA4010800000000D7A40108F2
:102A300073A4010875A4010877A4010879A000080F
:102A40000000000079A40108A3A401080000000010
:102A5000B9B300086269746D61707320213D203044
:102A600020262620224269746D61702064617461A1
:102A70006261736520686173206E6F7420626565A2
:102A80006E20696E697469616C697A65642E2200D2
:102A9000433A5C6A656E6B696E735C776F726B73D9
:102AA000706163655C43726561746552656C6561F4
:102AB00073654275696C645C6372656174655F72AD
:102AC000656C656173652D305C746F7563686766EE
:102AD000785C6275696C645F636F6E665C636F726D
:102AE000655C636F727465785F6D375C494152381D
:102AF0002E785C2E2E5C2E2E5C2E2E5C2E2E5C668E
:102B000072616D65776F726B5C696E636C7564651D
:102B10005C746F7563686766782F4269746D617065
:102B20002E6870700000000000000000000000002F
:102B30000000000000000000F5B20008EFB300083C
:102B40006D9F0008C79F0008000000000000000003
:102B50008BA40108E79F000857A0000861A40108A2
:102B600065A4010869A401086DA401080000000023
:102B7000D7A4010873A4010875A4010877A401086B
:102B800079A000080000000079A40108A3A40108AE
:102B900000000000B9B300080000000000000000C1
:102BA0000000000000000000AFAF0008C3A401084F
:102BB0006D9F0008C79F0008000000000000000093
:102BC0008BA40108E79F000857A0000861A4010832
:102BD00065A4010869A401086DA4010800000000B3
:102BE00071A4010873A4010875A4010877A4010861
:102BF00079A000080000000079A40108000000008E
:102C00000000000061AE0008C7AE00087BB10008FC
:102C100000000000000000000000000000000000B4
:102C20006BA100081DA400086D9F0008C79F000845
:102C30000000000000000000EBA10008E79F000872
:102C400057A0000861A4010865A4010869A401084F
:102C50006DA401080000000071A4010873A401081C
:102C600075A4010877A4010879A0000800000000FD
:102C70004BA40008B5A0000831A100080000000026
:102C800000000000000000000000000039A2000861
:102C900031A400080000000000000000266420218C
:102CA0003D2074686973202626202243616E6E6F72
:102CB0007420616464204472617761626C65207481
:102CC0006F2073656C662200433A5C6A656E6B69BF
:102CD0006E735C776F726B73706163655C43726572
:102CE00061746552656C656173654275696C645C9D
:102CF0006372656174655F72656C656173652D30C3
:102D00005C746F7563686766785C6672616D657721
:102D10006F726B5C736F757263655C746F756368FB
:102D20006766785C636F6E7461696E6572735C432D
:102D30006F6E7461696E65722E63707000000000C2
:102D4000642E706172656E74203D3D203020262611
:102D5000202243616E6E6F7420616464204472614E
:102D60007761626C65206D756C7469706C65207438
:102D7000696D6573220000006865616420213D2053
:102D80002664202626202243616E6E6F74206164C3
:102D900064204472617761626C65206D756C746942
:102DA000706C652074696D6573220000000000007E
:102DB000FFFFFFFFFFFFFFFF00000000010000001A
:102DC000000000000000000001000000FFFFFFFF06
:102DD000FFFFFFFF01000000FFFFFFFFFFFFFFFFFE
:102DE00001000000010000000100000000000000E0
:102DF0000000000000000000000000003B9F0108F0
:102E0000159F01086D9F0008C79F00080000000083
:102E1000000000008BA40108E79F000857A00008ED
:102E200061A4010865A4010869A401086DA4010852
:102E30000000000071A4010873A4010875A4010832
:102E400077A4010879A000080000000079A4010817
:102E500000000000000000005F8701086F87010884
:102E6000898701080000000000000000D3870108E6
:102E7000018801083020262620224C6F636B4672A1
:102E80006565444D415F5175657565206F76657266
:102E9000666C6F7721220000433A5C6A656E6B694D
:102EA0006E735C776F726B73706163655C437265A0
:102EB00061746552656C656173654275696C645CCB
:102EC0006372656174655F72656C656173652D30F1
:102ED0005C746F7563686766785C6672616D657750
:102EE0006F726B5C736F757263655C746F7563682A
:102EF0006766785C68616C5C444D412E637070005D
:102F0000216973456D707479282920262620224C6A
:102F10006F636B46726565444D415F5175657565BC
:102F200020756E646572666C6F7721220000000068
:102F3000302026262022444D413A3A657865637553
:102F40007465282920696E76616C696420426C6919
:102F5000744F7022000000006269746D617073200C
:102F6000213D203020262620224269746D61702088
:102F7000646174616261736520686173206E6F744F
:102F8000206265656E20696E697469616C697A6535
:102F9000642E2200433A5C6A656E6B696E735C77DF
:102FA0006F726B73706163655C43726561746552C7
:102FB000656C656173654275696C645C63726561BB
:102FC00074655F72656C656173652D305C746F75D7
:102FD00063686766785C6672616D65776F726B5C5B
:102FE000736F757263655C746F7563686766785C30
:102FF0004269746D61702E63707000006964203CDA
:10300000204249544D41505F414E494D4154494F32
:103010004E5F53544F524147452026262022496E89
:103020007465726E616C206572726F722C206174AF
:1030300074656D7074696E6720746F2067657420A5
:1030400061646472657373206F6620696E76616C6B
:10305000696420696422000072657320262620229C
:103060004E6F7420616C6C206269746D61707320A6
:10307000636F756C642062652063616368656421B9
:103080002200000030202626202244796E616D69DE
:1030900063204269746D61702043726561746520BC
:1030A0006E6F7420737570706F7274656420666FD4
:1030B0007220435553544F4D206269746D617020E6
:1030C000666F726D61742200696420213D2042495F
:1030D000544D41505F494E56414C494420262620CC
:1030E0002243616E6E6F7420636F70792042495481
:1030F0004D41505F494E56414C494422000000006A
:103100006964203C20286E756D6265724F66426965
:10311000746D617073202B206E756D6265724F66E1
:1031200044796E616D69634269746D6170732920C1
:1031300026262022496C6C6567616C204269746D9B
:1031400061704964220000002821697344796E612E
:103150006D69634269746D617028696429207C7CA3
:103160002064796E4269746D6170735B6964202DAF
:10317000206E756D6265724F664269746D61707321
:103180005D2E696E75736529202626202243616EA7
:103190006E6F7420636F70792066726F6D20646546
:1031A0006C657465642064796E616D696320626921
:1031B000746D617022000000216269746D61702E6F
:1031C00067657445787472614461746128292026AA
:1031D000262022416C706861206368616E6E656CA8
:1031E000206E6F7420737570706F727465642066E2
:1031F0006F722064796E616D6963206269746D61BC
:103200007073220030202626202244796E616D6979
:1032100063204269746D617020437265617465203A
:10322000436F7079206E6F7420737570706F727455
:10323000656420666F7220435553544F4D20626978
:10324000746D617020666F726D6174220000000001
:10325000636C757453697A65203E203020262620E1
:10326000636C757453697A65203C3D203235362095
:103270002626202250616C657474652073697A6516
:10328000206D757374206265206265747765656E64
:10329000203120616E642032353622006973447912
:1032A0006E616D69634269746D617028696429207B
:1032B0002626202243616E206F6E6C792066696C31
:1032C0006C2064796E616D6963206269746D6170F0
:1032D000732200006269746D61702E676574466FB9
:1032E000726D61742829203D3D2048414C3A3A6C6A
:1032F000636428292E6672616D6562756666657203
:10330000466F726D61742829202626202243616E43
:10331000206F6E6C792066696C6C206E61746976C2
:1033200065206269746D617020666F726D6174737F
:1033300022000000286373697A65203E20287369A3
:103340007A655F63616368655F7461626C65732051
:103350002B2073697A655F64796E616D69635F6262
:1033600069746D61705F646174612929202626206B
:1033700022496E73756666696369656E7420636160
:103380006368652073746F726167652200000000D6
:103390006964203C204249544D41505F414E494DA3
:1033A0004154494F4E5F53544F52414745202626C2
:1033B0002022496E7465726E616C206572726F7244
:1033C0002C20617474656D7074696E6720746F2051
:1033D00067657453697A654F664269746D617020E0
:1033E0007769746820696E76616C6964206964220B
:1033F0000000000064617461202626202244796E5A
:10340000616D6963206269746D6170206C6F7374A3
:1034100020706978656C20706F696E746572220027
:1034200030202626202243616368696E672F447925
:103430006E616D6963206269746D617073206E6F77
:103440007420737570706F7274656420666F72207B
:1034500073656C6563746564206269746D61702066
:10346000666F726D6174220030202626202244612E
:1034700074612073697A65206F662042575F524CF1
:10348000452063616E6E6F742062652063616C63BA
:10349000756C617465642200302026262022436109
:1034A0006368696E67206E6F7420737570706F72D9
:1034B00074656420666F722073656C6563746564FF
:1034C000206269746D617020666F726D6174220094
:1034D00000000000000000000000000000000000EC
:1034E00013A5010813A501086D9F0008C79F0008D8
:1034F00000000000000000008BA40108E79F000806
:1035000057A0000861A4010865A4010869A4010886
:103510006DA4010800000000D7A4010873A40108ED
:1035200075A4010877A4010879A000080000000034
:1035300079A40108A3A40108000000000048704716
:10354000C002000802207047020012B2002A05D40F
:103550000901DFF8082300B2115408E00901DFF87F
:10356000002300B210F00F00104400F8041C704754
:1035700080B5DFF8F002006800F03AFF012801D0C2
:1035800001F03EF901BD80B500217FF00400FFF796
:10359000DBFF01BDEFF30580002802D07FF00500BE
:1035A0000AE0DFF8C4120868002803D1012008608F
:1035B000002001E05FF0FF30704710B5EFF30580A9
:1035C000002802D07FF005000EE0DFF89C42206862
:1035D000012807D1FFF7D7FF0220206000F025FC6B
:1035E000002001E05FF0FF3010BDF8B584B000238B
:1035F0000393EFF30583002B56D10300002B53D028
:103600008025182300245FF0FF36002A2ED017688B
:10361000002F00D014689769002F00D09369002B09
:1036200004D0392B02D21779FF0701D500203CE0E6
:103630005769002F01D05569AD089768002F0AD04F
:10364000D7685C2F07D31769002F04D05769002F64
:1036500001D001260BE09768002F08D1D768002F12
:1036600005D11769002F02D1002600E00026012EA7
:103670000BD1966802961269019200930B002A0002
:10368000210000F081FA03900EE0002E0CD103AA75
:10369000019200930B002A0092B2210000F0B6FACA
:1036A000012801D000200390039805B0F0BD10B5AB
:1036B000EFF30581002902D07FF0050404E0002427
:1036C000002801D000F08BFB200010BD80B501F078
:1036D00093FB0100002902D048680968884701BDB2
:1036E0002DE9FE430700884691461E000025EFF3B2
:1036F000058000284BD13800002848D0082001F070
:10370000A7FB0400002C42D02760C4F804905FFAA5
:1037100088F8B8F1000F01D1002200E001225FF02B
:10372000FF330020002E13D03168002900D030680C
:10373000B168002904D0F1682C2901D3012308E0E5
:10374000B168002905D1F168002902D1002300E009
:103750000023012B0AD1B1680191DFF824140091F4
:103760002300012101F0EEF8050009E0002B07D14C
:10377000DFF80C1400912300012101F0C8F80500C6
:10378000002D04D1002C02D0200001F0EFFB280016
:10379000BDE8FE8380B50A00EFF30581002902D061
:1037A0007FF0050010E0002802D17FF003000BE05D
:1037B000002100910023042101F014F9012801D116
:1037C000002001E07FF0020002BD1CB50400EFF311
:1037D0000580002802D07FF005001AE0002C02D1FD
:1037E0007FF0030015E0200001F0EDFA002802D17F
:1037F0007FF002000DE00020009000230022032152
:10380000200001F0EFF8012801D1002001E05FF075
:10381000FF3016BD38B50400EFF30580002802D054
:103820007FF0050019E0002C02D17FF0030014E0C6
:10383000200001F0E1FA05000020009000230022A2
:103840000521200001F0CEF8012804D1280001F064
:103850008DFB002001E07FF0020032BD00E400E0BB
:1038600018ED00E010E000E024AF00247CB50E006D
:1038700015000024EFF30581002956D1002854D00B
:10388000B04252D35FF0FF32002D0FD0A96800295B
:1038900004D0E968502901D3012208E0A968002971
:1038A00005D1E968002902D1002200E0002212F1CE
:1038B000010F3AD0012822D1012A09D1032000901A
:1038C000AB6800220021012001F047FC040005E064
:1038D00003220021012001F094FC0400002C1AD0E6
:1038E000002E18D0002300220021200001F0FEFC51
:1038F000012810D0200002F062F800240BE0012A19
:1039000005D1AA68310001F0B2FC040003E03100E7
:1039100001F0CEFC0400002C07D0002D01D0296856
:1039200000E00021200002F017F9200076BD38B534
:103930000C000025002802D17FF003052BE0EFF3F7
:10394000058100291BD0002C02D07FF0030522E066
:10395000002100916A46002101F0DAFF012802D01F
:103960007FF0020517E00098002814D05FF0805027
:1039700064490860BFF34F8FBFF36F8F0BE02100E6
:1039800001F0F9FE012806D0002C02D07FF00105DD
:1039900001E07FF00205280032BD1CB5002400289C
:1039A00002D17FF0030422E0EFF30581002915D056
:1039B00000210091694601F0D4FD012802D07FF07A
:1039C000020414E00098002811D05FF080504D49A7
:1039D0000860BFF34F8FBFF36F8F08E00023002212
:1039E000002101F083FC012801D07FF002042000B7
:1039F00016BD7CB514000025EFF30582002A40D1E6
:103A000000283ED000293CD05FF0FF33002C1DD0B1
:103A1000A268002A0CD0E268502A09D32269002A41
:103A200006D0626901FB00F6B24201D301230EE029
:103A3000A268002A0BD1E268002A08D12269002A74
:103A400005D16269002A02D1002300E00023012B86
:103A500007D100220092A368226901F07EFB0500D5
:103A600005E0002B03D1002201F0CBFB0500002D67
:103A700007D0002C01D0216800E00021280002F0CE
:103A80006BF8280076BD38B51C000025EFF30582E1
:103A9000002A1FD0002803D0002901D0002C02D01A
:103AA0007FF003052AE00022009200236A4601F01D
:103AB000E8FC012802D07FF002051FE000980028F2
:103AC0001CD05FF080500F490860BFF34F8FBFF3E9
:103AD0006F8F13E0002801D0002902D17FF0030589
:103AE0000CE00023220001F001FC012806D0002C8C
:103AF00002D07FF0010501E07FF00205280032BD11
:103B00000000000004ED00E038B51C000025EFF3D4
:103B10000582002A1FD0002803D0002901D0002CE4
:103B200002D07FF0030529E0002200926A4601F0EE
:103B3000EFFE012802D07FF002051FE00098002868
:103B40001CD05FF08050DFF83C100860BFF34F8F4F
:103B5000BFF36F8F12E0002801D0002902D17FF05F
:103B600003050BE0220001F058FD012806D0002CCF
:103B700002D07FF0010501E07FF00205280032BD90
:103B8000CD36000804ED00E078B585B005000B984F
:103B9000002807D1502080F31188BFF34F8FBFF367
:103BA0006F8FFEE70C9C002C07D1502080F311880A
:103BB000BFF34F8FBFF36F8FFEE75C260096009E2A
:103BC0005C2E07D0502080F31188BFF34F8FBFF3D6
:103BD0006F8FFEE7009E002C13D0002811D02063C9
:103BE000022084F8590000200390029404A8019058
:103BF0000A980090280000F042F8200000F0A0F899
:103C000001E000200490049806B070BD2DE9F8434F
:103C100084B00700884616009946300080B28000C4
:103C200001F016F90500002D0BD05C2001F010F911
:103C30000400002C01D0256304E0280001F096F96F
:103C400000E00024002C15D0002084F8590000204A
:103C5000039002940D9801900C9800904B46B6B2D8
:103C600032004146380000F00AF8200000F068F801
:103C7000012001E05FF0FF3005B0BDE8F0832DE9E1
:103C8000F84305000C00170098460A9EB900A522CB
:103C9000D6F83090484601F0ADFF306B00EB87005E
:103CA000071FFF08FF0017F00700002807D050206B
:103CB00080F31188BFF34F8FBFF36F8FFEE7002CA7
:103CC00010D0002100E0491C102907D2605C06EBEF
:103CD000010282F83400605C0028F4D1002086F8EC
:103CE000430002E0002086F83400DDF82090B9F1AE
:103CF000380F01D35FF03709099CC6F82C90C6F83D
:103D00004C9000203065301D01F0B6FF16F1180010
:103D100001F0B2FF3661D9F13809C6F81890766221
:103D200000207065002086F85800424629003800BF
:103D300000F0A6FC3060002C00D02660BDE8F183C6
:103D400038B5040000F02CFDDFF838140868401C7A
:103D50000860DFF834542868002806D12C60086811
:103D600001280DD100F0C6FA0AE0DFF8200400684F
:103D7000002805D1E06A2968C96A884200D32C600E
:103D8000DFF80C040168491C016000686064DFF81A
:103D900004040168E26A914201D2E16A0160211DD6
:103DA000DFF8F423E36A1420434302EB030001F03D
:103DB00066FF00F00FFDDFF8D403006800280DD087
:103DC0002868C06AE16A884208D25FF08050DFF854
:103DD000F4140860BFF34F8FBFF36F8F31BD10B580
:103DE00004000020002C14D0DFF830040068002804
:103DF00007D0502080F31188BFF34F8FBFF36F8F30
:103E0000FEE700F05DF80021200000F0EDFB00F07F
:103E10005DF8002808D15FF08050DFF8A814086032
:103E2000BFF34F8FBFF36F8F10BD10B586B000206A
:103E300004900020039005AA03A904A801F06CFFD8
:103E4000DFF8D84604980290039801900020009073
:103E50000023059ADFF864170FF26D40FFF794FE18
:103E600020602068002801D0012000E00020012807
:103E700001D100F017FD012817D1502080F31188DF
:103E8000BFF34F8FBFF36F8F5FF0FF30DFF848173E
:103E900008600120DFF8F41208600020DFF89413B6
:103EA000086000F016FC06B010BD10F1010FFAD149
:103EB000502080F31188BFF34F8FBFF36F8FFEE761
:103EC000DFF858030168491C0160704770B5002491
:103ED0000025DFF848633068002807D1502080F3C0
:103EE0001188BFF34F8FBFF36F8FFEE700F058FCD0
:103EF0003068401E30603068002855D1DFF88402F9
:103F00000068002826D14FE0C868C46814F1180082
:103F100001F0DCFE201D01F0D9FEDFF87802016817
:103F2000E26A914201D2E16A0160211DDFF8682254
:103F3000E36A1420434302EB030001F0A0FEE06AB1
:103F4000DFF844120968C96A884203D30120DFF808
:103F50008C160860DFF8601608680028D4D1002CA1
:103F600001D000F031FADFF878663468002C0CD00C
:103F700000F022F8002803D00120DFF86016086066
:103F8000641E002CF4D100203060DFF85006006879
:103F9000002809D001255FF08050DFF82813086061
:103FA000BFF34F8FBFF36F8F00F014FC280070BD7C
:103FB000DFF8800200687047F8B500259748006870
:103FC00000286AD1DFF86C020468641C0460002CCD
:103FD0001AD1DFF8181308680068002807D05020AD
:103FE00080F31188BFF34F8FBFF36F8FFEE7086830
:103FF000DFF8FC2213680B601060DFF8E805016849
:10400000491C016000F0E0F9DFF8CC6530688442BB
:1040100032D326E00868C068C768786884422AD32B
:10402000381D01F053FEB86A002803D017F11800BC
:1040300001F04CFE57480168FA6A914201D2F96AD0
:104040000160391D544AFB6A1420434302EB03000C
:1040500001F015FEF86A4C490968C96A884200D324
:104060000125DFF88812086800680028D2D15FF0C7
:10407000FF30306000E03060434800684649C26A63
:10408000142042438858022800D30125DFF84C054C
:104090000068002806D0012504E0DFF84405016827
:1040A000491C01602800F2BD10B45C48006800287B
:1040B00004D00120DFF8241508602CE00020DFF890
:1040C0001C150860334A106800E0401E1423324C6F
:1040D00003FB00F16158002909D10028F5D15020D7
:1040E00080F31188BFF34F8FBFF36F8FFEE703FBA1
:1040F00000F304EB03014B685B684B604B6811F104
:104100000804A34202D14B685B684B604968C968E8
:104110001D4B1960106010BC704710B50C000028D2
:1041200007D1502080F31188BFF34F8FBFF36F8FFB
:10413000FEE7DFF810150968183101F0ACFD012128
:10414000200000F051FA10BD38B50D001400002811
:1041500007D1502080F31188BFF34F8FBFF36F8FCB
:10416000FEE7DFF8E0140968183101F088FD002C43
:1041700001D05FF0FF352100280000F035FA31BD95
:104180000000000078AF002468AF002484AF002452
:1041900094AF002480AF00248097002410B5C0683D
:1041A000C468002C07D1502080F31188BFF34F8FD3
:1041B000BFF36F8FFEE714F1180001F087FD174879
:1041C0000068002815D1201D01F080FDDFF878047B
:1041D0000168E26A914201D2E16A0160211DDFF8C3
:1041E0006C24E36A1420434302EB030001F047FD13
:1041F00005E014F11801DFF8C00301F040FDDFF81D
:1042000044040068C06AE16A884205D201200121A5
:10421000DFF8C823116000E0002010BDA0AF00242B
:10422000DFF8C01309680160DFF8241409684160F1
:10423000704700007CAF002438B504000D00002C4E
:1042400007D1502080F31188BFF34F8FBFF36F8FDA
:10425000FEE7002D07D1502080F31188BFF34F8F68
:10426000BFF36F8FFEE700F09BFADFF8E40300680E
:104270006168411A2A6812F1010F01D1002418E087
:10428000DFF86023126823689A4204D06268904283
:1042900001D301240DE02868814207D22868411A21
:1042A00029602000FFF7BCFF002402E00020286006
:1042B000012400F08FFA200032BD0120DFF81C132A
:1042C0000860704704ED00E080B500F03EF8DFF8CC
:1042D0007C0300680228F8D35FF0805043490860EF
:1042E000BFF34F8FBFF36F8FEFE700006CAF002479
:1042F00070AF002438B5002408E0DFF85003142123
:1043000001FB04F1084401F0A8FC641C382CF4D330
:10431000DFF84043200001F0A0FCDFF83C53280008
:1043200001F09BFCDFF8900201F097FCDFF82C0312
:1043300001F093FCDFF8280301F08FFCDFF8240381
:104340000460DFF82403056031BD38B515E000F0E6
:1043500027FADFF80803C068C468201D01F0B6FC26
:10436000DFF808030168491E01602868401E2860C4
:1043700000F030FA200000F006F8DFF8F452286868
:104380000028E4D131BD10B5040094F8590000288C
:1043900006D1206B00F0EAFD200000F0E7FD10BD23
:1043A00094F85900012803D1200000F0DFFDF6E762
:1043B00094F859000228F2D0502080F31188BFF3FE
:1043C0004F8FBFF36F8FFEE7DFF898120868006821
:1043D000002804D15FF0FF307F49086005E00868DD
:1043E000C068C06840687C490860704704ED00E020
:1043F000DFF880020068002801D1012007E0DFF823
:1044000078020068002801D1022000E000207047F7
:10441000F8B504000021002839D0DFF82852E06AFE
:104420002A68D26A90422CD2A069002804D4286855
:10443000C06AD0F13800A061DFF81062142760690B
:10444000E16A79433144884216D1201D01F03EFCD7
:104450002868C06AE062DFF8F0010168E26A914210
:1044600001D2E16A0160211DE06A07FB00F706EB5B
:10447000070001F004FC02E02868C06AE062012144
:1044800005E0E06C2A68D26A904200D2012108005F
:10449000F2BD10B50400002100283DD0DFF8A401D2
:1044A0000068844207D0502080F31188BFF34F8FFB
:1044B000BFF36F8FFEE7206D002807D1502080F3F7
:1044C0001188BFF34F8FBFF36F8FFEE7206D401E43
:1044D0002065E06AE26C90421ED0206D00281BD15E
:1044E000201D01F0F3FBE06CE062E06AD0F13800DF
:1044F000A061DFF854010168E26A914201D2E16AE9
:104500000160211DDFF84421E36A1420434302EBDC
:10451000030001F0B4FB0121080010BD9CAF002492
:1045200070B504000122002844D0206D002807D176
:10453000502080F31188BFF34F8FBFF36F8FFEE7DA
:10454000E06C884200D3E16CE06A884232D0206D92
:1045500090422FD1DFF8EC000068844207D1502050
:1045600080F31188BFF34F8FBFF36F8FFEE7E06AD0
:10457000E162A269002A02D4D1F13801A161DFF819
:10458000CC501426616970432844814212D1201D09
:1045900001F09CFBDFF8B0000168E26A914201D2B1
:1045A000E16A0160211DE06A06FB00F605EB0600EA
:1045B00001F065FB70BD000094AE0024F01200080D
:1045C000DFF880100868002803D00868026D521CCC
:1045D000026508687047000098AF00248CAF002483
:1045E00088AF002490AF0024F8B505000C001848EF
:1045F0000668144F3868001D01F068FB15F1010FC3
:1046000007D1002C05D03868011D154801F037FB93
:1046100016E0AD1938684560B54206D23868011D0C
:104620001148006801F037FB0AE03868011D0D48A9
:10463000006801F030FB114801688D4200D205602E
:10464000F1BD000068AF002480AF002480970024F3
:104650007CAF00246CAE002480AE0024A8AE002401
:10466000BCAE00246CAF002470AF002478AF0024EF
:1046700074AF002484AF0024A0AF002498AF0024BE
:10468000001F5FF080730360001F4908490001604C
:10469000001F0FF21501016014380260001F7FF047
:1046A00002010160203870477248006810F1010F64
:1046B00007D0502080F31188BFF34F8FBFF36F8F67
:1046C000FEE7502080F31188BFF34F8FBFF36F8F49
:1046D000FEE7E0B568480168684A914207D150207A
:1046E00080F31188BFF34F8FBFF36F8FFEE7006831
:1046F0006349884207D1502080F31188BFF34F8F60
:10470000BFF36F8FFEE75F4801780191FF210170D1
:1047100001788DF800109DF8001011F050015A4AF0
:1047200011705A4907220A6007E00A68521E0A609F
:104730009DF8002052008DF800209DF80020120600
:10474000F3D40A68D2F10702042A07D0502080F37C
:104750001188BFF34F8FBFF36F8FFEE70A68120215
:104760000A600A6812F4E0620A6001990170484820
:10477000016851F470010160016851F070410160FD
:1047800001F0D6FA00203B49086001F035FB4148B2
:10479000016851F04041016001F01EFB00200EBD98
:1047A000502080F31188BFF34F8FBFF36F8F3149D3
:1047B0000A68521C0A60096801290AD13649096849
:1047C000090606D080F31188BFF34F8FBFF36F8FB8
:1047D000FEE7704727490868002807D1502080F37A
:1047E0001188BFF34F8FBFF36F8FFEE70868401E3D
:1047F00008600868002802D1002080F31188704703
:1048000080B5502080F31188BFF34F8FBFF36F8FB7
:10481000FFF7D2FB002803D05FF080501E490860EC
:10482000002080F3118801BDEFF3058010280FD31D
:104830001A490968085C14490978C0B2884207D24D
:10484000502080F31188BFF34F8FBFF36F8FFEE7C7
:104850000E4800681249096811F4E061884207D2E5
:10486000502080F31188BFF34F8FBFF36F8FFEE7A7
:10487000704700003400002400ED00E071C20F41D9
:1048800070C20F4100E400E0EEAF002450AF0024FE
:1048900020ED00E034EF00E004ED00E0880E0008B9
:1048A0000CED00E038B586B0002400F066FADFF8C1
:1048B0007005006800281DD000200490002003909F
:1048C00005AA03A904A801F0A5FADFF85855049831
:1048D000029003980190022000900023059ADFF8CF
:1048E00048150FF2D110FFF74FF92860286800280B
:1048F00000D00124002C07D1502080F31188BFF391
:104900004F8FBFF36F8FFEE7200007B030BD2DE95A
:10491000FC4105000E00170098462C2000F098FA84
:104920000400002C0BD0002084F828000194089883
:10493000009043463A003100280000F029F820009A
:10494000BDE8F6813EB52C240094009C2C2C07D0A9
:10495000502080F31188BFF34F8FBFF36F8FFEE7B6
:10496000079C009D002C07D1502080F31188BFF3D5
:104970004F8FBFF36F8FFEE7002C07D0022584F81E
:1049800028500194069D009500F002F820003EBDDD
:104990002DE9F84307000E0015009846002E07D1B8
:1049A000502080F31188BFF34F8FBFF36F8FFEE766
:1049B000099C002C14D0DDF8209000F0DEF927606F
:1049C000A661C4F81C80C4F82090201D01F054F9A1
:1049D000002D05D094F8280050F0040084F8280039
:1049E000BDE8F1837FB504001D000020002C07D135
:1049F000502080F31188BFF34F8FBFF36F8FFEE716
:104A0000DFF81C643368002B1CD0009101920294E3
:104A1000062911DAFFF7ECFC022806D1089A0023D8
:104A20006946306800F062FC0CE000230022694611
:104A3000306800F05BFC05E000232A00694630681E
:104A400000F01FFD04B070BD7CB504000D00DFF860
:104A5000DC030068C068C668301D01F037F996F8BD
:104A6000280040071BD523002A00B169091930002E
:104A700000F08CF8002818D00020009000232200BD
:104A800000213000FFF7AEFF002807D1502080F34F
:104A90001188BFF34F8FBFF36F8FFEE705E096F8E5
:104AA000280010F0FE0086F828003000316A8847A0
:104AB00073BD000080B5684600F041F8009900F031
:104AC00003F800F082F8F6E77CB505000C00FFF76C
:104AD000F7F9684600F046F80600009800282BD148
:104AE000002C08D1AE4206D3FFF7F0F931002800C0
:104AF000FFF7AAFF22E0002C08D0DFF8340300689B
:104B00000068002801D1012400E000242200AD1B30
:104B10002900DFF80C03006801F046F8FFF7D6F92A
:104B200000280BD15FF08050DFF808130860BFF356
:104B30004F8FBFF36F8F01E0FFF7C8F973BDDFF848
:104B4000EC2211680968002901D1012100E000214F
:104B500001600068002803D11068C068006800E0A8
:104B60000020704770B50400FFF722FA0500DFF857
:104B7000C8623068854204D200F0C5F80120206088
:104B800001E0002020603560280070BD10B50024D1
:104B9000416000618A420BD3D21A81698A4201D3F3
:104BA000012410E0011DA248006801F074F80AE039
:104BB0009A4203D2994201D3012404E0011D9B488B
:104BC000006801F068F8200010BD10B586B0FFE75E
:104BD000002201A99248006800F01FFD002800F0A3
:104BE0009080019800280ED502AA002A07D15020F3
:104BF00080F31188BFF34F8FBFF36F8FFEE791688B
:104C000050681268904701980028E1D4039C6069BD
:104C1000002802D0201D01F059F805A8FFF7A2FFD7
:104C20000200019800280ED002280CD00BD30428D3
:104C30003AD032D3062806D053D308282DD002D339
:104C4000092831D05CE094F8280050F0010084F885
:104C50002800029B0299A06941182000FFF796FFE7
:104C60000028B5D02000216A884794F82800400722
:104C7000AED5002000900023029AA069821800217E
:104C80002000FFF7AFFE0028A2D1502080F311884A
:104C9000BFF34F8FBFF36F8FFEE794F8280010F03B
:104CA000FE0084F8280093E794F8280050F00100F3
:104CB00084F828000298A061A069002809D0130098
:104CC0001000A1698A18110002002000FFF75EFFA2
:104CD0007EE7502080F31188BFF34F8FBFF36F8FB3
:104CE000FEE794F82800800703D4200000F03EF986
:104CF00005E094F8280010F0FE0084F8280067E72B
:104D000066E706B010BD7CB505E070603661311D08
:104D1000206800F0C0FF454C20680068002826D0BD
:104D20002068C06805682068C068C668301D00F04B
:104D3000CDFF3000316A884796F828004007EAD551
:104D4000B06940198542E0D30020009000232A007A
:104D500000213000FFF746FE002800D0DBE750209E
:104D600080F31188BFF34F8FBFF36F8FFEE720688A
:104D70002F490A682260086073BD7CB5FFF710FDFB
:104D8000274C206800281BD12C4D280000F065FF1F
:104D90002B4E300000F061FF244805602448066077
:104DA00000200090274B284A10210A2000F0D5F956
:104DB00020602068002803D02449206800F0CCFE41
:104DC000FFF708FD73BD10B50400002807D150207F
:104DD00080F31188BFF34F8FBFF36F8FFEE7FFF7AC
:104DE000DFFC94F82800C00701D4002400E001246F
:104DF000FFF7F0FC200010BD10B50400002807D11B
:104E0000502080F31188BFF34F8FBFF36F8FFEE701
:104E1000FFF7C6FCE469FFF7DDFC200010BD0000D1
:104E2000B8AF0024BCAF002498140008B0AF002431
:104E3000B4AF002404ED00E0C0AF0024D0AE0024E5
:104E4000E4AE00245CAB002478A70024A014000882
:104E50002DE9F84304000025FFF732F8DFF844920B
:104E6000D9F80000002801D100F0BDF88E4F386855
:104E700004426AD1002C15D08C480068041914F043
:104E8000070F0FD014F1080014F00704041B14F0EE
:104E9000070F07D0502080F31188BFF34F8FBFF367
:104EA0006F8FFEE7002C50D0DFF80482D8F80000A6
:104EB000A0424AD37F480100066801E0310036680D
:104EC0007068A04202D230680028F7D1D9F80000FB
:104ED00086423AD075480A68036802EB03053268D7
:104EE0000A60006840007168091B884214D206EB12
:104EF000040111F00700002807D0502080F311882A
:104F0000BFF34F8FBFF36F8FFEE77068001B4860E1
:104F10007460080000F096F8D8F800107068091A5C
:104F2000C8F800106448D8F800100268914202D214
:104F3000D8F8001001607168386801437160002082
:104F400030605E480168491C0160FEF7BFFF15F044
:104F50000700002807D0502080F31188BFF34F8F3F
:104F6000BFF36F8FFEE72800BDE8F28310B50100A4
:104F7000002837D04D480068404201EB00044A4900
:104F800060680A68104207D1502080F31188BFF38F
:104F90004F8FBFF36F8FFEE72068002807D05020A7
:104FA00080F31188BFF34F8FBFF36F8FFEE7606808
:104FB0000A68104216D02068002813D16268086879
:104FC00082436260FEF77CFF39490A686068821894
:104FD0000A60200000F036F839480168491C016079
:104FE000FEF774FF10BD10B44FF4004235480100C5
:104FF00011F0070F04D0C91DC908C900521A821840
:105000002C48016000234360521828480068121A97
:10501000D208D200234802600023046863600023A2
:1050200004682360521A4A60006808604868224A8F
:10503000106048681E4908605FF000401A49086027
:1050400010BC704710B41B4A00E01268116881421E
:10505000FBD3110053681944814204D15168406860
:1050600041185160100001004368194413689942C7
:1050700010D10C4913680C68A34208D0436811682A
:105080004968CB18436011680968016004E0096849
:10509000016001E011680160824200D0106010BC24
:1050A0007047000028AF00243CAF0024440D0008E6
:1050B0002CAF002414AF002430AF002434AF002400
:1050C00038AF00246001002438B504000D00002C26
:1050D00007D1502080F31188BFF34F8FBFF36F8F3C
:1050E000FEE7FFF75DFB2168E26B206C424301EBBA
:1050F0000200A0600020A063206860602168E26B6D
:10510000521E206C424301EB0200E0605FF0FF3072
:1051100084F8440084F84500002D12D1206900284D
:1051200017D014F11000FFF739F8002811D05FF004
:105130008050DFF8D8170860BFF34F8FBFF36F8F31
:1051400007E014F1100000F088FD14F1240000F0D5
:1051500084FDFFF73FFB012032BD38B51C0000285D
:1051600007D1502080F31188BFF34F8FBFF36F8FAB
:10517000FEE7002C07D1502080F31188BFF34F8F3A
:10518000BFF36F8FFEE7002A01D0002901D0012371
:1051900000E00023DBB2002B07D1502080F3118800
:1051A000BFF34F8FBFF36F8FFEE7002A01D10029B5
:1051B00001D1012300E00023DBB2002B07D15020F6
:1051C00080F31188BFF34F8FBFF36F8FFEE750233B
:1051D0000093009B502B07D0502080F31188BFF321
:1051E0004F8FBFF36F8FFEE7009B002C07D0049B0F
:1051F000012584F846500094DBB200F027F8200027
:1052000032BDF8B505000E001700002D07D1502063
:1052100080F31188BFF34F8FBFF36F8FFEE706FB5C
:1052200005F05030FFF714FE0400002C0CD02000D5
:1052300010F15002002084F8460000943B00DBB2DD
:105240003100280000F002F82000F2BD38B51C0043
:10525000049D002901D12D6000E02A60E8632964E3
:1052600001212800FFF730FF85F84C4031BD1CB507
:105270000C001300002807D1502080F31188BFF3E1
:105280004F8FBFF36F8FFEE7A04207D2502080F30D
:105290001188BFF34F8FBFF36F8FFEE7022100919C
:1052A00000220021FFF759FF002800D0846316BDBB
:1052B00010B50C00002807D1502080F31188BFF3EF
:1052C0004F8FBFF36F8FFEE7A04207D2502080F3CD
:1052D0001188BFF34F8FBFF36F8FFEE702220021CB
:1052E000FFF78FFF002800D0846310BDF7B50500DD
:1052F0000E001F000024002D07D1502080F31188DC
:10530000BFF34F8FBFF36F8FFEE7002E02D1286CE3
:10531000002801D1012000E00020C0B2002807D100
:10532000502080F31188BFF34F8FBFF36F8FFEE7DC
:10533000022F02D1E86B012801D1012000E00020FA
:10534000C0B2002807D1502080F31188BFF34F8FDF
:10535000BFF36F8FFEE7FFF74BF8002802D10298EA
:10536000002801D1012000E00020C0B2002838D17F
:10537000502080F31188BFF34F8FBFF36F8FFEE78C
:10538000029800285CD0002C03D16846FEF748FF45
:105390000124FFF71FFAFEF793FDFFF701FA95F9D5
:1053A000440010F1010F02D1002085F8440095F966
:1053B000450010F1010F02D1002085F84500FFF7EC
:1053C00009FA02A96846FEF737FF002852D12800E3
:1053D00000F0B3FB002837D1280000F069FBFEF78E
:1053E00075FDFFF7DDF9A86BE96B884201D3022F49
:1053F000C6D13A003100280000F002FB696A00299A
:105400000FD015F12400FEF7C9FE002814D05FF07C
:105410008050DFF8F8140860BFF34F8FBFF36F8F31
:105420000AE0002808D05FF08050DFF8E014086040
:10543000BFF34F8FBFF36F8FFFF7CCF901201FE051
:10544000FFF7C8F900201BE0029915F11000FEF7E4
:1054500064FE280000F02CFBFEF738FD0028C0D1C8
:105460005FF08050DFF8A4140860BFF34F8FBFF3E4
:105470006F8FB6E7280000F01BFBFEF727FD00202A
:10548000FEBD2DE9F84305000E0014009846002DDE
:1054900007D1502080F31188BFF34F8FBFF36F8F78
:1054A000FEE7002E02D1286C002801D1012000E087
:1054B0000020C0B2002807D1502080F31188BFF32C
:1054C0004F8FBFF36F8FFEE7B8F1020F02D1E86B89
:1054D000012801D1012000E00020C0B2002807D13E
:1054E000502080F31188BFF34F8FBFF36F8FFEE71B
:1054F000FFF79AF9EFF31187502080F31188BFF37B
:105500004F8FBFF36F8FA86BE96B884202D3B8F15E
:10551000020F21D195F94590A86B42463100280031
:1055200000F06EFA48465FF0FF3140B288420DD17C
:10553000686A002809D015F12400FEF72FFE002824
:1055400003D0002C01D00120206003E019F10109F3
:1055500085F84590012000E0002087F31188BDE820
:10556000F28370B505000C00002D07D1502080F3A8
:105570001188BFF34F8FBFF36F8FFEE7286C0028B1
:1055800007D0502080F31188BFF34F8FBFF36F8F88
:10559000FEE72868002802D1A868002801D1012070
:1055A00000E00020C0B2002807D1502080F311880D
:1055B000BFF34F8FBFF36F8FFEE7FFF735F9EFF3C0
:1055C0001186502080F31188BFF34F8FBFF36F8F88
:1055D000A86BE96B88421CD295F94510401CA86362
:1055E00008005FF0FF3240B290420DD1686A002897
:1055F0000DD015F12400FEF7D1FD002807D0002CB6
:1056000005D00120206002E0491C85F845100120EA
:1056100000E0002086F3118870BDF7B506000F008A
:105620000024002E07D1502080F31188BFF34F8F44
:10563000BFF36F8FFEE7002F02D1306C002801D13D
:10564000012000E00020C0B2002807D1502080F3E4
:105650001188BFF34F8FBFF36F8FFEE7FEF7C8FED1
:10566000002802D10298002801D1012000E000208A
:10567000C0B200280CD1502080F31188BFF34F8FA7
:10568000BFF36F8FFEE7300000F012FAFEF71EFC4A
:10569000FFF786F8B56B002D41D1029800285AD04B
:1056A000002C03D16846FEF7BBFD0124FFF792F8FA
:1056B000FEF706FCFFF774F896F9440010F1010FAD
:1056C00002D1002086F8440096F9450010F1010F40
:1056D00002D1002086F84500FFF77CF802A9684651
:1056E000FEF7AAFD00283AD1300000F018FA002891
:1056F000C9D0029916F12400FEF70FFD300000F02A
:10570000D7F9FEF7E3FB0028C2D15FF08050DFF845
:10571000FC110860BFF34F8FBFF36F8FB8E73900FC
:10572000300000F0B0F96D1EB563306900280ED06E
:1057300016F11000FEF732FD002808D05FF080500F
:10574000DFF8C8110860BFF34F8FBFF36F8FFFF70B
:1057500041F801200EE0FFF73DF800200AE030009C
:1057600000F0A6F9FEF7B2FB300000F0D8F90028EF
:105770008ED00020FEBD73B582B006000024002547
:10578000002E07D1502080F31188BFF34F8FBFF355
:105790006F8FFEE7306C002807D0502080F311880F
:1057A000BFF34F8FBFF36F8FFEE7FEF721FE002898
:1057B00002D10398002801D1012000E00020C0B2EE
:1057C00000280CD1502080F31188BFF34F8FBFF316
:1057D0006F8FFEE7300000F06BF9FEF777FBFEF706
:1057E000DFFFB06B00284BD10398002865D0002C58
:1057F00003D16846FEF714FD0124FEF7EBFFFEF728
:105800005FFBFEF7CDFF96F9440010F1010F02D1C6
:10581000002086F8440096F9450010F1010F02D1EE
:10582000002086F84500FEF7D5FF03A96846FEF77D
:1058300003FD00284FD1300000F071F90028C9D0D5
:105840003068002807D1FEF7ABFFB068FEF7E0FD37
:105850000500FEF7BFFF039916F12400FEF75DFC7B
:10586000300000F025F9FEF731FB0028B7D15FF0DA
:10587000805026490860BFF34F8FBFF36F8FAEE7AC
:10588000401EB0633068002802D1FEF799FEB06078
:10589000306900280DD016F11000FEF77FFC0028BB
:1058A00007D05FF0805019490860BFF34F8FBFF3F6
:1058B0006F8FFEF78FFF012026E0002D07D05020CC
:1058C00080F31188BFF34F8FBFF36F8FFEE7FEF7B2
:1058D00081FF002018E0300000F0EAF8FEF7F6FA49
:1058E000300000F01CF900283FF479AF002D0AD0F9
:1058F000FEF756FF300000F079F80100B068FEF7BF
:105900000FFEFEF767FF002004B070BD04ED00E05D
:105910002DE9F84305000E001400002D07D150209A
:1059200080F31188BFF34F8FBFF36F8FFEE7002E18
:1059300002D1286C002801D1012000E00020C0B273
:10594000002807D1502080F31188BFF34F8FBFF399
:105950006F8FFEE7FEF768FFEFF31188502080F3AA
:105960001188BFF34F8FBFF36F8FAF6B002F21D024
:1059700095F944903100280000F085F87F1EAF6350
:1059800048465FF0FF3140B288420DD128690028B7
:105990000ED015F11000FEF701FC002808D0002CF5
:1059A00006D00120206003E019F1010985F8449038
:1059B000012000E0002088F31188BDE8F28310B5D3
:1059C0000400002C07D1502080F31188BFF34F8FC3
:1059D000BFF36F8FFEE7200000F0D0F894F8460088
:1059E000002802D12000FFF7C1FA10BD416A00294A
:1059F00004D0006B0068D0F1380000E00020704750
:105A00002DE9F041060015000027B46B306C00282A
:105A100009D13068002831D1B068FEF73AFD07009F
:105A20000020B0602AE0002D0FD1326C756828008C
:105A300000F0FCF97068316C084470607068B168FF
:105A400088421BD33068706018E0326CD6F80C8046
:105A5000404600F0EBF9F068316C49420844F060D0
:105A6000F0683168884204D2B068316C4942084419
:105A7000F060022D02D1002C00D0641E641CB463BF
:105A80003800BDE8F08110B50C00016C00290ED083
:105A9000C168026C1144C160C1688268914201D33F
:105AA0000168C160026CC168200000F0BFF910BD40
:105AB00070B50400FEF774FE94F9455008E014F147
:105AC0002400FEF76BFB002801D0FEF7F6FB6D1EED
:105AD000280040B2012802DB606A0028EFD15FF0A5
