:020000040800F2
:10000000B0BC0024792D0108F1320108F332010857
:10001000F5320108F7320108F9320108000000004A
:10002000000000000000000000000000595400081B
:10003000FB32010800000000015400086934000888
:10004000C1370108C5370108C9370108CD37010894
:10005000D1370108D5370108D9370108DD37010844
:10006000FD320108E1370108E5370108E9370108E9
:10007000ED370108F1370108F5370108F9370108B4
:10008000FD37010801380108053801080938010861
:100090000D38010811380108153801081938010810
:1000A0001D380108213801082538010829380108C0
:1000B0002D38010831380108353801083938010870
:1000C0003D38010841380108453801084938010820
:1000D0004D380108513801085538010859380108D0
:1000E0005D38010861380108653801086938010880
:1000F0006D38010871380108753801087938010830
:100100007D380108813801088538010889380108DF
:100110008D3801089138010803330108953801082A
:10012000993801089D380108A1380108A53801084F
:10013000A93801080000000000000000AD380108E7
:10014000B1380108B5380108B9380108BD380108CF
:10015000C1380108C5380108C9380108CD3801087F
:10016000D1380108D5380108D9380108DD3801082F
:10017000E1380108E5380108E9380108ED380108DF
:10018000F1380108F5380108F9380108FD3801088F
:100190000139010805390108093901080D3901083B
:1001A00009330108113901080F3301081539010815
:1001B00015330108193901081D39010821390108D1
:1001C000253901082939010800000000000000005D
:1001D00000000000000000002D39010800000000B0
:1001E000000000000000000000000000000000000F
:1001F0000000000000000000313901083539010815
:10020000393901083D390108000000004139010871
:1002100045390108493901084D39010851390108AA
:1002200055390108593901085D39010800000000FD
:1002300061390108653901080000000069390108C9
:100240006D390108713901087539010879390108DA
:100250007D3901088139010885390108893901088A
:100260008D3901089139010895390108993901083A
:100270009D390108A1390108A539010800000000D5
:10028000A9390108AD39010800000000B1390108A1
:1002900000000000B5390108B9390108BD3901086D
:1002A000C1390108C5390108C93901080000000039
:1002B000000000000000000000000000000000003E
:1002C00000000090000000003C003C000D000B000E
:1002D0002200244040380090000000003C003C0018
:1002E0000D000B0022002440000000000000000070
:1002F00000000000000000007479706564546578A7
:10030000747320213D2030202626202254797065E8
:1003100064546578742064617461626173652068F7
:100320006173206E6F74206265656E20696E6974FA
:1003300069616C697A65642E22000000443A5C3978
:10034000395F50726F6A6563745C4769744875629F
:100350005C546F7563684746585C4D794170706CAA
:1003600069636174696F6E5C455741524D2F2E2E43
:100370002F4D6964646C6577617265732F53542FD8
:10038000746F7563686766782F6672616D65776FE5
:10039000726B2F696E636C7564655C746F756368EE
:1003A0006766782F5479706564546578742E687028
:1003B0007000000074797065645465787449642035
:1003C0003C206E756D6265724F6654797065645439
:1003D00065787473202626202274797065645465CC
:1003E00078744964206C6172676572207468616E0C
:1003F000206E756D6265724F6654797065645465E0
:100400007874732E2200000000000000000000003D
:1004100039570008AF5F0008BF5F0008EF650008AC
:100420009D36010879360108000000000000000038
:1004300000000000000000000000000000000000BC
:100440004B570008735700080361000800000000C4
:10045000000000006F7500080000000057780008D9
:100460009B830008278C00082337010833370108D5
:10047000000000000000000039570008AF5F0008CE
:10048000BF5F0008EF650008CF5F000879360108FC
:10049000000000000000000000000000000000005C
:1004A00000000000000000004B57000873570008D0
:1004B00003610008000000000000000000000000D0
:1004C00000000000EB3601080337010800000000BF
:1004D0000000000039570008AF5F0008BF5F000848
:1004E000EF650008CF5F00087936010800000000C2
:1004F00000000000000000000000000000000000FC
:10050000000000004B570008735700080361000803
:100510000000000000000000A78C000800000000A0
:10052000C38C00089B830008278C00082337010830
:100530003337010873697A656F662853637265659E
:100540006E5479706529203C3D20686561702E737A
:10055000637265656E53746F726167652E656C6555
:100560006D656E745F73697A6528292026262022BE
:100570005669657720616C6C6F636174696F6E207A
:100580006572726F723A20436865636B20746861AC
:100590007420616C6C2076696577732061726520C8
:1005A000616464656420746F2046726F6E74656E5A
:1005B00064486561703A3A56696577547970657335
:1005C00022000000443A5C39395F50726F6A6563FB
:1005D000745C4769744875625C546F75636847461C
:1005E000585C4D794170706C69636174696F6E5CC1
:1005F000455741524D2F2E2E2F4D6964646C6577FF
:10060000617265732F53542F746F756368676678D2
:100610002F6672616D65776F726B2F696E636C7593
:1006200064655C6D76702F4D56504170706C6963D7
:100630006174696F6E2E68707000000073697A656E
:100640006F662850726573656E7465725479706553
:1006500029203C3D20686561702E70726573656E5F
:1006600074657253746F726167652E656C656D6534
:100670006E745F73697A65282920262620225072BD
:100680006573656E74657220616C6C6F636174690B
:100690006F6E206572726F723A20436865636B20DB
:1006A0007468617420616C6C2070726573656E741F
:1006B0006572732061726520616464656420746F83
:1006C0002046726F6E74656E64486561703A3A5088
:1006D000726573656E74657254797065732200007B
:1006E00073697A656F66285472616E7354797065A8
:1006F00029203C3D20686561702E7472616E7369BB
:1007000074696F6E53746F726167652E656C656D89
:10071000656E745F73697A65282920262620225425
:1007200072616E736974696F6E20616C6C6F636166
:1007300074696F6E206572726F723A2043686563E8
:100740006B207468617420616C6C207472616E73CC
:100750006974696F6E732061726520616464656499
:1007600020746F2046726F6E74656E6448656170A8
:100770003A3A5472616E736974696F6E5479706538
:1007800073220000000000000000000000000000D4
:1007900000000000CF36010800000000000000004B
:1007A000000000000B9600080000000055AD000896
:1007B000F1AD000855AE00082337010833370108B2
:1007C000B1AE0008DF9F000873697A656F66285331
:1007D000637265656E5479706529203C3D206865BB
:1007E00061702E73637265656E53746F72616765B5
:1007F0002E656C656D656E745F73697A6528292056
:10080000262620225669657720616C6C6F636174BF
:10081000696F6E206572726F723A20436865636B10
:10082000207468617420616C6C2076696577732030
:1008300061726520616464656420746F2046726F24
:100840006E74656E64486561703A3A5669657754AE
:100850007970657322000000443A5C39395F507248
:100860006F6A6563745C4769744875625C546F7540
:1008700063684746585C4D794170706C6963617478
:10088000696F6E5C455741524D2F2E2E2F4D696476
:10089000646C6577617265732F53542F746F756341
:1008A000686766782F6672616D65776F726B2F6906
:1008B0006E636C7564655C6D76702F4D565041703B
:1008C000706C69636174696F6E2E687070000000EF
:1008D00073697A656F662850726573656E746572A8
:1008E0005479706529203C3D20686561702E7072D6
:1008F0006573656E74657253746F726167652E659A
:100900006C656D656E745F73697A6528292026268B
:10091000202250726573656E74657220616C6C6F15
:10092000636174696F6E206572726F723A204368FA
:1009300065636B207468617420616C6C20707265F3
:1009400073656E746572732061726520616464659D
:100950006420746F2046726F6E74656E64486561C2
:10096000703A3A50726573656E7465725479706549
:100970007322000073697A656F66285472616E7322
:100980005479706529203C3D20686561702E747231
:10099000616E736974696F6E53746F726167652EEF
:1009A000656C656D656E745F73697A6528292026AC
:1009B0002620225472616E736974696F6E20616CB7
:1009C0006C6F636174696F6E206572726F723A202A
:1009D000436865636B207468617420616C6C20747B
:1009E00072616E736974696F6E73206172652061E4
:1009F0006464656420746F2046726F6E74656E6403
:100A0000486561703A3A5472616E736974696F6EC9
:100A1000547970657322000000000000000000009F
:100A20000000000000000000B336010800000000D4
:100A30000000000000000000AB8E00080000000075
:100A4000E9AB0008D1AD000811AE0008233701085A
:100A50003337010899AE00084B9F000873697A6527
:100A60006F662853637265656E5479706529203C02
:100A70003D20686561702E73637265656E53746F97
:100A8000726167652E656C656D656E745F73697AFA
:100A900065282920262620225669657720616C6CFE
:100AA0006F636174696F6E206572726F723A204372
:100AB0006865636B207468617420616C6C20766972
:100AC0006577732061726520616464656420746F6A
:100AD0002046726F6E74656E64486561703A3A566E
:100AE000696577547970657322000000443A5C3977
:100AF000395F50726F6A6563745C476974487562E8
:100B00005C546F7563684746585C4D794170706CF2
:100B100069636174696F6E5C455741524D2F2E2E8B
:100B20002F4D6964646C6577617265732F53542F20
:100B3000746F7563686766782F6672616D65776F2D
:100B4000726B2F696E636C7564655C6D76702F4D8A
:100B500056504170706C69636174696F6E2E687075
:100B60007000000073697A656F662850726573655E
:100B70006E7465725479706529203C3D206865610A
:100B8000702E70726573656E74657253746F7261E6
:100B900067652E656C656D656E745F73697A65282F
:100BA00029202626202250726573656E7465722096
:100BB000616C6C6F636174696F6E206572726F72C5
:100BC0003A20436865636B207468617420616C6CC3
:100BD0002070726573656E74657273206172652032
:100BE000616464656420746F2046726F6E74656E14
:100BF00064486561703A3A50726573656E746572E7
:100C0000547970657322000073697A656F662854A1
:100C100072616E735479706529203C3D206865616E
:100C2000702E7472616E736974696F6E53746F7233
:100C30006167652E656C656D656E745F73697A6555
:100C4000282920262620225472616E736974696FE8
:100C50006E20616C6C6F636174696F6E2065727277
:100C60006F723A20436865636B2074686174206119
:100C70006C6C207472616E736974696F6E7320613D
:100C8000726520616464656420746F2046726F6EC3
:100C900074656E64486561703A3A5472616E736946
:100CA00074696F6E54797065732200002000000033
:100CB0000100000020000000010000001C000000F6
:100CC000010000001C000000010000000000000006
:100CD0000000000000000000000000008BAA0008D7
:100CE0004536010865360108693601080000000034
:100CF0002966000800000000D1770008FB76000894
:100D00006D360108F737000871360108575500089D
:100D100075A0000887770008373701083B370108BE
:100D200065A0000864656661756C745461736B003E
:100D30004755495F5461736B00000000240D0008A3
:100D400000000000000000000000000000000000A3
:100D50000002000018000000000000000000000079
:100D6000300D00080000000000000000000000003E
:100D7000000000000040000018000000000000001B
:100D800000000000286672616D655F6275666665C9
:100D9000725F73656D20213D203029202626202298
:100DA0004372656174696F6E206F66206672616D53
:100DB000656275666665722073656D6170686F72D5
:100DC00065206661696C656422000000443A5C3904
:100DD000395F50726F6A6563745C47697448756205
:100DE0005C546F7563684746585C4D794170706C10
:100DF00069636174696F6E5C546F756368474658C8
:100E00005C7461726765745C67656E657261746558
:100E1000645C4F5357726170706572732E637070AB
:100E200000000000287673796E635F7175657565E3
:100E300020213D203029202626202243726561741E
:100E4000696F6E206F66207673796E63206D6573AF
:100E500073616765207175657565206661696C658C
:100E6000642200000000000000000000E7AB000862
:100E700083B1000803B70008000000000000000074
:100E80000000000000000000000000000000000062
:100E900000000000F98C0008FB8C000803EF00083C
:100EA00000000000FCFFFFFF000000000000000049
:100EB000000000000000000000000000973301085F
:100EC00000000000D56D0008BD8C00087B0D0108F6
:100ED000C18C0008C37000086B710008957200088F
:100EE000EF2A0108772D0108000000000000000033
:100EF000EB35010800000000D56D00088F350108B2
:100F00007B0D0108B3350108C37000086B71000840
:100F100095720008EF2A0108772D010800000000F3
:100F20000000000000000000000000003F37010842
:100F30005B37010800000000000000007B3701085B
:100F400000000000D56D00087D9900087B0D0108A8
:100F5000B3350108C37000086B7100089572000872
:100F6000EF2A0108772D01080000000000000000B2
:100F7000DD8E0008DF8E00087D37010800000000CC
:100F8000FCFFFFFF00000000000000000000000068
:100F900000000000000000007F3701080000000092
:100FA000D56D0008A58E00087B0D0108A98E0008EC
:100FB000C37000086B71000895720008EF2A0108E1
:100FC000772D01080000000000000000BD37010877
:100FD00000000000D56D00088F3501087B0D010869
:100FE000B3350108C37000086B71000895720008E2
:100FF000EF2A0108772D0108000000000000000022
:101000000000000000000000813701089D37010842
:101010000000000000000000BF37010800000000D1
:10102000D56D0008E19E00087B0D0108B33501086D
:10103000C37000086B71000895720008EF2A010860
:10104000772D010800000000000000008B0F010850
:1010500081290108D3390108510F010857290108D6
:10106000D939010800000000000000000000000065
:10107000D5290108992A01087B290108910F010847
:1010800009110108EB2A0108ED2A010800000000FF
:10109000C7290108302026262022556E73757070EE
:1010A0006F7274656420466F726D61742122000056
:1010B000443A5C39395F50726F6A6563745C4769A2
:1010C000744875625C546F7563684746585C4D7927
:1010D0004170706C69636174696F6E5C546F7563A5
:1010E000684746585C7461726765745C67656E65D5
:1010F00072617465645C53544D3332444D412E63C8
:1011000070700000302026262022556E7375707096
:101110006F7274656420466F726D617421220000E5
:10112000443A5C39395F50726F6A6563745C476931
:10113000744875625C546F7563684746585C4D79B6
:101140004170706C69636174696F6E5C546F756334
:10115000684746585C7461726765745C67656E6564
:1011600072617465645C53544D3332444D412E6357
:1011700070700000443A5C39395F50726F6A656381
:10118000745C4769744875625C546F756368474660
:10119000585C4D794170706C69636174696F6E5C05
:1011A000546F7563684746585C7461726765745C18
:1011B00067656E6572617465645C53544D33324487
:1011C0004D412E6370700000A08601008038010040
:1011D000C0D40100000000007A0D0000FA000000F9
:1011E0005C120000A00F000080020000140000004C
:1011F00000000000801A060000E20400005307000F
:1012000000000000840300006400000014050000DA
:1012100058020000FA000000640000000000000016
:1012200040420F0000350C00804F1200000000000B
:10123000C201000032000000F401000004010000BF
:101240003C000000640000000000000000000000FE
:101250000000000000000000000000002D33010825
:101260005933010875736564203E2030000000008A
:10127000443A5C39395F50726F6A6563745C4769E0
:10128000744875625C546F7563684746585C4D7965
:101290004170706C69636174696F6E5C455741524F
:1012A0004D2F2E2E2F4D6964646C657761726573C6
:1012B0002F53542F746F7563686766782F66726159
:1012C0006D65776F726B2F696E636C7564655C74A6
:1012D0006F7563686766782F5465787450726F769F
:1012E000696465722E687070000000006F66667336
:1012F0006574203C2075736564000000443A5C39D5
:10130000395F50726F6A6563745C476974487562CF
:101310005C546F7563684746585C4D794170706CDA
:1013200069636174696F6E5C455741524D2F2E2E73
:101330002F4D6964646C6577617265732F53542F08
:10134000746F7563686766782F6672616D65776F15
:10135000726B2F696E636C7564655C746F7563681E
:101360006766782F5465787450726F766964657219
:101370002E6870700000000075736564203E203197
:1013800000000000443A5C39395F50726F6A65634F
:10139000745C4769744875625C546F75636847464E
:1013A000585C4D794170706C69636174696F6E5CF3
:1013B000455741524D2F2E2E2F4D6964646C657731
:1013C000617265732F53542F746F75636867667805
:1013D0002F6672616D65776F726B2F696E636C75C6
:1013E00064655C746F7563686766782F546578749C
:1013F00050726F76696465722E687070000000002C
:1014000000000000000000000000000000000000DC
:1014100000000000000000000000000000000000CC
:1014200000000000000000000000000000000000BC
:1014300000000000000000000000000000000000AC
:10144000000000000000000000000000DF3901087B
:10145000ED3901080000000000000000000000005D
:10146000000000000000000000000000000000007C
:10147000000000000000000000000000000000006C
:10148000E3390108F5390108000000000000000000
:10149000000000000000000000000000000000004C
:1014A000000000000000000000000000000000003C
:1014B00000000000E9390108013A010800000000BD
:1014C000000000000000000000000000000000001C
:1014D000000000006672616D654275666665722087
:1014E000213D2030202626202241206672616D6534
:1014F0006275666665722061646472657373206DDF
:10150000757374206265207365742200443A5C39F7
:10151000395F50726F6A6563745C476974487562BD
:101520005C546F7563684746585C4D794170706CC8
:1015300069636174696F6E5C455741524D2F2E2E61
:101540002F4D6964646C6577617265732F53542FF6
:10155000746F7563686766782F6672616D65776F03
:10156000726B2F696E636C7564655C746F7563680C
:101570006766782F68616C2F48414C2E6870700048
:10158000000000000000000000000000000000005B
:101590000B3A01080000000031ED000800000000D7
:1015A00000000000DDED0008810501088F0501083D
:1015B00097050108E9050108CBED000827EE0008B2
:1015C000153A0108530701082F0801087908010896
:1015D000000000000000000097090108D908010878
:1015E0000D0A0108BD0A0108170B010800000000E0
:1015F0001F0B0108273A01085BED000869ED0008A0
:1016000079ED000899ED0008000000002934010878
:10161000ED050108000000003D3A0108493A0108C3
:1016200000000000000000000000000001040108AC
:10163000C3ED0008C7ED0008D1ED0008A30C0108B8
:10164000230D0108753401082BEE000837EE000861
:10165000000000000000000000000000000000008A
:101660000B3A010800000000552601085926010820
:1016700000000000AD260108810501088F05010862
:1016800097050108E9050108A526010827EE0008CD
:10169000153A0108530701082F08010879080108C5
:1016A000000000000000000097090108D9080108A7
:1016B0000D0A0108BD0A0108170B0108000000000F
:1016C0001F0B0108273A0108012701080527010817
:1016D000092701080D27010800000000293401082E
:1016E000ED050108000000003D3A0108493A0108F3
:1016F00000000000000000000000000001040108DC
:10170000C3ED0008C7ED0008A9260108A30C0108D5
:10171000230D0108753401082BEE000837EE000890
:1017200075736564203E203000000000433A5C6A17
:10173000656E6B696E735C776F726B7370616365F6
:101740005C43726561746552656C65617365427571
:10175000696C645C6372656174655F72656C656118
:1017600073652D305C746F7563686766785C62754D
:10177000696C645F636F6E665C636F72655C636FF8
:10178000727465785F6D375C494152382E785C2EF3
:101790002E5C2E2E5C2E2E5C2E2E5C6672616D658C
:1017A000776F726B5C696E636C7564655C746F7582
:1017B00063686766782F5465787450726F766964D1
:1017C00065722E687070000075736564203E3D2060
:1017D0006E756D00433A5C6A656E6B696E735C771B
:1017E0006F726B73706163655C437265617465529F
:1017F000656C656173654275696C645C6372656193
:1018000074655F72656C656173652D305C746F75AE
:1018100063686766785C6275696C645F636F6E6647
:101820005C636F72655C636F727465785F6D375C63
:10183000494152382E785C2E2E5C2E2E5C2E2E5C6A
:101840002E2E5C6672616D65776F726B5C696E637C
:101850006C7564655C746F7563686766782F546532
:10186000787450726F76696465722E6870700000CB
:1018700075736564202B206E756D203C3D20736967
:101880007A650000433A5C6A656E6B696E735C77DB
:101890006F726B73706163655C43726561746552EE
:1018A000656C656173654275696C645C63726561E2
:1018B00074655F72656C656173652D305C746F75FE
:1018C00063686766785C6275696C645F636F6E6697
:1018D0005C636F72655C636F727465785F6D375CB3
:1018E000494152382E785C2E2E5C2E2E5C2E2E5CBA
:1018F0002E2E5C6672616D65776F726B5C696E63CC
:101900006C7564655C746F7563686766782F546581
:10191000787450726F76696465722E68707000001A
:1019200075736564203E203000000000433A5C6A15
:10193000656E6B696E735C776F726B7370616365F4
:101940005C43726561746552656C6561736542756F
:10195000696C645C6372656174655F72656C656116
:1019600073652D305C746F7563686766785C62754B
:10197000696C645F636F6E665C636F72655C636FF6
:10198000727465785F6D375C494152382E785C2EF1
:101990002E5C2E2E5C2E2E5C2E2E5C6672616D658A
:1019A000776F726B5C696E636C7564655C746F7580
:1019B00063686766782F5465787450726F766964CF
:1019C00065722E687070000075736564202B206E40
:1019D000756D203C3D2073697A650000433A5C6A6E
:1019E000656E6B696E735C776F726B737061636544
:1019F0005C43726561746552656C656173654275BF
:101A0000696C645C6372656174655F72656C656165
:101A100073652D305C746F7563686766785C62759A
:101A2000696C645F636F6E665C636F72655C636F45
:101A3000727465785F6D375C494152382E785C2E40
:101A40002E5C2E2E5C2E2E5C2E2E5C6672616D65D9
:101A5000776F726B5C696E636C7564655C746F75CF
:101A600063686766782F5465787450726F7669641E
:101A700065722E687070000075736564203E206F7B
:101A80006666736574000000433A5C6A656E6B6954
:101A90006E735C776F726B73706163655C437265C4
:101AA00061746552656C656173654275696C645CEF
:101AB0006372656174655F72656C656173652D3015
:101AC0005C746F7563686766785C6275696C645F87
:101AD000636F6E665C636F72655C636F727465786A
:101AE0005F6D375C494152382E785C2E2E5C2E2E6D
:101AF0005C2E2E5C2E2E5C6672616D65776F726B4C
:101B00005C696E636C7564655C746F756368676649
:101B1000782F5465787450726F76696465722E6898
:101B20007070000075736564203C2073697A6500ED
:101B3000433A5C6A656E6B696E735C776F726B7348
:101B4000706163655C43726561746552656C656163
:101B500073654275696C645C6372656174655F721C
:101B6000656C656173652D305C746F75636867665D
:101B7000785C6275696C645F636F6E665C636F72DC
:101B8000655C636F727465785F6D375C494152388C
:101B90002E785C2E2E5C2E2E5C2E2E5C2E2E5C66FD
:101BA00072616D65776F726B5C696E636C7564658D
:101BB0005C746F7563686766782F546578745072CB
:101BC0006F76696465722E68707000006F66667368
:101BD0006574203C2075736564000000433A5C6ABC
:101BE000656E6B696E735C776F726B737061636542
:101BF0005C43726561746552656C656173654275BD
:101C0000696C645C6372656174655F72656C656163
:101C100073652D305C746F7563686766785C627598
:101C2000696C645F636F6E665C636F72655C636F43
:101C3000727465785F6D375C494152382E785C2E3E
:101C40002E5C2E2E5C2E2E5C2E2E5C6672616D65D7
:101C5000776F726B5C696E636C7564655C746F75CD
:101C600063686766782F5465787450726F7669641C
:101C700065722E6870700000000000000000000017
:101C80004F3A0108513A0108533A0108553A010800
:101C9000573A0108000000000000000000000000AA
:101CA000000000000000000039570008AF5F000886
:101CB000BF5F0008EF650008CF5F000849570008C4
:101CC0000000000000000000000000000000000014
:101CD00000000000000000004B5700087357000888
:101CE00003610008696E646578203C205F73697A3F
:101CF00065000000433A5C6A656E6B696E735C77E1
:101D00006F726B73706163655C4372656174655279
:101D1000656C656173654275696C645C637265616D
:101D200074655F72656C656173652D305C746F7589
:101D300063686766785C6275696C645F636F6E6622
:101D40005C636F72655C636F727465785F6D375C3E
:101D5000494152382E785C2E2E5C2E2E5C2E2E5C45
:101D60002E2E5C6672616D65776F726B5C696E6357
:101D70006C7564655C746F7563686766782F6861FD
:101D80006C2F54797065732E687070005F73697A78
:101D900065203C2063617061636974792026262088
:101DA00022566563746F7220636170616369747930
:101DB000206578636565646564220000433A5C6A67
:101DC000656E6B696E735C776F726B737061636560
:101DD0005C43726561746552656C656173654275DB
:101DE000696C645C6372656174655F72656C656182
:101DF00073652D305C746F7563686766785C6275B7
:101E0000696C645F636F6E665C636F72655C636F61
:101E1000727465785F6D375C494152382E785C2E5C
:101E20002E5C2E2E5C2E2E5C2E2E5C6672616D65F5
:101E3000776F726B5C696E636C7564655C746F75EB
:101E400063686766782F68616C2F54797065732EAC
:101E500068707000696E646578203C205F73697AF1
:101E600065000000433A5C6A656E6B696E735C776F
:101E70006F726B73706163655C4372656174655208
:101E8000656C656173654275696C645C63726561FC
:101E900074655F72656C656173652D305C746F7518
:101EA00063686766785C6275696C645F636F6E66B1
:101EB0005C636F72655C636F727465785F6D375CCD
:101EC000494152382E785C2E2E5C2E2E5C2E2E5CD4
:101ED0002E2E5C6672616D65776F726B5C696E63E6
:101EE0006C7564655C746F7563686766782F68618C
:101EF0006C2F54797065732E6870700000000000BC
:101F0000000000000000000000000000418D0008FB
:101F1000AD8D0008418F00089B8F00080000000075
:101F200000000000833A0108BB8F00082B900008D6
:101F3000593A01085D3A0108613A0108653A010819
:101F400000000000693A01086B3A01086D3A010887
:101F50006F3A01084D90000800000000713A010836
:101F6000E58D0008EF8D0008287769647468203ECD
:101F70002030292026262028686569676874203E5D
:101F8000203029202626202243616E6E6F74206245
:101F90006C697420656D70747920726563742200B9
:101FA000433A5C6A656E6B696E735C776F726B73D4
:101FB000706163655C43726561746552656C6561EF
:101FC00073654275696C645C6372656174655F72A8
:101FD000656C656173652D305C746F7563686766E9
:101FE000785C6672616D65776F726B5C736F75722A
:101FF00063655C746F7563686766785C68616C5C68
:1020000048414C2E6370700028626C69744F702ECA
:102010006F7065726174696F6E2026206765744207
:102020006C69744361707328292920262620226256
:102030006C6974206F7065726174696F6E206E6F69
:102040007420737570706F727465642200000000F4
:10205000287769647468203E2030292026262028AD
:10206000686569676874203E203029202626202272
:1020700043616E6E6F742066696C6C20656D707460
:10208000792072656374220028626C69744F702E27
:102090006F7065726174696F6E2026206765744287
:1020A0006C697443617073282929202626202262D6
:1020B0006C69742066696C6C206F706572617469FC
:1020C0006F6E206E6F7420737570706F72746564BC
:1020D000220000005553455F414E494D4154494F40
:1020E0004E5F53544F524147452026262022416ED1
:1020F000696D6174696F6E2073746F7261676520BA
:10210000726571756972656420666F7220746869A2
:1021100073206F7065726174696F6E2E20536565F0
:102120002048414C3A3A7365744672616D65427558
:102130006666657253746172744164647265737328
:10214000220000006672616D6542756666657241C7
:102150006C6C6F6361746F72202626202248414C9C
:102160003A3A6672616D65427566666572416C6C7D
:102170006F6361746F72206E6F7420696E69746929
:10218000616C697A656421220000000021224841C7
:102190004C3A3A524546524553485F535452415483
:1021A0004547595F5041525449414C5F4652414D59
:1021B00045425546464552206F6E6C7920737570C6
:1021C000706F727473203136626974206F722032BE
:1021D00034626974206672616D65627566666572E7
:1021E00022000000302026262022556E7375707064
:1021F0006F72746564206269746D617020666F72BD
:102200006D617420696E20676574426974446570FD
:10221000746828292200000000000000000000006F
:1022200000000000000000000000000000000000AE
:10223000000000000000000000000000000000009E
:10224000000000000000000000000000000000008E
:10225000000000000000000000000000953A0108A6
:1022600000000000D56D00088F3501087B0D0108C6
:10227000B3350108C37000086B710008957200083F
:10228000EF2A0108772D010800000000000000007F
:10229000000000000000000021120108591A010886
:1022A00000000000D91B0108F11E0108991F010858
:1022B00000000000973A0108C13401080000000046
:1022C000000000000000000000000000000000000E
:1022D00000000000A520010848414C3A3A4652410E
:1022E0004D455F4255464645525F57494454482044
:1022F0003E2030202626202248414C206861732051
:102300006E6F74206265656E20696E697469616CB8
:10231000697A65642079657422000000433A5C6A3A
:10232000656E6B696E735C776F726B7370616365FA
:102330005C43726561746552656C65617365427575
:10234000696C645C6372656174655F72656C65611C
:1023500073652D305C746F7563686766785C627551
:10236000696C645F636F6E665C636F72655C636FFC
:10237000727465785F6D375C494152382E785C2EF7
:102380002E5C2E2E5C2E2E5C2E2E5C6672616D6590
:10239000776F726B5C696E636C7564655C706C61A1
:1023A00074666F726D2F6472697665722F6C6364E8
:1023B0002F4C434432346270702E687070000000FD
:1023C000000000000000000000000000000000000D
:1023D00000000000000000000000000000000000FD
:1023E00000000000000000000000000000000000ED
:1023F00000000000000000000000000000000000DD
:1024000000000000000000000000000000000000CC
:1024100000000000000000000000000000000000BC
:1024200000000000000000000000000000000000AC
:10243000000000000000000000000000000000009C
:10244000000000000000000000000000000000008C
:10245000000000000000000000000000000000007C
:10246000000000000000000000000000000000006C
:10247000000000000000000000000000000000005C
:10248000000000000000000000000000000000004C
:10249000000000000000000000000000000000003C
:1024A000000000000000000000000000000000002C
:1024B000000000000000000000000000000000001C
:1024C000000000000000000000000000000000000C
:1024D00000000000000000000000000000000000FC
:1024E00000000000000000000000000000000000EC
:1024F00000000000000000000000000000000000DC
:1025000000000000000000000000000000000000CB
:1025100000000000000000000000000000000000BB
:1025200000000000000000000000000000000000AB
:10253000000000000000000000000000000000009B
:10254000000000000000000000000000000000008B
:10255000302026262022556E737570706F72746558
:1025600064206269746D617020666F726D617420A1
:10257000666F7220323462707020646973706C61AF
:1025800079220000433A5C6A656E6B696E735C7712
:102590006F726B73706163655C43726561746552E1
:1025A000656C656173654275696C645C63726561D5
:1025B00074655F72656C656173652D305C746F75F1
:1025C00063686766785C6672616D65776F726B5C75
:1025D000736F757263655C706C6174666F726D5C4D
:1025E0006472697665725C6C63645C4C434432343B
:1025F0006270702E63707000302026262022556E87
:10260000737570706F72746564206269746D617047
:1026100020666F726D617420696E204C43443234C1
:102620003A3A626C6974436F7079212200000000AD
:102630002848414C3A3A676574496E7374616E6319
:102640006528292D3E6765744672616D6552656621
:1026500072657368537472617465677928292021E3
:102660003D2048414C3A3A524546524553485F5303
:10267000545241544547595F5041525449414C5F6F
:102680004652414D45425546464552292026262070
:1026900022436F7079206672616D6562756666654A
:1026A0007220726567696F6E20746F206D656D6F43
:1026B0007279206973206E6F7420737570706F72F9
:1026C00074656420696E205061727469616C204683
:1026D00072616D65627566666572206D6F646521F5
:1026E0002200000028626D702E676574466F726D5F
:1026F00061742829203D3D206672616D65627566B2
:10270000666572466F726D6174282929202626201D
:102710002254686520676976656E206269746D6110
:10272000702068617320616E20696E76616C6964E7
:1027300020666F726D6174220000000028626D7067
:102740005F6461746120213D2030292026262022EB
:102750004E6F206D656D6F727920616C6C6F636177
:1027600074656420666F7220746865206769766599
:102770006E204269746D61702200000028616273EE
:10278000526563742E696E636C756465732876692F
:10279000735265637429292026262022566973699D
:1027A000626C6520726567696F6E206D7573742049
:1027B000626520696E73696465206162736F6C7510
:1027C000746520726567696F6E22000030202626CE
:1027D00020224C385F52474235363520496E6465B9
:1027E000786564204269746D617020666F726D61F6
:1027F00074206973206E6F7420737570706F7274BB
:102800006564206F6E2032342062697420646973BD
:10281000706C6179732122003020262620224C38EA
:102820005F52474235363520496E646578656420CD
:102830004269746D617020666F726D617420697396
:10284000206E6F7420737570706F72746564206F82
:102850006E20323462707020646973706C617973B9
:10286000212200002A7265696E7465727072657447
:102870005F636173743C636F6E73742075696E740B
:1028800031365F742A3E28636C7574446174612923
:10289000203D3D204269746D61703A3A434C555475
:1028A0005F464F524D41545F4C385F41524742386A
:1028B000383838002A7265696E7465727072657492
:1028C0005F636173743C636F6E73742075696E74BB
:1028D00031365F742A3E28636C75744461746129D3
:1028E000203D3D204269746D61703A3A434C555425
:1028F0005F464F524D41545F4C385F524742383823
:10290000380000000000000000000000000000008F
:10291000000000008BA100084FA90008418F0008AB
:102920009B8F00080000000000000000833A0108AF
:10293000BB8F00082B900008593A01085D3A010846
:10294000613A0108653A010800000000CF3A010829
:102950006B3A01086D3A01086F3A01084D90000882
:1029600000000000713A01089B3A010800000000D5
:1029700019A900086269746D61707320213D2030CF
:1029800020262620224269746D6170206461746182
:102990006261736520686173206E6F742062656583
:1029A0006E20696E697469616C697A65642E2200B3
:1029B000433A5C6A656E6B696E735C776F726B73BA
:1029C000706163655C43726561746552656C6561D5
:1029D00073654275696C645C6372656174655F728E
:1029E000656C656173652D305C746F7563686766CF
:1029F000785C6275696C645F636F6E665C636F724E
:102A0000655C636F727465785F6D375C49415238FD
:102A10002E785C2E2E5C2E2E5C2E2E5C2E2E5C666E
:102A200072616D65776F726B5C696E636C756465FE
:102A30005C746F7563686766782F4269746D617046
:102A40002E68707000000000000000000000000010
:102A5000000000000000000055A800084FA9000871
:102A6000418F00089B8F000800000000000000005C
:102A7000833A0108BB8F00082B900008593A0108DF
:102A80005D3A0108613A0108653A0108000000005A
:102A9000CF3A01086B3A01086D3A01086F3A010814
:102AA0004D90000800000000713A01089B3A0108AF
:102AB0000000000019A9000800000000000000004C
:102AC000000000000000000013A50008BB3A010848
:102AD000418F00089B8F00080000000000000000EC
:102AE000833A0108BB8F00082B900008593A01086F
:102AF0005D3A0108613A0108653A010800000000EA
:102B0000693A01086B3A01086D3A01086F3A010809
:102B10004D90000800000000713A0108000000001C
:102B200000000000C5A300082BA40008DFA60008D1
:102B30000000000000000000000000000000000095
:102B40003F910008F1930008418F00089B8F000817
:102B50000000000000000000BF910008BB8F0008CB
:102B60002B900008593A01085D3A0108613A0108C2
:102B7000653A010800000000693A01086B3A010853
:102B80006D3A01086F3A01084D90000800000000FE
:102B90001F940008899000080591000800000000BB
:102BA0000000000000000000000000000D9200087E
:102BB00005940008000000000000000026642021A9
:102BC0003D2074686973202626202243616E6E6F53
:102BD0007420616464204472617761626C65207462
:102BE0006F2073656C662200433A5C6A656E6B69A0
:102BF0006E735C776F726B73706163655C43726553
:102C000061746552656C656173654275696C645C7D
:102C10006372656174655F72656C656173652D30A3
:102C20005C746F7563686766785C6672616D657702
:102C30006F726B5C736F757263655C746F756368DC
:102C40006766785C636F6E7461696E6572735C430E
:102C50006F6E7461696E65722E63707000000000A3
:102C6000642E706172656E74203D3D2030202626F2
:102C7000202243616E6E6F7420616464204472612F
:102C80007761626C65206D756C7469706C65207419
:102C9000696D6573220000006865616420213D2034
:102CA0002664202626202243616E6E6F74206164A4
:102CB00064204472617761626C65206D756C746923
:102CC000706C652074696D6573220000000000005F
:102CD000FFFFFFFFFFFFFFFF0000000001000000FB
:102CE000000000000000000001000000FFFFFFFFE7
:102CF000FFFFFFFF01000000FFFFFFFFFFFFFFFFDF
:102D000001000000010000000100000000000000C0
:102D10000000000000000000000000001335010862
:102D2000ED340108418F00089B8F0008000000006F
:102D300000000000833A0108BB8F00082B900008B8
:102D4000593A01085D3A0108613A0108653A0108FB
:102D500000000000693A01086B3A01086D3A010869
:102D60006F3A01084D90000800000000713A010818
:102D70000000000000000000AB280108BB2801088B
:102D8000D528010800000000000000001F290108EC
:102D90004D2901083020262620224C6F636B467295
:102DA0006565444D415F5175657565206F76657247
:102DB000666C6F7721220000433A5C6A656E6B692E
:102DC0006E735C776F726B73706163655C43726581
:102DD00061746552656C656173654275696C645CAC
:102DE0006372656174655F72656C656173652D30D2
:102DF0005C746F7563686766785C6672616D657731
:102E00006F726B5C736F757263655C746F7563680A
:102E10006766785C68616C5C444D412E637070003D
:102E2000216973456D707479282920262620224C4B
:102E30006F636B46726565444D415F51756575659D
:102E400020756E646572666C6F7721220000000049
:102E5000302026262022444D413A3A657865637534
:102E60007465282920696E76616C696420426C69FA
:102E7000744F7022000000006269746D61707320ED
:102E8000213D203020262620224269746D61702069
:102E9000646174616261736520686173206E6F7430
:102EA000206265656E20696E697469616C697A6516
:102EB000642E2200433A5C6A656E6B696E735C77C0
:102EC0006F726B73706163655C43726561746552A8
:102ED000656C656173654275696C645C637265619C
:102EE00074655F72656C656173652D305C746F75B8
:102EF00063686766785C6672616D65776F726B5C3C
:102F0000736F757263655C746F7563686766785C10
:102F10004269746D61702E63707000006964203CBA
:102F2000204249544D41505F414E494D4154494F13
:102F30004E5F53544F524147452026262022496E6A
:102F40007465726E616C206572726F722C20617490
:102F500074656D7074696E6720746F206765742086
:102F600061646472657373206F6620696E76616C4C
:102F7000696420696422000072657320262620227D
:102F80004E6F7420616C6C206269746D6170732087
:102F9000636F756C6420626520636163686564219A
:102FA0002200000030202626202244796E616D69BF
:102FB00063204269746D617020437265617465209D
:102FC0006E6F7420737570706F7274656420666FB5
:102FD0007220435553544F4D206269746D617020C7
:102FE000666F726D61742200696420213D20424940
:102FF000544D41505F494E56414C494420262620AD
:103000002243616E6E6F7420636F70792042495461
:103010004D41505F494E56414C494422000000004A
:103020006964203C20286E756D6265724F66426946
:10303000746D617073202B206E756D6265724F66C2
:1030400044796E616D69634269746D6170732920A2
:1030500026262022496C6C6567616C204269746D7C
:1030600061704964220000002821697344796E610F
:103070006D69634269746D617028696429207C7C84
:103080002064796E4269746D6170735B6964202D90
:10309000206E756D6265724F664269746D61707302
:1030A0005D2E696E75736529202626202243616E88
:1030B0006E6F7420636F70792066726F6D20646527
:1030C0006C657465642064796E616D696320626902
:1030D000746D617022000000216269746D61702E50
:1030E000676574457874726144617461282920268B
:1030F000262022416C706861206368616E6E656C89
:10310000206E6F7420737570706F727465642066C2
:103110006F722064796E616D6963206269746D619C
:103120007073220030202626202244796E616D695A
:1031300063204269746D617020437265617465201B
:10314000436F7079206E6F7420737570706F727436
:10315000656420666F7220435553544F4D20626959
:10316000746D617020666F726D61742200000000E2
:10317000636C757453697A65203E203020262620C2
:10318000636C757453697A65203C3D203235362076
:103190002626202250616C657474652073697A65F7
:1031A000206D757374206265206265747765656E45
:1031B000203120616E6420323536220069734479F3
:1031C0006E616D69634269746D617028696429205C
:1031D0002626202243616E206F6E6C792066696C12
:1031E0006C2064796E616D6963206269746D6170D1
:1031F000732200006269746D61702E676574466F9A
:10320000726D61742829203D3D2048414C3A3A6C4A
:10321000636428292E6672616D65627566666572E3
:10322000466F726D61742829202626202243616E24
:10323000206F6E6C792066696C6C206E61746976A3
:1032400065206269746D617020666F726D61747360
:1032500022000000286373697A65203E2028736984
:103260007A655F63616368655F7461626C65732032
:103270002B2073697A655F64796E616D69635F6243
:1032800069746D61705F646174612929202626204C
:1032900022496E73756666696369656E7420636141
:1032A0006368652073746F726167652200000000B7
:1032B0006964203C204249544D41505F414E494D84
:1032C0004154494F4E5F53544F52414745202626A3
:1032D0002022496E7465726E616C206572726F7225
:1032E0002C20617474656D7074696E6720746F2032
:1032F00067657453697A654F664269746D617020C1
:103300007769746820696E76616C696420696422EB
:103310000000000064617461202626202244796E3A
:10332000616D6963206269746D6170206C6F737484
:1033300020706978656C20706F696E746572220008
:1033400030202626202243616368696E672F447906
:103350006E616D6963206269746D617073206E6F58
:103360007420737570706F7274656420666F72205C
:1033700073656C6563746564206269746D61702047
:10338000666F726D6174220030202626202244610F
:1033900074612073697A65206F662042575F524CD2
:1033A000452063616E6E6F742062652063616C639B
:1033B000756C6174656422003020262620224361EA
:1033C0006368696E67206E6F7420737570706F72BA
:1033D00074656420666F722073656C6563746564E0
:1033E000206269746D617020666F726D6174220075
:1033F00000000000000000000000000000000000CD
:103400000B3B01080B3B0108418F00089B8F000814
:103410000000000000000000833A0108BB8F000894
:103420002B900008593A01085D3A0108613A0108F9
:10343000653A010800000000CF3A01086B3A010824
:103440006D3A01086F3A01084D9000080000000035
:10345000713A01089B3A01080000000000487047DB
:10346000C00200080220704780B5DFF850020168F2
:1034700000F0B9FD012803D0BDE8014000F059BFBC
:1034800001BDEFF3058000B16CE0DFF8341208688D
:1034900010B901220A6070474FF0FF3070470000FA
:1034A00010B5EFF3058008B100F0A2B9DFF8100203
:1034B0000168012909D10022DFF82C331A70022497
:1034C000046000F037FB002010BD4FF0FF3010BD4E
:1034D000F8B584B000230393EFF30583002B3ED1AE
:1034E00003003CD080251826002462B3136803B182
:1034F0001C4693691BB11E0004D0392E02D21379E9
:10350000DF0702D5002005B0F0BD536903B19D0867
:103510009768D2F80CC087B1BCF15C0F1FD3126959
:10352000002A18BF002B1AD001920B4602972A4698
:103530000096214600F064F910E0BCF1000F04BFD2
:103540001269002A0BD103AB009601930B46AAB275
:10355000214600F0DBF9012801D0002003900398F8
:1035600005B0F0BD6FF00500704710B5EFF30581B1
:1035700011B16FF0050403E0002408B100F0A2FAD5
:10358000204610BD7CB50E4614460025EFF305819C
:1035900000293FD100283DD0B0423BD344B1A168BF
:1035A000E26819B1502A35D3012101E0002A31D156
:1035B00001281CD1012907D1032500220095A36809
:1035C000002100F0FDFE03E00322002100F036FFA1
:1035D00005001FD0BEB100230022002100F0BEFF75
:1035E000012810D02846002501F0C6FA12E0012972
:1035F00004D1A268314600F076FF02E0314600F0C7
:1036000091FF050006D0002C14BF21680021284638
:1036100001F03FFB284676BD38B50C46002518B1B1
:10362000EFF30581B1B114B16FF003051DE0009512
:103630006A46002101F05AFA012814D10098A0B17D
:103640004FF08051DFF8A4211160BFF34F8FBFF31B
:103650006F8F0AE0214601F07DF9012805D014B1F1
:103660006FF0010501E06FF00205284632BD1CB580
:10367000002410B96FF003041CE0EFF3058189B159
:103680000094694601F07AF8012811D1009888B1B8
:103690004FF08051DFF854211160BFF34F8FBFF31B
:1036A0006F8F07E00023002200F058FF012801D0AF
:1036B0006FF00204204616BD0000000010E000E09C
:1036C00090AC0024F8B514460025EFF305823ABB10
:1036D000002818BF002923D0E4B1A368E26893B1A1
:1036E000502A1DD32269DAB1666901FB00F7BE4298
:1036F00016D3009500F064FE050011D0002C14BF15
:10370000216800210AE0002A04BF2369002B07D1A9
:1037100062692AB9002200F091FEEDE701F0B9FAE2
:103720002846F2BD38B51C460025EFF30582AAB144
:10373000002818BF002915D0A4B900946A4600F0EB
:10374000C2FF01281BD10098D8B14FF08051274A01
:103750001160BFF34F8FBFF36F8F12E0002818BFC7
:10376000002902D16FF003050BE00023224600F090
:10377000F5FE012805D014B16FF0010501E06FF0EE
:103780000205284632BD000038B51C460025EFF37F
:103790000582AAB1002818BF002915D0A4B900934A
:1037A0006A4601F0A3F901281AD10098D0B14FF070
:1037B00080510E4A1160BFF34F8FBFF36F8F11E03E
:1037C000002818BF002902D16FF003050AE0224645
:1037D00001F022F8012805D014B16FF0010501E0D5
:1037E0006FF00205284632BD1FED00E004ED00E059
:1037F0006FF0050010BD81888079081880B270478D
:103800002DE9FC4780460B980F461646994638B975
:10381000502080F31188BFF34F8FBFF36F8FFEE707
:103820000C9C3CB9502080F31188BFF34F8FBFF33D
:103830006F8FFEE75C210091009A5C2A07D0502030
:1038400080F31188BFF34F8FBFF36F8FFEE70A9DA0
:103850000099206304F1580A0223A5228AF8013056
:10386000206BB10001F094FA226B02EB86010E1F6F
:10387000F608F600390006F0070004F1340721D0FD
:1038800000223B4691F800C083F800C00878B0B130
:1038900091F801E083F801E0487880B191F802C026
:1038A00083F802C0887850B191F803C083F803C050
:1038B000C87820B1121D1B1D091D102AE2D300205B
:1038C000F87300E03970372D88BF3725E562BD6198
:1038D000C5F13805F861201D01F084FA04F11800E3
:1038E00001F080FA24610020A561002164624A464B
:1038F000386230468AF80010414600F06FFC2060C4
:10390000204600F081F82046BDE8F6872DE9F84F03
:10391000804616460F469946B00001F0A3FA5FEACA
:10392000000A42D05C2001F09DFA04003AD00A9DC2
:10393000C4F830A004F1580A00208AF80100206B76
:10394000A522B10001F024FA216B01EB8602161FBB
:10395000F608F600390006F0070004F1340728D015
:1039600000223B4691F800C083F800C00878B0B14F
:1039700091F801E083F801E0487880B191F802C045
:1039800083F802C0887850B191F803C083F803C06F
:10399000C87820B1121D1B1D091D102AE2D300207A
:1039A000F87307E0504601F0E7FA4FF0FF30BDE84A
:1039B000F28F3870372D88BF3725DDF82CB0E562DF
:1039C000BD61C5F13805F861201D01F00BFA04F165
:1039D000180001F007FA24610020A561002164624B
:1039E0004A46386230468AF80010414600F0F6FB3D
:1039F0002060BBF1000F18BFCBF80040204600F05C
:103A000003F80120BDE8F28FF8B50546DFF824651C
:103A100000F065FCF16C491CF164B06A28BBB5622A
:103A2000F16C012929D1DFF8107538243846143794
:103A300001F0CBF9641EF9D106F1740006F1880497
:103A400001F0C3F9204601F0C0F9304601F0BDF99C
:103A500006F1140001F0B9F906F1380001F0B5F9EA
:103A600006F17401F162346307E0B06D28B9E96AC8
:103A7000B06AC26A914228BFB562B06EEA6A401C61
:103A80006864716D914238BF726502EB8203B06663
:103A9000DFF8A404291D00EB830001F0A6F900F073
:103AA00037FCB06D68B1B16AEA6AC86A904208D260
:103AB0004FF08051DFF8D8341960BFF34F8FBFF358
:103AC0006F8FF1BD70B5040029D0DFF86854286FFE
:103AD00038B1502181F31188BFF34F8FBFF36F8F3F
:103AE000FEE7286F401C28672E6DA96A081D01F0AB
:103AF000A4F9AA6AA419B4425460A86A04D2011DA8
:103B0000286B01F080F907E0011DE86A01F07BF9FC
:103B1000E86E844238BFEC6600F052F840B94FF0CE
:103B20008050DFF86C140860BFF34F8FBFF36F8FC6
:103B300070BD000080B586B00020059003AA0490F7
:103B400004A905A801F06EFA059A049802920021D2
:103B5000039A01900091002314A10FF2E130FFF7C6
:103B60004FFEA8B101F068FA012813D1502080F36C
:103B70001188BFF34F8FBFF36F8FDFF8B8034FF09B
:103B8000FF31C166012282650023036500F048FB16
:103B900007B000BD10F1010FFAD1502080F3118859
:103BA000BFF34F8FBFF36F8FFEE7000049444C45D2
:103BB00000000000DFF87C03016F491C01677047BB
:103BC00070B5DFF870630024306F002538B95021DC
:103BD00081F31188BFF34F8FBFF36F8FFEE700F0C3
:103BE0007EFB306F401E3067316F00293DD1F06C95
:103BF000F0B93AE0F168CC6804F1180001F01DF961
:103C0000201D01F01AF9E06A716D814238BF7065BC
:103C100000EB8003DFF82023211D02EB830001F07D
:103C2000E4F8E16AB06AC26A914224BF01213166B8
:103C300030680028DED10CB100F0C6F9F46D44B153
:103C400000F01BF808B101203066641EF8D1002195
:103C5000F165306E48B14FF08051DFF83423012513
:103C60001160BFF34F8FBFF36F8F00F051FB2846F9
:103C700070BDDFF8C002006D7047F8B5DFF8B472B0
:103C80000026386F002855D13C6D641C3C6513D16B
:103C9000F86A006838B1502181F31188BFF34F8F63
:103CA000BFF36F8FFEE7F86A396BF9623863786E9D
:103CB000401C786600F088F9F86E84422AD322E02E
:103CC000F96ACA68D5686868844231D3281D01F052
:103CD000B4F8A86A18B105F1180001F0AEF8E86A66
:103CE000796D814238BF786500EB8003DFF84822A8
:103CF000291D02EB830001F078F8E96AB86AC26A0C
:103D0000914228BF0126F86A00680028D8D14FF0F8
:103D1000FF31F966B86A884AC06A00EB8001890001
:103D20005358022B28BF0126386E30B1012604E01B
:103D3000F866EFE7F86D401CF8653046F2BD7D4A45
:103D4000106F10B10121116670471066506DDFF8D9
:103D5000843400EB800103EB810C00E0401E5CF832
:103D6000141949B90028F9D1502080F31188BFF304
:103D70004F8FBFF36F8FFEE700EB800103EB8101F4
:103D80004B685B6801F1080C4B60634504BF5B68DE
:103D90004B604968CB6893625065704770B50D46BB
:103DA00038B9502080F31188BFF34F8FBFF36F8F66
:103DB000FEE7DFF82444A26A02F1180101F023F8BB
:103DC000266DA06A001D01F038F815F1010F00D131
:103DD0000FE0A06AAD19B5424560A06A00D210E0BC
:103DE000011DE06A01F00FF8E06E854238BFE5661C
:103DF00070BDA06A011D04F13800BDE8704000F0FC
:103E0000F4BF011D206BBDE8704000F0FCBF38B569
:103E10000D46144638B9502080F31188BFF34F8FF8
:103E2000BFF36F8FFEE7434A936A03F1180100F076
:103E3000DCFF0CB14FF0FF3521462846BDE8344089
:103E400000F09CB938B5C068C4683CB9502181F312
:103E50001188BFF34F8FBFF36F8FFEE704F1180097
:103E6000344D00F0EAFF296F79B9201D00F0E5FF1D
:103E7000E06A696D814238BF686500EB8003DFF856
:103E80005423211D02EB830002E004F118012846AF
:103E900000F0ABFFA86AE26AC16A914203D2012333
:103EA00001202B6632BD002032BDDFF82C134A6E94
:103EB0000260096D41607047F8B504000D4607D1F6
:103EC000502080F31188BFF34F8FBFF36F8FFEE751
:103ED0003DB9502080F31188BFF34F8FBFF36F8F30
:103EE000FEE700F0FCF9DFF8F002016D62682E6871
:103EF0008B1A16F1010F0ED0476ED4F800C067453B
:103F000001D091420BD2B34207D2F31A2B60416E1B
:103F10002160006D6060002402E00021296001241E
:103F200000F0F6F92046F2BD0120DFF8AC12086679
:103F30007047000054A90024109800242DE9F04196
:103F4000134C4FF08055DFF88C82DFF88C7211E053
:103F500000F0C5F9386AC668301D00F06EFFF86CD5
:103F6000401EF864796B491E796300F0D1F9304640
:103F700000F010F8786B0028EAD1D8F80010022978
:103F8000F8D32560BFF34F8FBFF36F8FF2E70000C8
:103F900004ED00E010B5044694F8590040B9206BD8
:103FA00000F0EAFF2046BDE8104000F0E5BF10BD7C
:103FB0000128F7D00228FAD0502080F31188BFF3EF
:103FC0004F8FBFF36F8FFEE7DFF80C12C86A0068EF
:103FD00018B94FF0FF32CA667047C86AC268D36822
:103FE0005868C8667047DFF8F011886D08B901207D
:103FF0007047086F08B9022070470020704770B5FD
:10400000044600209CB3E16ADFF8CC51AA6AD36A67
:10401000994226D2A069002804D4A86AC26AC2F1D3
:104020003802A26101EB8102DFF8A861636906EB47
:1040300082018B4211D1201D00F0FFFEA96AC86ADF
:104040006A6D824238BF686500EB8002E062211D24
:1040500006EB820000F0C9FE08E0A96AC86AE062C7
:1040600004E0E16CAA6AD36A994200D2012070BDD3
:1040700038B5044600219CB3DFF85C51A86A84423D
:1040800007D0502181F31188BFF34F8FBFF36F8F9B
:10409000FEE7206D38B9502080F31188BFF34F8FB1
:1040A000BFF36F8FFEE7E26A401EE36C20659A4221
:1040B00016D0A8B9201D00F0C0FEE06CE062C0F18F
:1040C0003801A1616A6D824238BF686500EB8002E9
:1040D000DFF80031211D03EB820000F086FE012194
:1040E000084632BD70B504003DD0206D38B950206F
:1040F00080F31188BFF34F8FBFF36F8FFEE7E26C41
:10410000914238BF1146E26A8A422CD001282AD156
:10411000DFF8C450A86A844207D1502181F3118886
:10412000BFF34F8FBFF36F8FFEE7A069E1620028F6
:104130005CBFC1F13801A16102EB8203DFF894603A
:10414000616906EB830291420DD1201D00F075FEDE
:10415000E06A696D814238BF686500EB8002211D0D
:1041600006EB820049E670BDDFF86C10886A18B172
:10417000886A026D521C0265886A7047F8B5164D50
:104180000C462F6DA96A0646081D00F056FE16F172
:10419000010F08D13CB1A86A011D05F13800BDE846
:1041A000F44000F022BEA86AF619BE424660A86A32
:1041B00005D2011D286BBDE8F44000F024BE011DAE
:1041C000E86A00F020FEE86E864238BFEE66F1BD78
:1041D000000000001098002454A900244908490058
:1041E000A0F120034FF0807C99610FF219011A6051
:1041F0006FF00202C3F81CC0596140F8242D20382A
:1042000070470000654950204A6812F1010F80F3A1
:104210001188BFF34F8FBFF36F8F00D0FEE7FEE72B
:104220003EB55F495F4A0868904207D1502181F34B
:104230001188BFF34F8FBFF36F8FFEE708685A4AAC
:10424000904207D1502181F31188BFF34F8FBFF304
:104250006F8FFEE7554AFF24137801931470157889
:104260004E4C8DF800509DF8000000F0500020707A
:10427000072005E09DF80030401E5B008DF80030FF
:104280009DF800502B06F5D4434213F1030F08D0DC
:10429000A060502080F31188BFF34F8FBFF36F8F62
:1042A000FEE7000200F4E060A060019810700A6A66
:1042B00042F470020A62086A40F07040086201F03D
:1042C00087F80021616001F0E5F83948026842F0A2
:1042D0004042026001F0CEF8002003B030BD502013
:1042E00080F31188BFF34F8FBFF36F8F2B494A685C
:1042F000521C012A4A600AD12E490A68130606D0C8
:1043000080F31188BFF34F8FBFF36F8FFEE77047C5
:104310002249486838B9502080F31188BFF34F8F85
:10432000BFF36F8FFEE7401E486008BF80F311881F
:10433000704780B5502080F31188BFF34F8FBFF3D3
:104340006F8FFFF79AFC18B14FF080501949086041
:10435000002282F3118801BDEFF3058010280F4978
:104360000CD3154A105C0B78984207D2502080F38A
:104370001188BFF34F8FBFF36F8FFEE788680F4937
:104380000A6802F4E062904207D2502383F3118856
:10439000BFF34F8FBFF36F8FFEE770473C000024E1
:1043A00000ED00E071C20F4170C20F4100E400E077
:1043B00034EF00E004ED00E0F0E300E00CED00E09D
:1043C00038B51C4638B9502080F31188BFF34F8FA1
:1043D000BFF36F8FFEE73CB9502080F31188BFF325
:1043E0004F8FBFF36F8FFEE742B141B9502080F38A
:1043F0001188BFF34F8FBFF36F8FFEE779B950235A
:104400000093009D502D12D1009B34B1049B0125D7
:1044100084F84650009400F032F8204632BD502413
:1044200084F31188BFF34F8FBFF36F8FFEE783F3E1
:104430001188BFF34F8FBFF36F8FFEE7F8B505000C
:104440000E46174607D1502080F31188BFF34F8FD7
:10445000BFF36F8FFEE706FB05F0503000F002FD62
:1044600004000AD000213B4684F8461004F15002B3
:1044700000943146284600F002F82046F2BD70B59F
:104480001D46049C00290CBF24602260E063216467
:104490003CB9502080F31188BFF34F8FBFF36F8F6B
:1044A000FEE7FFF71CFF206CE16B2268002600FB93
:1044B00001F3491E48431344A3601044A663E0601F
:1044C00004F1440662604FF0FF303070707004F108
:1044D000100000F07AFC04F1240000F076FCFFF7F5
:1044E00017FF357270BD38B50C46134638B95020E9
:1044F00080F31188BFF34F8FBFF36F8FFEE7A042A9
:1045000007D2502080F31188BFF34F8FBFF36F8F16
:10451000FEE70225002200950021FFF751FF00B1C0
:10452000846332BD10B50C4638B9502080F3118831
:10453000BFF34F8FBFF36F8FFEE7A04207D250202B
:1045400080F31188BFF34F8FBFF36F8FFEE7022216
:104550000021FFF773FF00B1846310BD2DE9F64120
:1045600082B0064688461F4600243EB9502080F39C
:104570001188BFF34F8FBFF36F8FFEE7B8F1000FC5
:1045800001D1306C98B9022F02D1F06B012816D1FD
:10459000FFF729FD002850D1039800284DD0502165
:1045A00081F31188BFF34F8FBFF36F8FFEE7502069
:1045B00080F31188BFF34F8FBFF36F8FFEE750205A
:1045C00080F31188BFF34F8FBFF36F8FFEE703981F
:1045D000002855D01CB968460124FFF766FCFFF798
:1045E00097FEFFF7E7FAFFF77AFE06F1440090F92D
:1045F000001011F1010F04BF0022027090F90110A8
:1046000011F1010F04BF00224270FFF781FE03A9E0
:104610006846FFF751FC00284CD1FFF760FEB06BF5
:10462000F16B884214BF00250125FFF771FE5DBBC9
:10463000304600F0FEFAFFF7C3FAFFF750FEB06B0A
:10464000F16B884201D3022FC1D13A464146304630
:1046500000F0A8FA716A29B106F12400FFF7F2FB15
:1046600008B909E040B14FF08050DFF8D416086077
:10467000BFF34F8FBFF36F8FFFF74AFE01201FE09C
:10468000FFF746FE00201BE0039906F11000FFF73C
:1046900085FB304600F0CDFAFFF792FA0028CCD126
:1046A0004FF08050DFF898160860BFF34F8FBFF3CC
:1046B0006F8FC2E7304600F0BCFAFFF781FAE1E7FE
:1046C00004B0BDE8F0812DE9F84304000E4615461C
:1046D0001F4607D1502080F31188BFF34F8FBFF3DF
:1046E0006F8FFEE70EB9206C68BB022F02D1E06B22
:1046F000012830D1FFF730FEEFF31188502181F30C
:104700001188BFF34F8FBFF36F8FA06BE16B8842AF
:1047100001D3022F2DD194F94590A06B3A46314632
:10472000204600F03FFA19F1010F1CD1606AF0B188
:1047300004F12400FFF786FB002818BF002D16D0D7
:104740000120286013E0502181F31188BFF34F8FBF
:10475000BFF36F8FFEE7502080F31188BFF34F8FB8
:10476000BFF36F8FFEE709F1010984F8459001203E
:1047700000E0002088F31188BDE8F28370B50400E2
:104780000D4607D1502080F31188BFF34F8FBFF340
:104790006F8FFEE7206C38B1502181F31188BFF391
:1047A0004F8FBFF36F8FFEE7216809B9A06810BB78
:1047B000FFF7D2FDEFF31186502181F31188BFF38B
:1047C0004F8FBFF36F8FA06BE16B884220D294F9BB
:1047D0004510401CA06311F1010F14D1606AA8B10B
:1047E00004F12400FFF72EFB002818BF002D0DD088
:1047F000012028600AE0502181F31188BFF34F8F18
:10480000BFF36F8FFEE7491C84F84510012000E0DC
:10481000002086F3118870BDF7B506460F460024C8
:104820003EB9502080F31188BFF34F8FBFF36F8FD5
:10483000FEE70FB9306C60B9FFF7D5FBB0B902984D
:10484000A0B1502181F31188BFF34F8FBFF36F8F59
:10485000FEE7502080F31188BFF34F8FBFF36F8FB7
:10486000FEE7304600F0E5F9FFF7AAF9FFF737FD5C
:10487000B56B002D44D10298002858D01CB9684669
:104880000124FFF712FBFFF743FDFFF793F9FFF752
:1048900026FD06F14400415711F1010F04BF00222B
:1048A000027090F9011011F1010F04BF0022427053
:1048B000FFF72EFD02A96846FFF7FEFA002839D15E
:1048C000FFF70DFDB06B451EAD41ED0FFFF720FD6D
:1048D000002DC6D0029906F12400FFF75FFA30469A
:1048E00000F0A7F9FFF76CF90028BFD14FF0805016
:1048F000DFF84C140860BFF34F8FBFF36F8FB5E73D
:104900003946304600F082F96D1EB563306968B1F2
:1049100006F11000FFF796FA40B14FF08050DFF833
:1049200020140860BFF34F8FBFF36F8FD6E0FFF7FF
:10493000EFFCD0E0304600F07CF9FFF741F9FFF7DB
:10494000CEFCB06B451EAD41ED0FFFF7E1FC002D35
:104950008CD0EEE7F2B582B00746002400253FB9BF
:10496000502080F31188BFF34F8FBFF36F8FFEE7A6
:10497000386C38B1502181F31188BFF34F8FBFF3EA
:104980006F8FFEE7FFF72FFB70B9029860B15021DF
:1049900081F31188BFF34F8FBFF36F8FFEE7384667
:1049A00000F047F9FFF70CF9FFF799FCB86B002806
:1049B0004ED10298002862D01CB968460124FFF746
:1049C00074FAFFF7A5FCFFF7F5F8FFF788FC07F18D
:1049D000440090F9001011F1010F04BF0022027091
:1049E00090F9011011F1010F04BF00224270FFF78E
:1049F0008FFC02A96846FFF75FFA00284BD1FFF74A
:104A00006EFCB86B461EB641F60FFFF781FC002E18
:104A1000C5D0386838B9FFF762FCB868FFF7EFFA1D
:104A20000546FFF775FC029907F12400FFF7B6F978
:104A3000384600F0FEF8FFF7C3F80028B4D14FF075
:104A4000805029490860BFF34F8FBFF36F8FABE7EA
:104A5000401EB863386810B9FFF786FBB860386944
:104A600060B107F11000FFF7EDF938B14FF0805059
:104A70001D490860BFF34F8FBFF36F8F2EE03DB12C
:104A8000502080F31188BFF34F8FBFF36F8FFEE785
:104A9000FFF73EFC1FE0384600F0CBF8FFF790F838
:104AA000FFF71DFCB86B461EB641F60FFFF730FC52
:104AB000002E3FF479AF75B1FFF711FC786A00283A
:104AC0001DBF396B0968C1F138010021B868FFF7D3
:104AD00009FBFFF71DFC002003B0F0BDFFF718FC39
:104AE000012003B0F0BD000004ED00E02DE9F84323
:104AF00004000F46154607D1502080F31188BFF3FC
:104B00004F8FBFF36F8FFEE70FB9206C70B9FFF7BF
:104B100023FCEFF31188502181F31188BFF34F8FED
:104B2000BFF36F8FA66B4EB9002023E6502080F3B1
:104B30001188BFF34F8FBFF36F8FFEE794F9449056
:104B400039462046761E00F061F8A66319F1010F80
:104B50000CD1206970B104F11000FFF773F900283F
:104B600018BF002D06D00120286003E009F10109DB
:104B700084F844900120D8E710B5040007D15020F4
:104B800080F31188BFF34F8FBFF36F8FFEE700F004
:104B9000AAF894F8460020B92046BDE8104000F07D
:104BA000EBB910BDF8B506461546B46B326C00275C
:104BB00042B9316831BBB068FFF75AFA00210746A5
:104BC000B1601FE065B9706800F072FCB26870688F
:104BD000316C08449042706014D33068706011E00A
:104BE000F06800F065FC306CF16840420144F1600F
:104BF0003268914202D2B3681844F060022D01D1AC
:104C000004B1641E641C3846B463F2BD026C0B46EA
:104C1000002A00D1704730B4C16884681144C16073
:104C2000A14224BF0568C560C168184630BC00F0C9
:104C30003FBCF8B5054605F14406FFF750FB96F971
:104C40000140012C0ADB686A40B105F12400FFF73E
:104C5000F9F808B1FFF768F9641EF4D14FF0FF3797
:104C60007770FFF755FBFFF73AFB96F90040012CF0
:104C70000ADB286940B105F11000FFF7E3F808B13D
:104C8000FFF752F9641EF4D13770BDE8F140FFF729
:104C90003FBB30B42B4D00242B6833B945F834109A
:104CA00005EBC401486030BC7047AA680124002AA3
:104CB0001EBF02242B69002BF0D0AA690324002A0E
:104CC0001EBF04242B6A002BE8D0AA6A0524002A00
:104CD0001EBF06242B6B002B1EBF0724AA6B002AC5
:104CE000DCD030BC704710B4164B002259688142AA
:104CF00007D1002043F832001B1D43F8320010BCDE
:104D00007047DC68012284421EBF02225969814239
:104D1000EFD0DC69032284421EBF0422596A81421B
:104D2000E7D0DC6A052284421EBF0622596B81420D
:104D30001EBF0722DC6B8442DBD010BC7047000032
:104D400004ED00E044AB0024F8B504460D461646D9
:104D500004F13807FFF7C3FA97F90C0010F1010FBF
:104D600004BF0021397397F90D0010F1010F04BF42
:104D700000217973FFF7CCFA386828B93246294602
:104D800004F12400FFF743F82046BDE8F24050E765
:104D900062F30F2262F31F4200B500BF1300964674
:104DA0009446103928BFA0E80C50FAD85FEA417C3D
:104DB00028BF0CC048BF40F8042BC90728BF20F803
:104DC000022B48BF00F8012B00BD4FF0FF3200F16D
:104DD0000801826000F1080341600022C3600161A4
:104DE0000260704700210161704742684A60936821
:104DF0008B60D2F808C0CCF804109160086101689B
:104E0000491C0160704730B40A6812F1010F08BFF5
:104E1000036907D000F1080300E023465C682568B9
:104E2000AA42FAD25A684A6091608B605960086160
:104E30000168491C016030BC7047436801698268A1
:104E40009A608268D0F804C0C2F804C04B688342FC
:104E500004BF82684A60002303610868401E08603E
:104E6000086870472DE9F04104466D4FFEF7A2FE39
:104E7000B8684FF00008002508BB07F1200313F0C5
:104E8000070F07F120014FF400400A4605D0CA1D64
:104E9000D208D200C2F50040081880180838C008AF
:104EA000C0003A60811A7D60B8604560056051605D
:104EB000106050683861F8604FF00040F861F9699F
:104EC0000C424BD1002C49D0083414F0070F04D009
:104ED00004F1080004F00704041B002C3ED0F8681D
:104EE000A0423BD339463E6801E03146064672682F
:104EF000A24202D230680028F7D1B86886422DD08D
:104F00000A6833680B6002F108087268121B112AE4
:104F100011D3311911F0070007D0502181F3118806
:104F2000BFF34F8FBFF36F8FFEE7301D025108466E
:104F3000746000F050F87168F8683C69401AF860D5
:104F4000FA68A24288BF2246F8693A61014371605B
:104F500035607A6908F00705521C7A61FEF730FE69
:104F60003DB1502080F31188BFF34F8FBFF36F8F97
:104F7000FEE74046BDE8F081002800D1704738B513
:104F8000A0F10804264D6168EA69114207D150205A
:104F900080F31188BFF34F8FBFF36F8FFEE7206858
:104FA00038B1502181F31188BFF34F8FBFF36F8F5A
:104FB000FEE791436160FEF7FDFDE9686068411816
:104FC0002046E96000F007F8A969491CA961BDE81D
:104FD0003140FEF7F5BD124930B40A4600E02246E2
:104FE00014688442FBD35368D418844203D14068C8
:104FF000C3181046536043681468C518A54208D109
:1050000089688C4204D06168CB184360246800E052
:105010000C460460824218BF106030BC704700002C
:10502000F00D0024034B036003F15C000860802155
:1050300011607047E4A3002410B586B0DFF8784310
:1050400000F092F9A068C0B1002204A9059205A859
:10505000049203AA00F082FA0222059800920499B1
:10506000039A0290019100230FF254310FF22100B4
:10507000FEF7C6FB0028E06007D1502181F31188BC
:10508000BFF34F8FBFF36F8FFEE7012006B010BD57
:105090002DE9F04389B0DFF824834FF08059DFF821
:1050A00018733968086810B90124002502E0C8683F
:1050B00000240568FEF77EFD684600F0E5F8064628
:1050C0000098002855D1002C3FD1AE4242D3FEF7C4
:1050D00077FD3868C168CC68201DFFF7AEFE94F8F4
:1050E000280041072CD5A1692B4632462046491994
:1050F00000F01EF980B19CB1B868C8B100220192DD
:1051000002950394FEF76FFFB8680023002201A9FF
:10511000FFF724FA00280BD0216A2046884732E0A6
:10512000502080F31188BFF34F8FBFF36F8FFEE7DE
:10513000502080F31188BFF34F8FBFF36F8FFEE7CE
:1051400000F0FE0084F82800E6E7786801684C1E4D
:10515000A441E40FB8682246A91BFFF7F5FDFEF74E
:105160002FFD80B9C8F80090BFF34F8FBFF36F8F4A
:1051700009E0FEF725FD06E094F82800810740D4F9
:105180002046FFF7F9FEB868002201A9FFF744FBAB
:10519000002886D00198002803D504990398029A24
:1051A000904701980028EED4039C606910B1201D3F
:1051B000FFF743FE684600F067F801990929E2D835
:1051C000DFE801F02626261F070626261F07DAE756
:1051D000D2E794F8282042F0010284F828200299AE
:1051E000A16131B1034602460918204600F0A0F83B
:1051F000C9E7502080F31188BFF34F8FBFF36F8F43
:10520000FEE794F8280000F0FE0084F82800BAE7D2
:1052100094F828100246A06941F0010184F8281092
:1052200002990B464118204600F082F80028AAD0C7
:10523000216A2046884794F828004207A3D5029A9D
:10524000A1698A1884B1B868B0B1002306920593A9
:105250000794FEF7C8FEB8680023002205A9FFF7EF
:105260007DF900288FD107E0502080F31188BFF32B
:105270004F8FBFF36F8FFEE7502080F31188BFF38D
:105280004F8FBFF36F8FFEE72DE9F04184B00746E3
:10529000FEF7EFFC8046484E306980450DD3002173
:1052A00039604046C6F8108004B0BDE8F081606007
:1052B000211D24613068FFF7A6FD3168086890B3AE
:1052C000C868C4680568201DFFF7B7FD216A20463D
:1052D000884794F828004207EFD5A0694019854215
:1052E000E5D384B1B068B0B1002200920195029478
:1052F000FEF779FEB068002300226946FFF72EF919
:105300000028DAD107E0502080F31188BFF34F8FD7
:10531000BFF36F8FFEE7502080F31188BFF34F8FEC
:10532000BFF36F8FFEE77068716030600121B7E7EF
:1053300010B500248A424160006107D3D21A836904
:105340009A4207D2011D1C4A506808E09A4203D2D3
:10535000994201D3012404E0011D17480068FFF7BA
:1053600052FD204610BD00001CB5FEF7B8FF124CE0
:10537000A068E0B904F11400FFF727FD04F128004C
:10538000FFF723FD04F1140004F12801002220603E
:10539000616004F13C03009204F18C0210210A20A8
:1053A000FFF70EF8A06010B107A1FFF772FCBDE88F
:1053B0001340FEF7ADBF000028A8002404ED00E074
:1053C000546D722053766300546D725100000000DA
:1053D00070B408480021016000228260064B1C68FE
:1053E000064E0721A4FB06656D0A6D1E456001602F
:1053F00070BC704710E000E054000024986E1283E7
:10540000EFF30980BFF36F8F264B1A681EF0100F61
:1054100008BF20ED108A20E9F04F106009B44FF06A
:10542000500080F31188BFF34F8FBFF36F8FFEF7EB
:1054300086FC4FF0000080F3118809BC19680868E9
:10544000B0E8F04F1EF0100F08BFB0EC108A80F3E8
:105450000988BFF36F8F7047124B19680868B0E86E
:10546000F04F80F30988BFF36F8F4FF0000080F397
:10547000118870470C480068006880F308884FF076
:10548000000080F3148862B661B6BFF34F8FBFF39C
:105490006F8F00DFDFF81400016841F470010160D4
:1054A000704700007CA9002408ED00E088ED00E0D2
:1054B00062B38B0708D0521E11F8013B00F8013B84
:1054C00000F024808B07F6D1830740F0208000BFD6
:1054D000103A07D330B4B1E83810103AA0E83810C9
:1054E000F9D230BC530724BFB1E80810A0E8081077
:1054F00044BF51F8043B40F8043BD20724BF31F8C5
:10550000022B20F8022B44BF0B7803707047121F48
:1055100017D35B0009D151F8043B20F8023B1B0C68
:10552000121F20F8023BF6D20BE051F8043B00F8C2
:10553000013B1B0A20F8023B1B0C121F00F8013B29
:10554000F3D238BF121D521E24BF11F8013B00F8E0
:10555000013BF8D87047C079C0097047044B03601D
:1055600003F15C0008604FF480711160704700BF68
:10557000709C002410B5044600F006F80148206035
:10558000204610BD1004000800BFF8B504460D46C3
:1055900016463B4F00F092F83A4804F59C722060A2
:1055A0000021116038485160384B3C600027206072
:1055B0000FF2E80C936004F5A473D760DCE90001F6
:1055C000C3E90001D561324D966128680021026867
:1055D00093689847002001F09AF8296891F87600BE
:1055E00000281ABFC86C0028886801F0D7F8204648
:1055F000F2BD00002DE9300000F59E7129A212E0F5
:1056000080B500F5A871234B4A6800920A6800F53E
:105610009C71214801F0D4F801BD00002DE9300053
:1056200000F59E7121A2886000F5A473D2E90045BF
:10563000C3E9004500F5A070086030BC704780B534
:1056400000F5A871134B4A6800920A6800F59C7136
:10565000114801F05FF901BD2DE9300000F59E71A0
:1056600014A2E0E780B500F5A8710A4B4A680092E1
:105670000A6800F59C71084801F032FA01BD00008B
:10568000680D002478040008D4040008BC04000855
:1056900074AC0024700D00246C0D00240000000088
:1056A0000000000001560008000000003F560008FE
:1056B00000000000655600080000000000BF38B57B
:1056C0000446DFF8081A2160DFF8042A226000236C
:1056D000A4F8843004F1A80001F0EAFA04F1EA0029
:1056E000DFF8F05901F0E4FA04F59670002101802A
:1056F00041808180C18001724172DFF8DC19DFF8DE
:10570000DC0901F0E3FA10B10020288106E04FF433
:10571000806102202981286101F08FFB0021204651
:10572000E9602961696100F0E5FC204632BDDFF8DF
:10573000A409C06870470000DFF89809006910B13B
:10574000026893691847704770473EB50022DFF83A
:1057500094490092DFF88839A25EB3F90050ADF8A1
:1057600004206946ADF806500268536B984703B0B1
:1057700030BDF8B505460C46DFF86409DFF864195A
:1057800084B0B0F90000B1F90010002200920822A4
:10579000ADF804102146ADF8060002A8FFF788FE18
:1057A000694602A801F0A2FD204602A90822DFF8FE
:1057B0002469FFF77DFE306908B395F8341169B1AB
:1057C000684621460822FFF773FEDDE900231146F3
:1057D0001A46284600F015F805B0F0BD05682146C8
:1057E000AF68B847B06918B1026821469368984716
:1057F000DFF8F408214600680268D369984705B0CD
:10580000F0BD2DE9F74F88B009A801F0B7FD68B1E8
:10581000CAE30898A9B200F1A80409A804EBC101E1
:1058200001F0B8FDA9B2204601F0FCFD0898B0F8DF
:10583000E880B8F1010851D4DFF8B068DFF8B0783B
:1058400008981FFA88F3BDF9245000F1A80101EB74
:10585000C3040091B4F90010A942A2BFB4F9022018
:10586000BDF926309A4236DBBDF82450BDF828C079
:10587000B4F804E065442DB2714409B28D422ADBCC
:10588000BDF82A10E088CB181BB2821812B29342DE
:1058900021DB089A1FFA88F0B2F8E810884207D393
:1058A0004FF4DE723946304601F0E2FDAFF300807E
:1058B00008981FFA88F5B0F8E810491EA0F8E8101B
:1058C00088B2854207D2009B89B22046082203EBAA
:1058D000C101FFF7EDFDB8F10108B1D5089A00212B
:1058E0000020B2F8E820521E00F13582089B96B2E3
:1058F000BDF92850BDF8247003F1A80404EBC60CD0
:105900000094BCF90060EF193CB2A64274DABCF80E
:105910000430BDF924E09B190FFA83F8C6456BDA11
:10592000BDF92AE0BDF92640BCF902800EEB04095E
:105930000FFA89FBD845BFBFBCF806A0C2440FFAD6
:105940008AFB5C4558DABDF924C0B445A2BF0FFA02
:1059500083FC0FFA87FBDC4523DB444511DBAAEB14
:10596000040A0FFA8AFAAEEB0A0EADF82AE00FFA33
:105970008EFEBEF1000FC4BF5444ADF8264038DCA3
:1059800012E30FFA8AFA0FFA89F9CA4533DBA8EB5A
:105990000408ADF82A800FFA88F8B8F1000F28DC67
:1059A00002E34445A2BF0FFA8AFA0FFA89F9CA4501
:1059B00021DBBDF92440B4420EDBBDF824609B1B03
:1059C0001BB2ED1AADF828502DB2002DC4BF9B19A3
:1059D000ADF824300DDCE7E21BB23FB2BB420ADB7C
:1059E000BDF82400361AADF8286036B2002E7FF7D5
:1059F0000FAF012000E00121521E7FF577AF002894
:105A00007FF46CAF002900F0A68108984FF00008E1
:105A1000B0F8E890B9F1010900F19D8100981FFAF2
:105A200089F1BDF8282000EBC100BDF82410511801
:105A3000B0F900200CB2A24253DAB0F90430BDF93B
:105A400024509C1826B2B5424BDABDF92670BDF839
:105A50002A60B0F90250F6190FFA86FE7545BFBFED
:105A6000B0F906C00CEB050E0FFA8EFB5F4538DA75
:105A7000BDF924A05245A2BF0FFA81FA0FFA84FBA8
:105A8000DA4511DBBD4207DB761B36B27519ACEB8C
:105A900006064580C68024E036B20FFA8EFE7645B3
:105AA0001DDB7D1BC5801CE0BD42A2BF36B20FFAD4
:105AB0008EFE764513DBBDF92450AA4206DB891A17
:105AC00009B28A18591A028081800AE009B224B208
:105AD000A14204DBBDF824108A1A828001E04FF055
